:100000000C942A000C9447000C9447000C94470071
:100010000C9447000C9447000C9447000C94470044
:100020000C9447000C9447000C94D1000C944700AA
:100030000C940E010C9447000C9447000C9447005C
:100040000C9447000C9447000C9447000C94470014
:100050000C94470011241FBECFE5D8E0DEBFCDBF12
:1000600010E0A0E6B0E0E8E3FDE002C005900D92EC
:10007000A238B107D9F710E0A2E8B0E001C01D92A4
:10008000AD3AB107E1F70E9479060C949A060C94F8
:100090000000582F90E0FC01A3E0EE0FFF1FAA958F
:1000A000E1F7E81BF90BEE57FF4F80819181892B17
:1000B00011F083E008957483638331832083528336
:1000C0004683158281E0089590E0FC01B3E0EE0FD5
:1000D000FF1FBA95E1F7E81BF90BEE57FF4F81E0E0
:1000E0008583089590E0FC0123E0EE0FFF1F2A9521
:1000F000E1F7E81BF90BEE57FF4F1582089590E0EA
:10010000FC0133E0EE0FFF1F3A95E1F7E81BF90B16
:10011000EE57FF4F118210820895CF93DF93C2E80C
:10012000D0E08D81882361F4E881F981309741F036
:100130008E81882319F409958B8101C081508E83AB
:10014000279680E0C53AD80761F7DF91CF910895EF
:100150008DE890E00E94CC008FB780688FBF0E942E
:10016000B200089583B7886083BF83B78F7B83BF56
:1001700089B7826089BF1CBE83B7887F836083BFD5
:100180008FB780688FBF089583B7887F83BF089536
:1001900082BF08958CBF08959093A6008093A50018
:1001A00008951F920F920FB60F9211242F933F9331
:1001B0004F935F936F937F938F939F93AF93BF936F
:1001C000EF93FF93E091A500F091A6000995FF91B0
:1001D000EF91BF91AF919F918F917F916F915F91BF
:1001E0004F913F912F910F900FBE0F901F90189538
:1001F0008FB9779BFECF8FB108959FB18FB9892FAB
:10020000089580EA87BB81E58DB9089580E487BBB6
:100210008DB90895779BFECF8FB108951F920F92ED
:100220000FB60F9211242F933F934F935F936F93C9
:100230007F938F939F93AF93BF93EF93FF93E0913F
:10024000A700F091A8000995FF91EF91BF91AF91A0
:100250009F918F917F916F915F914F913F912F91DE
:100260000F900FBE0F901F901895CF93DF93EC0166
:1002700081E067E040E00E94D10181E065E040E07C
:100280000E94D10181E064E040E00E94D10181E060
:1002900066E041E00E94D1016C986D9A6B986A9873
:1002A000209721F0D093A800C093A7008FB7806853
:1002B0008FBF6F9A6E9ADF91CF9108954130B1F55B
:1002C000813099F0813030F08230D1F0833009F004
:1002D00067C021C02BB381E090E002C0880F991F56
:1002E0006A95E2F7282B2BBB089528B381E090E0B4
:1002F00002C0880F991F6A95E2F7282B28BB089542
:1003000025B381E090E002C0880F991F6A95E2F75B
:10031000282B25BB089522B381E090E002C0880F0E
:10032000991F6A95E2F7282B22BB08954423C1F553
:10033000813099F0813028F08230D9F0833081F516
:1003400024C02BB381E090E002C0880F991F6A950A
:10035000E2F7809582238BBB089528B381E090E07B
:1003600002C0880F991F6A95E2F78095822388BBA7
:10037000089525B381E090E002C0880F991F6A9527
:10038000E2F78095822385BB089522B381E090E057
:1003900002C0880F991F6A95E2F78095822382BB7D
:1003A00008954130B1F5813099F0813030F08230DC
:1003B000D1F0833009F065C021C02AB381E090E01C
:1003C00002C0880F991F6A95E2F7282B2ABB08956F
:1003D00027B381E090E002C0880F991F6A95E2F789
:1003E000282B27BB089524B381E090E002C0880F3A
:1003F000991F6A95E2F7282B24BB089521B381E069
:1004000090E002C0880F991F6A95E2F7282B21BB64
:100410000895813099F0813028F08230D9F083300E
:1004200081F524C02AB381E090E002C0880F991FB3
:100430006A95E2F7809582238ABB089527B381E00D
:1004400090E002C0880F991F6A95E2F78095822399
:1004500087BB089524B381E090E002C0880F991F04
:100460006A95E2F78095822384BB089521B381E0E9
:1004700090E002C0880F991F6A95E2F78095822369
:1004800081BB0895813091F0813028F08230C9F02D
:10049000833061F521C02BB381E090E002C0880F6A
:1004A000991F6A95E2F728272BBB089528B381E0AE
:1004B00090E002C0880F991F6A95E2F7282728BBB1
:1004C000089525B381E090E002C0880F991F6A95D6
:1004D000E2F7282725BB089522B381E090E002C00F
:1004E000880F991F6A95E2F7282722BB089581306B
:1004F00049F0813028F0823039F08330B1F40DC0FA
:1005000089B303C086B301C083B390E002C0959560
:1005100087956A95E2F78170089580B390E002C0F4
:10052000959587956A95E2F781700895813049F035
:10053000813028F0823039F0833041F406C06BBB43
:10054000089568BB089565BB089562BB0895813026
:1005500049F0813028F0823039F0833041F406C010
:100560006ABB089567BB089564BB089561BB089595
:100570009FEF9ABB8FE487BB94BB91BB08951BBAD6
:1005800018BA15BA12BA08950E944202089540E0BE
:100590000E945E01089541E00E945E010895AF92BD
:1005A000BF92CF92DF92EF92FF920F931F93CF9360
:1005B000DF935C01FC01108290E6C92E90E0D92EF9
:1005C00000E0EE24FF2480E0F601608140E00E941C
:1005D0005E0183E0609164000E947702882319F431
:1005E000C0E0D0E01FC083E0609165000E94770208
:1005F000882319F4C1E0D0E015C083E06091660063
:100600000E947702882319F4C2E0D0E00BC083E097
:10061000609167000E947702882311F010E019C0F2
:10062000C3E0D0E08E010C591F4F83E0F8016081D8
:100630000E9477028823C9F3CC0FDD1FCC0FDD1F8A
:10064000CE0DDF1DC859DF4F8881F501808311E091
:1006500001E080E0F601608141E00E945E0101302E
:1006600059F00894E11CF11C0894C11CD11CF4E061
:10067000EF16F10409F0A7CF812FDF91CF911F91E1
:100680000F91FF90EF90DF90CF90BF90AF900895C3
:10069000EF92FF920F931F93CF93DF937C01FC01A6
:1006A000108200E610E0C0E0D0E080E0F801608158
:1006B00040E00E945E0183E0609164000E94770246
:1006C000882319F4E0E0F0E01DC083E0609165004C
:1006D0000E947702882319F4E1E0F0E013C083E080
:1006E000609166000E947702882319F4E2E0F0E04E
:1006F00009C083E0609167000E947702882369F453
:10070000E3E0F0E0EE0FFF1FEE0FFF1FEC0FFD1F09
:10071000E859FF4F8081F701808380E0F801619103
:100720008F0141E00E945E012196C430D10509F09D
:10073000BCCFDF91CF911F910F91FF90EF90089563
:10074000CF92DF92EF92FF920F931F93DF93CF939D
:100750000F92CDB7DEB77C01FC01108200E610E0FD
:100760001982CC24DD2480E0F801608140E00E9401
:100770005E0183E0609164000E947702882319F48F
:10078000E0E0F0E01DC083E0609165000E94770228
:10079000882319F4E1E0F0E013C083E06091660083
:1007A0000E947702882319F4E2E0F0E009C083E0B8
:1007B000609167000E947702882379F4E3E0F0E01B
:1007C000EE0FFF1FEE0FFF1FEC0DFD1DE859FF4F51
:1007D0008081F7018083F1E0F98380E0F801608196
:1007E00041E00E945E01F981F13051F00894C11C92
:1007F000D11C0F5F1F4F84E0C816D10409F0B3CF9E
:100800000F90CF91DF911F910F91FF90EF90DF90AC
:10081000CF900895CF92DF92EF92FF920F931F93A4
:10082000CF93DF937C01FC01108200E610E0C0E072
:10083000D0E058ECC52ED12C80E0F801608140E07A
:100840000E945E0183E0609164000E947702882329
:1008500019F4E0E0F0E01DC083E0609165000E94C3
:100860007702882319F4E1E0F0E013C083E060919F
:1008700066000E947702882319F4E2E0F0E009C0E4
:1008800083E0609167000E9477028823D1F4E3E05F
:10089000F0E084EF91E0D6011197F1F70197D9F7D5
:1008A000EE0FFF1FEE0FFF1FEC0FFD1FE859FF4F6C
:1008B0008081F701808380E0F801608141E00E943F
:1008C0005E0121960F5F1F4FC430D10509F0B4CFF0
:1008D000DF91CF911F910F91FF90EF90DF90CF901C
:1008E0000895BF92CF92DF92EF92FF920F931F93E2
:1008F000CF93DF937C01FC011082C4E6D0E008E6D0
:1009000010E075E8B72E68ECC62ED12C83E0688124
:1009100041E00E945E018B2D8A95F1F780E06091A5
:1009200060000E9477028130A9F080E06091610050
:100930000E947702813071F080E0609162000E9435
:100940007702813039F080E0609163000E94770285
:10095000813089F484EF91E0F6013197F1F7019746
:10096000D9F7F8018081F701808383E0609164000A
:1009700040E00E945E0121960B5F1F4FF0E0C836F9
:10098000DF0709F0C3CFDF91CF911F910F91FF9047
:10099000EF90DF90CF90BF9008950F931F9388231F
:1009A00009F474C0813009F0FDC081E060E041E0ED
:1009B0000E945E0181E061E040E00E945E0181E012
:1009C00062E040E00E945E0181E063E040E00E945E
:1009D0005E0100E117E2C8010197F1F781E060E0F4
:1009E00040E00E945E0181E061E041E00E945E0122
:1009F00081E063E040E00E945E0181E062E040E06F
:100A00000E945E01C8010197F1F781E060E040E0DB
:100A10000E945E0181E061E040E00E945E0181E0B1
:100A200063E040E00E945E0181E062E041E00E94FC
:100A30005E01C8010197F1F781E060E040E00E94AB
:100A40005E0181E061E040E00E945E0181E063E0E0
:100A500041E00E945E0181E062E040E00E945E01B0
:100A6000C8010197F1F781E060E041E00E945E017A
:100A700081E061E040E00E945E0181E062E040E0F0
:100A80000E945E0181E063E040E087C081E060E0B9
:100A900041E00E945E0181E061E040E00E945E0171
:100AA00081E062E040E00E945E0181E063E040E0BE
:100AB0000E945E0100E117E2C8010197F1F781E0B1
:100AC00060E040E00E945E0181E061E040E00E9461
:100AD0005E0181E063E041E00E945E0181E062E04E
:100AE00040E00E945E01C8010197F1F781E060E0FB
:100AF00040E00E945E0181E061E040E00E945E0112
:100B000081E063E040E00E945E0181E062E041E05C
:100B10000E945E01C8010197F1F781E060E040E0CA
:100B20000E945E0181E061E041E00E945E0181E09F
:100B300063E040E00E945E0181E062E040E00E94EC
:100B40005E01C8010197F1F781E060E041E00E9499
:100B50005E0181E061E040E00E945E0181E062E0D0
:100B600040E00E945E0181E063E040E00E945E019F
:100B7000C8010197F1F781E060E041E00E945E0169
:100B800081E061E040E00E945E0181E062E040E0DF
:100B90000E945E0181E063E041E00E945E01C801C5
:100BA0000197F1F71F910F91089580E062E040E016
:100BB0000E945E0180E063E040E00E945E010895D3
:100BC00080E062E041E00E945E0180E063E040E09E
:100BD0000E945E0108959FB19093A9008091AA00A0
:100BE000813029F48FB18093A90082BB19C0809114
:100BF000AA008230C1F42FB12093A900822F6AE0AD
:100C00000E948E068093AB00822F0E948E069093E6
:100C1000AC00293218F00E94E00502C00E94D50500
:100C20001092AA0008958091AA00882379F599333B
:100C300011F481E003C0913421F482E08093AA0092
:100C40000895913319F48EEF8CBF0895923311F407
:100C50001CBE0895933319F40E94E005089594335F
:100C600019F40E94D5050895953311F481E003C06D
:100C7000963321F480E00E94CD040895973311F457
:100C800012BA0895983311F48FEF82BB0895EF9252
:100C9000FF920F931F93F82EE62E80E060E041E074
:100CA0000E945E0180E061E040E00E945E0115BAB2
:100CB00008E710E0F801EF0DF11D808185BB80E0B1
:100CC00060E040E00E945E0180E061E041E00E945F
:100CD0005E0115BA0E0D111DF801808185BB1F91B3
:100CE0000F91FF90EF90089580E064E00E9442022F
:100CF00008950E94B8020E94BF028BEE95E00E9408
:100D0000350184E796E00E94CC000E94B2008091F9
:100D1000AC006091AB000E944706F9CF991B79E0C7
:100D200004C0991F961708F0961B881F7A95C9F77B
:080D300080950895F894FFCFAF
:100D380004050607040506073738392F34353658B1
:100D48003132332D23303D2B3F065B4F666D7D07D7
:020D58007F6FAB
:00000001FF
