:100000000C942A000C9447000C9447000C94470071
:100010000C9447000C9447000C9447000C94470044
:100020000C9447000C9447000C9449080C9447002A
:100030000C9432090C9447000C9447000C94470030
:100040000C9447000C9447000C9447000C94470014
:100050000C94470011241FBECFE5D8E0DEBFCDBF12
:1000600010E0A0E6B0E0ECEFF3E302C005900D92E3
:10007000AA38B107D9F710E0AAE8B0E001C01D9294
:10008000A53BB107E1F70E9408110C94FC190C94F0
:100090000000EF92FF920F931F937B018C0120E0F1
:1000A00030E040E05FE40E94F50388238CF0C80153
:1000B000B70120E030E040E05FE40E94C1010E940F
:1000C00055049B01AC01205030404040504806C0D0
:1000D000C801B7010E9455049B01AC01B901CA01D6
:1000E0001F910F91FF90EF900895A0E0B0E0EBE733
:1000F000F0E00C94C519DC012B01FA019C919230BF
:1001000008F439C1EB018881823008F433C194309E
:1001100069F4843009F02FC111969C91119789815F
:10012000981709F428C1A0E6B0E025C1843009F48D
:1001300021C18230A9F4923009F01DC19A01AD01AC
:1001400088E0EA010990AE01E90109929E0181501F
:10015000C1F7E201898111969C918923818308C1AD
:10016000923009F407C112962D903C901397EB0141
:100170008A819B811496AD90BD90CD90DC901797AD
:10018000EC80FD800E811F819101281B390BB90184
:1001900037FF04C066277727621B730B6032710537
:1001A0000CF061C0121613066CF537014801062EDB
:1001B00004C096948794779467940A94D2F721E0C8
:1001C00030E040E050E004C0220F331F441F551FB1
:1001D0006A95D2F721503040404050402E213F21B7
:1001E00040235123211531054105510521F021E01E
:1001F00030E040E050E079018A01E628F72808293C
:1002000019293CC0232BD1F1260E371E350146019A
:10021000062E04C096948794779467940A94D2F734
:1002200021E030E040E050E004C0220F331F441FC3
:10023000551F6A95D2F721503040404050402A2146
:100240003B214C215D21211531054105510521F04E
:1002500021E030E040E050E059016A01A628B728CB
:10026000C828D9280BC0821593052CF01C01AA249C
:10027000BB24650103C0EE24FF24870111969C91E5
:10028000D20111968C91981709F445C0992339F041
:10029000A80197012A193B094C095D0906C0A6016E
:1002A00095012E193F09400B510B57FD08C01182D3
:1002B0003382228224833583468357831DC081E0A5
:1002C00081833382228288279927DC01821B930B4A
:1002D000A40BB50B84839583A683B7830DC0220F2F
:1002E000331F441F551F24833583468357838281E0
:1002F000938101979383828324813581468157813D
:10030000DA01C9010197A109B1098F5F9F4FAF4F72
:10031000BF4328F30BC0918333822282EA0CFB1C7B
:100320000C1D1D1DE482F5820683178383E0808304
:10033000248135814681578157FF1AC0C901AA27F8
:1003400097FDA095BA2F81709070A070B0705695EF
:10035000479537952795822B932BA42BB52B848318
:100360009583A683B7838281938101969383828349
:10037000DF0101C0D201CD01CDB7DEB7E2E10C94BF
:10038000E119A0E2B0E0E7ECF1E00C94D119698347
:100390007A838B839C832D833E834F835887E9E048
:1003A000EE2EF12CEC0EFD1ECE010196B7010E943F
:1003B0007E058E010F5E1F4FCE010596B8010E948B
:1003C0007E058A8991E089278A8BC701B801AE0131
:1003D000475E5F4F0E9475000E94A904A096E6E068
:1003E0000C94ED19A0E2B0E0E8EFF1E00C94D11923
:1003F00069837A838B839C832D833E834F835887C5
:10040000F9E0EF2EF12CEC0EFD1ECE010196B701A6
:100410000E947E058E010F5E1F4FCE010596B8012A
:100420000E947E05C701B801AE01475E5F4F0E9482
:1004300075000E94A904A096E6E00C94ED19A0E2D4
:10044000B0E0E5E2F2E00C94C51969837A838B830E
:100450009C832D833E834F835887CE010196BE0136
:10046000675F7F4F0E947E05CE010596BE016F5EDD
:100470007F4F0E947E059985923088F0898982306D
:10048000C8F0943019F4823051F404C0843029F457
:10049000923081F480E690E0C6C0923049F420E0CA
:1004A0009A858A89981321E02A87CE010996BBC0D4
:1004B000823049F420E09A858A89981321E02A8BBA
:1004C000CE014196B0C02D843E844F8458886D88FB
:1004D0007E888F88988CEE24FF248701AA24BB2471
:1004E000650140E050E060E070E0E0E0F0E0C10174
:1004F00081709070892BE9F0E60CF71C081D191D1E
:100500009A01AB012A0D3B1D4C1D5D1D80E090E062
:10051000A0E0B0E0E614F7040805190520F481E036
:1005200090E0A0E0B0E0BA01A901480F591F6A1F8E
:100530007B1FAA0CBB1CCC1CDD1C97FE08C081E0F5
:1005400090E0A0E0B0E0A82AB92ACA2ADB2A3196B6
:10055000E032F10549F0660C771C881C991C569412
:10056000479437942794C3CFFA85EA892B893C892D
:100570008B859C85280F391F2E5F3F4F17C0CA01FE
:1005800081709070892B61F016950795F794E79428
:1005900080E090E0A0E0B0E8E82AF92A0A2B1B2BC3
:1005A00076956795579547952F5F3F4F77FDE7CF36
:1005B0000CC0440F551F661F771F17FD4160EE0CDE
:1005C000FF1C001F111F21503040403090E05907A0
:1005D00090E0690790E4790760F32B8F3C8FDB0193
:1005E000CA018F779070A070B07080349105A1051A
:1005F000B10561F447FD0AC0E114F10401051105DC
:1006000029F0405C5F4F6F4F7F4F40781A8EFE1786
:1006100011F081E08A8F4D8F5E8F6F8F78A383E01A
:10062000898FCE0149960E94A904A096E2E10C941C
:10063000E119A8E1B0E0EFE1F3E00C94CD19698392
:100640007A838B839C832D833E834F835887B9E0C5
:10065000EB2EF12CEC0EFD1ECE010196B7010E948F
:100660007E058E010F5E1F4FCE010596B8010E94D8
:100670007E052985223008F47EC03989323010F495
:10068000B8017CC08A859A8989278A87243011F02D
:10069000223031F4231709F06EC060E670E06EC0BE
:1006A000343039F41D861E861F86188A1C861B86E8
:1006B00004C0323021F484E08987B7015FC02B8504
:1006C0003C858B899C89281B390B3C872B87ED84C3
:1006D000FE840F851889AD88BE88CF88D88CEA142F
:1006E000FB040C051D0540F4EE0CFF1C001F111F40
:1006F000215030403C872B8720E030E040E050E044
:1007000080E090E0A0E0B0E460E070E0EA14FB0478
:100710000C051D0540F0282B392B4A2B5B2BEA18C2
:10072000FB080C091D09B695A79597958795EE0CC2
:10073000FF1C001F111F6F5F7F4F6F31710531F775
:10074000DA01C9018F779070A070B0708034910584
:10075000A105B10561F427FD0AC0E114F10401050A
:10076000110529F0205C3F4F4F4F5F4F20782D87B8
:100770003E874F87588BBE01675F7F4FCB010E943A
:10078000A9046896EAE00C94E919A8E1B0E0EBEC62
:10079000F3E00C94D11969837A838B839C832D8336
:1007A0003E834F83588789E0E82EF12CEC0EFD1E26
:1007B000CE010196B7010E947E058E010F5E1F4F8C
:1007C000CE010596B8010E947E058985823040F0F1
:1007D0008989823028F0C701B8010E94F60501C05E
:1007E0008FEF6896E6E00C94ED19A8E1B0E0EBEF2E
:1007F000F3E00C94D11969837A838B839C832D83D6
:100800003E834F83588789E0E82EF12CEC0EFD1EC5
:10081000CE010196B7010E947E058E010F5E1F4F2B
:10082000CE010596B8010E947E058985823040F090
:100830008989823028F0C701B8010E94F60501C0FD
:100840008FEF6896E6E00C94ED19A8E1B0E0EBE2DA
:10085000F4E00C94D11969837A838B839C832D8374
:100860003E834F83588789E0E82EF12CEC0EFD1E65
:10087000CE010196B7010E947E058E010F5E1F4FCB
:10088000CE010596B8010E947E058985823040F030
:100890008989823028F0C701B8010E94F60501C09D
:1008A00081E06896E6E00C94ED19ACE0B0E0EBE591
:1008B000F4E00C94D51969837A838B839C83CE01F1
:1008C0000196BE016B5F7F4F0E947E058D81823055
:1008D00061F1823050F1843021F48E81882351F10E
:1008E0002EC02F81388537FD20C06E812F31310514
:1008F0001CF06623F9F023C08EE190E0821B930B7D
:1009000029853A854B855C8504C056954795379572
:1009100027958A95D2F76623B1F05095409530958A
:1009200021953F4F4F4F5F4F0EC020E030E040E039
:1009300050E009C02FEF3FEF4FEF5FE704C020E02A
:1009400030E040E050E8B901CA012C96E2E00C9496
:10095000F119DF92EF92FF920F931F93FC01E48055
:10096000F58006811781D1808081823048F480E053
:1009700090E0A0E1B0E0E82AF92A0A2B1B2BA5C0E1
:10098000843009F49FC0823021F4EE24FF248701D3
:1009900005C0E114F1040105110519F4E0E0F0E0EF
:1009A00096C0628173819FEF623879070CF05BC05B
:1009B00022E83FEF261B370B2A3131052CF020E0CF
:1009C00030E040E050E02AC0B801A701022E04C088
:1009D00076956795579547950A94D2F781E090E010
:1009E000A0E0B0E004C0880F991FAA1FBB1F2A9582
:1009F000D2F70197A109B1098E219F21A023B1232C
:100A00000097A105B10521F081E090E0A0E0B0E001
:100A10009A01AB01282B392B4A2B5B2BDA01C90138
:100A20008F779070A070B07080349105A105B105EA
:100A300039F427FF09C0205C3F4F4F4F5F4F04C080
:100A4000215C3F4F4F4F5F4FE0E0F0E02030A0E0EF
:100A50003A07A0E04A07A0E45A0710F0E1E0F0E00E
:100A600079018A0127C06038710564F5FB01E158FE
:100A7000FF4FD801C7018F779070A070B07080349D
:100A80009105A105B10539F4E7FE0DC080E490E0C1
:100A9000A0E0B0E004C08FE390E0A0E0B0E0E80E9A
:100AA000F91E0A1F1B1F17FF05C016950795F7941F
:100AB000E794319687E016950795F794E7948A9521
:100AC000D1F705C0EE24FF248701EFEFF0E06E2F91
:100AD000679566276795902F9F77D794DD24D794E5
:100AE0008E2F8695492F462B582F5D29B701CA01B5
:100AF0001F910F91FF90EF90DF900895FC01DB01B3
:100B0000408151812281622F6F7770E0221F22275E
:100B1000221F9381892F880F822B282F30E0991F65
:100B20009927991F11969C93119721153105A9F5C5
:100B3000411551056105710511F482E037C082E865
:100B40009FEF13969C938E9312979A01AB0167E0E7
:100B5000220F331F441F551F6A95D1F783E08C93F2
:100B60000DC0220F331F441F551F12968D919C916B
:100B70001397019713969C938E931297203080E0E1
:100B8000380780E0480780E4580758F314962D93FF
:100B90003D934D935C93179708952F3F310579F45A
:100BA000411551056105710519F484E08C93089590
:100BB00064FF03C081E08C9312C01C9210C02F57B9
:100BC000304013963C932E93129783E08C9387E0EA
:100BD000440F551F661F771F8A95D1F770641496CE
:100BE0004D935D936D937C93179708951F93DC014C
:100BF000FB019C91923008F447C08081823008F458
:100C000043C0943051F411961C91843099F5818140
:100C1000682F70E0611B71093FC0843021F0923071
:100C200031F48230B9F18181882389F12DC0119688
:100C30001C9111978230F1F081811817D9F4129626
:100C40002D913C911397828193818217930794F0A1
:100C500028173907BCF014968D919D910D90BC9189
:100C6000A02D2481358146815781281739074A07ED
:100C70005B0718F4112341F00AC082179307A407F9
:100C8000B50740F4112319F061E070E005C06FEF83
:100C90007FEF02C060E070E0CB011F910895DF9309
:100CA000CF93CDB7DEB727970FB6F894DEBF0FBE50
:100CB000CDBF8A837C836B834D833F832E831982D0
:100CC0008A81282F30E0C901880F991F880F991F4A
:100CD000880F991F821B930BFC01E657FF4F808101
:100CE0009181009719F083E089835AC08A81282F67
:100CF00030E0C901880F991F880F991F880F991F2D
:100D0000821B930BFC01E357FF4F8B819C819183E6
:100D100080838A81282F30E0C901880F991F880FAE
:100D2000991F880F991F821B930BFC01E657FF4FF9
:100D30008E819F81918380838A81282F30E0C90131
:100D4000880F991F880F991F880F991F821B930B7B
:100D5000FC01E457FF4F8A8180838A81282F30E08D
:100D6000C901880F991F880F991F880F991F821B2F
:100D7000930BFC01E057FF4F8D8180838A81282FE0
:100D800030E0C901880F991F880F991F880F991F9C
:100D9000821B930BFC01E157FF4F108281E0898396
:100DA000898127960FB6F894DEBF0FBECDBFCF91D5
:100DB000DF910895DF93CF93CDB7DEB78EE397E051
:100DC0000E943708AFE5B0E0EFE5F0E08081806891
:100DD0008C930E94DF07CF91DF910895DF93CF932B
:100DE0000F92CDB7DEB789838981282F30E0C90102
:100DF000880F991F880F991F880F991F821B930BCB
:100E0000FC01E157FF4F81E080830F90CF91DF918C
:100E10000895DF93CF930F92CDB7DEB78983898191
:100E2000282F30E0C901880F991F880F991F880F5C
:100E3000991F821B930BFC01E157FF4F10820F900B
:100E4000CF91DF910895DF93CF930F92CDB7DEB7A7
:100E500089838981282F30E0C901880F991F880F65
:100E6000991F880F991F821B930BFC01E657FF4FB8
:100E7000118210820F90CF91DF910895DF93CF936D
:100E80000F92CDB7DEB71982198291C08981282FC0
:100E900030E0C901880F991F880F991F880F991F8B
:100EA000821B930BFC01E157FF4F8081882309F0DF
:100EB0007BC08981282F30E0C901880F991F880FD6
:100EC000991F880F991F821B930BFC01E657FF4F58
:100ED00080819181009709F467C08981282F30E0D3
:100EE000C901880F991F880F991F880F991F821BAE
:100EF000930BFC01E057FF4F80818823B1F5898176
:100F0000282F30E0C901880F991F880F991F880F7B
:100F1000991F821B930BFC01E657FF4F0190F08154
:100F2000E02D09958981482F50E08981282F30E0F4
:100F3000C901880F991F880F991F880F991F821B5D
:100F4000930BFC01E357FF4F80819181282FCA0149
:100F5000880F991F880F991F880F991F841B950B65
:100F6000FC01E057FF4F20831FC08981282F30E00C
:100F7000C901880F991F880F991F880F991F821B1D
:100F8000930BFC01E057FF4F8081482F4150C9016E
:100F9000880F991F880F991F880F991F821B930B29
:100FA000FC01E057FF4F408389818F5F89838981EE
:100FB000853008F46BCF0F90CF91DF910895DF93C8
:100FC000CF93CDB7DEB7A3E5B0E0E3E5F0E08081F5
:100FD00088608C93A3E5B0E0E3E5F0E080818F7B4F
:100FE0008C93A9E5B0E0E9E5F0E0808182608C9324
:100FF000ECE5F0E01082A3E5B0E0E3E5F0E080810D
:10100000887F83608C93AFE5B0E0EFE5F0E080810E
:1010100080688C93CF91DF910895DF93CF93CDB704
:10102000DEB7A3E5B0E0E3E5F0E08081887F8C9354
:10103000CF91DF910895DF93CF930F92CDB7DEB7B5
:101040008983E2E5F0E0898180830F90CF91DF9181
:101050000895DF93CF930F92CDB7DEB78983ECE588
:10106000F0E0898180830F90CF91DF910895DF9325
:10107000CF9300D0CDB7DEB79A83898389819A81D7
:101080009093AE008093AD000F900F90CF91DF91C1
:1010900008951F920F920FB60F9211242F933F9332
:1010A0004F935F936F937F938F939F93AF93BF9370
:1010B000EF93FF93DF93CF93CDB7DEB7E091AD0011
:1010C000F091AE000995CF91DF91FF91EF91BF9123
:1010D000AF919F918F917F916F915F914F913F91D0
:1010E0002F910F900FBE0F901F901895DF93CF9305
:1010F00000D0CDB7DEB79A8389830E941709ADE28D
:10110000B0E0EDE2F0E080818F7E8C93ADE2B0E064
:10111000EDE2F0E0808180628C93ADE2B0E0EDE240
:10112000F0E08081877F8C93ADE2B0E0EDE2F0E00B
:1011300080818B7F8C9389819A81009731F089819E
:101140009A819093B0008093AF00AFE5B0E0EFE5F7
:10115000F0E0808180688C93ADE2B0E0EDE2F0E0F9
:10116000808180688C93ADE2B0E0EDE2F0E08081B8
:1011700080648C930F900F90CF91DF910895DF934F
:10118000CF930F92CDB7DEB78983EFE2F0E089818C
:101190008083EEE2F0E080818823DCF7EFE2F0E08C
:1011A00080810F90CF91DF910895DF93CF9300D08E
:1011B000CDB7DEB78A831982EFE2F0E080818983C0
:1011C000EFE2F0E08A81808389810F900F90CF91C8
:1011D000DF910895DF93CF93CDB7DEB7E7E3F0E07B
:1011E00080EA8083EDE2F0E081E58083CF91DF91BA
:1011F0000895DF93CF93CDB7DEB7E7E3F0E080E467
:101200008083EDE2F0E080E48083CF91DF91089568
:10121000DF93CF93CDB7DEB7EEE2F0E08081882395
:10122000DCF7EFE2F0E08081CF91DF910895DF936A
:10123000CF93CDB7DEB781E067E040E00E945F0A60
:1012400081E065E040E00E945F0A81E064E040E008
:101250000E945F0A81E066E041E00E945F0ACF9150
:10126000DF9108951F920F920FB60F9211242F93C2
:101270003F934F935F936F937F938F939F93AF931E
:10128000BF93EF93FF93DF93CF93CDB7DEB7E0919A
:10129000AF00F091B0000995CF91DF91FF91EF91F0
:1012A000BF91AF919F918F917F916F915F914F917E
:1012B0003F912F910F900FBE0F901F901895DF93C5
:1012C000CF93CDB7DEB727970FB6F894DEBF0FBE2A
:1012D000CDBF89836A834B838B81813009F06FC0D6
:1012E0008981282F30E03F832E838E819F8181303A
:1012F000910549F12E813F81223031052CF48E81F8
:101300009F81009761F0D2C02E813F81223031054C
:1013100071F18E819F8183309105E9F1C7C0ABE304
:10132000B0E0EBE3F0E08081482F8A81282F30E0A5
:1013300081E090E0022E02C0880F991F0A94E2F724
:10134000842B8C93B3C0A8E3B0E0E8E3F0E08081A5
:10135000482F8A81282F30E081E090E0022E02C0E1
:10136000880F991F0A94E2F7842B8C939FC0A5E302
:10137000B0E0E5E3F0E08081482F8A81282F30E05B
:1013800081E090E0022E02C0880F991F0A94E2F7D4
:10139000842B8C938BC0A2E3B0E0E2E3F0E0808189
:1013A000482F8A81282F30E081E090E0022E02C091
:1013B000880F991F0A94E2F7842B8C9377C08B8156
:1013C000882309F073C08981282F30E03D832C8366
:1013D0008C819D818130910559F12C813D81223094
:1013E00031052CF48C819D81009769F05FC02C81C0
:1013F0003D812230310589F18C819D8183309105B9
:1014000009F440C053C0ABE3B0E0EBE3F0E080810F
:10141000482F8A81282F30E081E090E0022E02C020
:10142000880F991F0A94E2F7809584238C933EC01D
:10143000A8E3B0E0E8E3F0E08081482F8A81282F1C
:1014400030E081E090E0022E02C0880F991F0A94DC
:10145000E2F7809584238C9329C0A5E3B0E0E5E30F
:10146000F0E08081482F8A81282F30E081E090E0F1
:10147000022E02C0880F991F0A94E2F780958423F8
:101480008C9314C0A2E3B0E0E2E3F0E08081482F47
:101490008A81282F30E081E090E0022E02C0880F80
:1014A000991F0A94E2F7809584238C9327960FB6B0
:1014B000F894DEBF0FBECDBFCF91DF910895DF93CB
:1014C000CF93CDB7DEB727970FB6F894DEBF0FBE28
:1014D000CDBF89836A834B838B81813009F06FC0D4
:1014E0008981282F30E03F832E838E819F81813038
:1014F000910549F12E813F81223031052CF48E81F6
:101500009F81009761F0CEC02E813F81223031054E
:1015100071F18E819F8183309105E9F1C3C0AAE307
:10152000B0E0EAE3F0E08081482F8A81282F30E0A4
:1015300081E090E0022E02C0880F991F0A94E2F722
:10154000842B8C93AFC0A7E3B0E0E7E3F0E08081A9
:10155000482F8A81282F30E081E090E0022E02C0DF
:10156000880F991F0A94E2F7842B8C939BC0A4E305
:10157000B0E0E4E3F0E08081482F8A81282F30E05A
:1015800081E090E0022E02C0880F991F0A94E2F7D2
:10159000842B8C9387C0A1E3B0E0E1E3F0E080818D
:1015A000482F8A81282F30E081E090E0022E02C08F
:1015B000880F991F0A94E2F7842B8C9373C089815A
:1015C000282F30E03D832C838C819D8181309105D3
:1015D00059F12C813D81223031052CF48C819D8183
:1015E000009769F05FC02C813D812230310589F17F
:1015F0008C819D818330910509F440C053C0AAE3DA
:10160000B0E0EAE3F0E08081482F8A81282F30E0C3
:1016100081E090E0022E02C0880F991F0A94E2F741
:10162000809584238C933EC0A7E3B0E0E7E3F0E02D
:101630008081482F8A81282F30E081E090E0022EBF
:1016400002C0880F991F0A94E2F7809584238C9337
:1016500029C0A4E3B0E0E4E3F0E08081482F8A8170
:10166000282F30E081E090E0022E02C0880F991F01
:101670000A94E2F7809584238C9314C0A1E3B0E030
:10168000E1E3F0E08081482F8A81282F30E081E07B
:1016900090E0022E02C0880F991F0A94E2F780950D
:1016A00084238C9327960FB6F894DEBF0FBECDBF70
:1016B000CF91DF910895DF93CF9300D000D0CDB7C5
:1016C000DEB789836A838981282F30E03C832B83AE
:1016D0008B819C818130910549F12B813C812230A5
:1016E00031052CF48B819C81009761F05AC02B81CD
:1016F0003C812230310571F18B819C8183309105D1
:10170000E9F14FC0ABE3B0E0EBE3F0E08081482FBC
:101710008A81282F30E081E090E0022E02C0880FFD
:10172000991F0A94E2F784278C933BC0A8E3B0E0AA
:10173000E8E3F0E08081482F8A81282F30E081E0C3
:1017400090E0022E02C0880F991F0A94E2F78427C6
:101750008C9327C0A5E3B0E0E5E3F0E08081482F5B
:101760008A81282F30E081E090E0022E02C0880FAD
:10177000991F0A94E2F784278C9313C0A2E3B0E088
:10178000E2E3F0E08081482F8A81282F30E081E079
:1017900090E0022E02C0880F991F0A94E2F7842776
:1017A0008C930F900F900F900F90CF91DF91089531
:1017B000DF93CF9300D000D00F92CDB7DEB78A83EE
:1017C0006B838A81282F30E03D832C834C815D819F
:1017D0004130510541F18C819D818230910534F475
:1017E0002C813D812115310561F052C04C815D8114
:1017F0004230510551F18C819D8183309105B9F1C1
:1018000047C0E9E3F0E08081282F30E08B81882F0A
:1018100090E0A90102C0559547958A95E2F7CA0163
:101820008170898335C0E6E3F0E08081282F30E0C5
:101830008B81882F90E0A90102C0559547958A9524
:10184000E2F7CA018170898323C0E3E3F0E080817D
:10185000282F30E08B81882F90E0A90102C0559598
:1018600047958A95E2F7CA018170898311C0E0E348
:10187000F0E08081282F30E08B81882F90E0A90153
:1018800002C0559547958A95E2F7CA018170898310
:1018900089810F900F900F900F900F90CF91DF9153
:1018A0000895DF93CF9300D000D0CDB7DEB7898302
:1018B0006A838981282F30E03C832B838B819C8134
:1018C00081309105D1F02B813C81223031052CF4FF
:1018D0008B819C81009761F01EC02B813C8122305E
:1018E000310581F08B819C818330910581F013C09B
:1018F000EBE3F0E08A8180830EC0E8E3F0E08A81C8
:10190000808309C0E5E3F0E08A81808304C0E2E3DC
:10191000F0E08A8180830F900F900F900F90CF910D
:10192000DF910895DF93CF9300D000D0CDB7DEB71D
:1019300089836A838981282F30E03C832B838B81C4
:101940009C8181309105D1F02B813C812230310581
:101950002CF48B819C81009761F01EC02B813C810F
:101960002230310581F08B819C818330910581F09B
:1019700013C0EAE3F0E08A8180830EC0E7E3F0E081
:101980008A81808309C0E4E3F0E08A81808304C017
:10199000E1E3F0E08A8180830F900F900F900F9029
:1019A000CF91DF910895DF93CF93CDB7DEB7EAE310
:1019B000F0E08FEF8083E7E3F0E08FE48083E4E3FF
:1019C000F0E08FEF8083E1E3F0E08FEF8083CF9151
:1019D000DF910895DF93CF93CDB7DEB7EBE3F0E06F
:1019E0001082E8E3F0E01082E5E3F0E01082E2E349
:1019F000F0E01082CF91DF910895DF93CF9300D074
:101A0000CDB7DEB789836A8389816A8141E00E940C
:101A10005F090F900F90CF91DF910895DF93CF93DF
:101A200000D0CDB7DEB789836A8389816A8140E0BF
:101A30000E945F090F900F90CF91DF910895DF937F
:101A4000CF9300D0CDB7DEB789836A8389816A815D
:101A50000E945B0B0F900F90CF91DF910895DF9361
:101A6000CF93CDB7DEB7AC970FB6F894DEBF0FBEFD
:101A7000CDBF9CA78BA71AA619A618A61FA2EBA5D7
:101A8000FCA510821AA679C18AA5882F90E0FC01D6
:101A9000E459FF4F908183E0692F41E00E945F0984
:101AA00080E090E0A8E4B2E48BA39CA3ADA3BEA326
:101AB0006BA17CA18DA19EA12BEA3AEA4AE250E4F7
:101AC0000E941F02DC01CB018F8F98A3A9A3BAA3A8
:101AD0006F8D78A189A19AA120E030E040E85FE312
:101AE0000E94250488231CF481E08E8F91C06F8DA5
:101AF00078A189A19AA120E030E04FE753E40E9449
:101B0000C50318160CF07BC06BA17CA18DA19EA112
:101B100020E030E04AE754E40E941903DC01CB01E5
:101B20008A8F9B8FAC8FBD8F6A8D7B8D8C8D9D8DA9
:101B300020E030E04AEF54E40E941F02DC01CB01B8
:101B40008E8B9F8BA88FB98F6E897F89888D998D99
:101B500020E030E040E85FE30E94250488232CF475
:101B600081E090E09D8B8C8B3FC06E897F89888D52
:101B7000998D20E03FEF4FE757E40E94C503181608
:101B80004CF56A8D7B8D8C8D9D8D20E030E040E2A0
:101B900051E40E941F02DC01CB01BC01CD010E9477
:101BA0004900DC01CB019D8B8C8B0FC088EC90E051
:101BB0009B8B8A8B8A899B890197F1F79B8B8A8BF8
:101BC0008C899D8901979D8B8C8B8C899D89009731
:101BD00069F724C06E897F89888D998D0E9449009C
:101BE000DC01CB019D8B8C8B8C899D89998B888B9B
:101BF000888999890197F1F7998B888B0FC06F8D30
:101C000078A189A19AA10E944900DC01CB018E8FA5
:101C10008E8D8F878F858A95F1F78F8719A6A6C03D
:101C200089A5882F90E0FC01E859FF4F908180E062
:101C3000692F0E94D80B8FA38FA1813009F093C028
:101C400080E090E0A8E4B2E48B879C87AD87BE87F4
:101C50006B857C858D859E8520E030E04AEF54E4DD
:101C60000E941F02DC01CB018F839887A987BA8766
:101C70006F81788589859A8520E030E040E85FE3D0
:101C80000E94250488232CF481E090E09E838D83BC
:101C90003FC06F81788589859A8520E03FEF4FE7C7
:101CA00057E40E94C50318164CF56B857C858D851D
:101CB0009E8520E030E040E251E40E941F02DC01FA
:101CC000CB01BC01CD010E944900DC01CB019E8308
:101CD0008D830FC088EC90E09C838B838B819C81EB
:101CE0000197F1F79C838B838D819E8101979E8361
:101CF0008D838D819E81009769F714C06F817885EF
:101D000089859A850E944900DC01CB019E838D83E1
:101D10008D819E819A83898389819A810197F1F7C8
:101D20009A8389838AA5482F50E08AA5282F30E01E
:101D3000CA01880F991F880F991F820F931FFC01FA
:101D4000E059FF4F8081EBA5FCA5808388A5882FF3
:101D500090E0FC01E459FF4F908183E0692F40E05F
:101D60000E945F0907C089A58F5F89A789A5843074
:101D700008F456CF8AA58F5F8AA78AA5843008F415
:101D800083CEAC960FB6F894DEBF0FBECDBFCF9119
:101D9000DF910895DF93CF93CDB7DEB763970FB68A
:101DA000F894DEBF0FBECDBF9B8B8A8B198A188A31
:101DB0001F86EA89FB891082188ABBC08889882F10
:101DC00090E0FC01E859FF4F908180E0692F40E0EE
:101DD0000E945F09198AA6C08989882F90E0FC01BA
:101DE000E459FF4F908183E0692F0E94D80B8F87C1
:101DF0008F85882309F093C080E090E0A8E4B2E4E6
:101E00008B879C87AD87BE876B857C858D859E85FE
:101E100020E030E04AEF54E40E941F02DC01CB01D5
:101E20008F839887A987BA876F81788589859A85F6
:101E300020E030E040E85FE30E94250488232CF492
:101E400081E090E09E838D833FC06F817885898596
:101E50009A8520E03FEF4FE757E40E94C50318162C
:101E60004CF56B857C858D859E8520E030E040E2D9
:101E700051E40E941F02DC01CB01BC01CD010E9494
:101E80004900DC01CB019E838D830FC088EC90E07C
:101E90009C838B838B819C810197F1F79C838B833F
:101EA0008D819E8101979E838D838D819E81009778
:101EB00069F714C06F81788589859A850E944900E9
:101EC000DC01CB019E838D838D819E819A838983E2
:101ED00089819A810197F1F79A8389838989482FAB
:101EE00050E08889282F30E0CA01880F991F880F99
:101EF000991F820F931FFC01E059FF4F8081EA89EF
:101F0000FB8980838889882F90E0FC01E859FF4F86
:101F1000908180E0692F41E00E945F0907C08989B4
:101F20008F5F898B8989843008F456CF88898F5FC9
:101F3000888B8889843008F441CF63960FB6F89473
:101F4000DEBF0FBECDBFCF91DF910895DF93CF935A
:101F500000D000D000D0CDB7DEB79E838D831C8229
:101F60001B821A82ED81FE81108219821B824CC075
:101F70008B81882F90E0FC01E859FF4F908180E031
:101F8000692F40E00E945F091C8229C08C81882F44
:101F900090E0FC01E459FF4F908183E0692F0E949B
:101FA000D80B8A838A818823B9F481E089838C8164
:101FB000482F50E08B81282F30E0CA01880F991FED
:101FC000880F991F820F931FFC01E059FF4F8081FA
:101FD000ED81FE81808306C08C818F5F8C838C8134
:101FE0008430A0F28B81882F90E0FC01E859FF4FEC
:101FF000908180E0692F41E00E945F0989818130F2
:1020000039F08B818F5F8B838B81843008F4B0CF64
:1020100026960FB6F894DEBF0FBECDBFCF91DF91ED
:102020000895DF93CF9300D000D00F92CDB7DEB7E5
:102030009D838C831B821A821982EC81FD81108220
:102040001A8257C08A81882F90E0FC01E859FF4F1F
:10205000908180E0692F40E00E945F091B8237C0B9
:102060008B81882F90E0FC01E459FF4F908183E041
:10207000692F0E94D80B89838981882329F50CC098
:102080008B81882F90E0FC01E459FF4F908183E021
:10209000692F0E94D80B89838981882389F78B81D6
:1020A000482F50E08A81282F30E0CA01880F991FFD
:1020B000880F991F820F931FFC01E059FF4F808109
:1020C000EC81FD81808306C08B818F5F8B838B8148
:1020D000843030F28A81882F90E0FC01E859FF4F6C
:1020E000908180E0692F41E00E945F098A818F5FC3
:1020F0008A838A81843008F4A5CF0F900F900F90C7
:102100000F900F90CF91DF910895DF93CF93CDB7CC
:10211000DEB727970FB6F894DEBF0FBECDBF9F8303
:102120008E831D821C821B821A82EE81FF811082A7
:1021300019821B825FC08B81882F90E0FC01E859D7
:10214000FF4F908180E0692F40E00E945F091C8270
:102150003CC08C81882F90E0FC01E459FF4F9081B6
:1021600083E0692F0E94D80B8A838A81882349F5EE
:1021700081E08D8381E089830CC08C81882F90E081
:10218000FC01E459FF4F908183E0692F0E94D80B36
:102190008A838A81882389F38C81482F50E08B8140
:1021A000282F30E0CA01880F991F880F991F820FCE
:1021B000931FFC01E059FF4F8081EE81FF818083F6
:1021C00007C01D828C818F5F8C838C81843008F2E4
:1021D0008B81882F90E0FC01E859FF4F908180E0CF
:1021E000692F41E00E945F098981813039F08B813C
:1021F0008F5F8B838B81843008F49DCF8D812796F0
:102200000FB6F894DEBF0FBECDBFCF91DF9108951A
:10221000DF93CF93CDB7DEB70E94D30C0E94EA0CB8
:1022200082E291E10E94760885E192E10E943708FE
:102230000E94DF078091B4009091B300692F0E9443
:10224000B911F8CFDF93CF93CDB7DEB7EFE2F0E06F
:1022500080818093B1008091B200813069F4EFE217
:10226000F0E080818093B100E2E3F0E08091B10082
:1022700080831092B2007AC08091B200823011F552
:10228000EFE2F0E080818093B1008091B1009AE0AC
:10229000692F0E94B9198093B3008091B1009AE030
:1022A000692F0E94B919892F8093B4008091B100E1
:1022B000893218F00E94F31102C00E940412109299
:1022C000B20054C08091B200882309F04FC08091C1
:1022D000B100893321F481E08093B20047C080913E
:1022E000B100813421F482E08093B2003FC080913C
:1022F000B100813329F4ECE5F0E08EEF808336C045
:102300008091B100823321F4ECE5F0E010822EC020
:102310008091B100833319F40E94F31127C080919A
:10232000B100843319F40E94041220C08091B100DE
:10233000853321F481E00E94201218C08091B10001
:10234000863321F480E00E94201210C08091B100F9
:10235000873321F4E2E3F0E0108208C08091B100FD
:10236000883321F4E2E3F0E08FEF8083CF91DF91B7
:102370000895DF93CF9300D0CDB7DEB789836A830A
:1023800080E060E041E00E945F0980E061E040E0C1
:102390000E945F09E5E3F0E01082A5E3B0E08981E7
:1023A000882F90E0FC01E058FF4F80818C9380E003
:1023B00060E040E00E945F0980E061E041E00E944F
:1023C0005F09E5E3F0E01082A5E3B0E08A81882FA1
:1023D00090E0FC01E058FF4F80818C930F900F90AC
:1023E000CF91DF910895DF93CF93CDB7DEB780E033
:1023F00062E041E00E945F0980E063E040E00E940B
:102400005F09CF91DF910895DF93CF93CDB7DEB70A
:1024100080E062E040E00E945F0980E063E040E02D
:102420000E945F09CF91DF910895DF93CF93CDB7DD
:10243000DEB780E064E00E945B0BCF91DF910895EE
:102440000F931F93DF93CF93CDB7DEB7CD59D04015
:102450000FB6F894DEBF0FBECDBFFE01E556FF4FAD
:102460008083FE01E556FF4F8081282F30E0C4565F
:10247000DF4F39832883CC59D040C456DF4F888141
:102480009981CC59D040009709F4EFC3C456DF4F6F
:10249000E881F981CC59D040E130F10509F05DC700
:1024A00081E060E041E00E945F0981E061E040E09E
:1024B0000E945F0981E062E040E00E945F0981E0E4
:1024C00063E040E00E945F09FE01E956FF4F80E0B3
:1024D00090E0A0EAB0E480839183A283B3838E016D
:1024E0000D561F4FFE01E956FF4F608171818281B9
:1024F000938120E030E04AEF54E40E941F02DC01A7
:10250000CB01F80180839183A283B383FE01ED5652
:10251000FF4F608171818281938120E030E040E84B
:102520005FE30E942504882344F4FE01EF56FF4F29
:1025300081E090E09183808364C0FE01ED56FF4FFF
:10254000608171818281938120E03FEF4FE757E402
:102550000E94C50318160CF043C0FE01E956FF4F58
:10256000608171818281938120E030E040E251E41A
:102570000E941F02DC01CB018E010F561F4FBC01D0
:10258000CD010E944900DC01CB01F80191838083D9
:102590001FC0FE01E157FF4F88EC90E091838083DC
:1025A000FE01E157FF4F808191810197F1F7FE0114
:1025B000E157FF4F91838083DE01AF56BF4FFE018D
:1025C000EF56FF4F80819181019711969C938E93D6
:1025D000FE01EF56FF4F808191810097D1F627C011
:1025E0008E010F561F4FFE01ED56FF4F6081718126
:1025F000828193810E944900DC01CB01F801918323
:102600008083DE01A357BF4FFE01EF56FF4F80814D
:1026100091818D939C93FE01E357FF4F80819181BF
:102620000197F1F7FE01E357FF4F9183808381E02B
:1026300060E040E00E945F0981E061E041E00E94CB
:102640005F0981E063E040E00E945F0981E062E0B1
:1026500040E00E945F09FE01E757FF4F80E090E0F5
:10266000A0EAB0E480839183A283B3838E010B57E9
:102670001F4FFE01E757FF4F608171818281938177
:1026800020E030E04AEF54E40E941F02DC01CB015D
:10269000F80180839183A283B383FE01EB57FF4F40
:1026A000608171818281938120E030E040E85FE3C6
:1026B0000E942504882344F4FE01ED57FF4F81E07A
:1026C00090E09183808364C0FE01EB57FF4F6081EF
:1026D00071818281938120E03FEF4FE757E40E94B0
:1026E000C50318160CF043C0FE01E757FF4F608189
:1026F00071818281938120E030E040E251E40E94C8
:102700001F02DC01CB018E010D571F4FBC01CD0113
:102710000E944900DC01CB01F801918380831FC036
:10272000FE01EF57FF4F88EC90E091838083FE011C
:10273000EF57FF4F808191810197F1F7FE01EF572D
:10274000FF4F91838083DE01AD57BF4FFE01ED57F0
:10275000FF4F80819181019711969C938E93FE018A
:10276000ED57FF4F808191810097D1F627C08E01F0
:102770000D571F4FFE01EB57FF4F60817181828122
:1027800093810E944900DC01CB01F8019183808391
:10279000DE01A158BF4FFE01ED57FF4F80819181AF
:1027A0008D939C93FE01E158FF4F808191810197A9
:1027B000F1F7FE01E158FF4F9183808381E060E0F3
:1027C00040E00E945F0981E061E040E00E945F0913
:1027D00081E063E040E00E945F0981E062E041E067
:1027E0000E945F09FE01E558FF4F80E090E0A0EAFB
:1027F000B0E480839183A283B3838E0109581F4F75
:10280000FE01E558FF4F608171818281938120E054
:1028100030E04AEF54E40E941F02DC01CB01F801D2
:1028200080839183A283B383FE01E958FF4F6081C7
:1028300071818281938120E030E040E85FE30E9473
:102840002504882344F4FE01EB58FF4F81E090E01B
:102850009183808364C0FE01E958FF4F60817181DC
:102860008281938120E03FEF4FE757E40E94C50348
:1028700018160CF043C0FE01E558FF4F60817181CE
:102880008281938120E030E040E251E40E941F0207
:10289000DC01CB018E010B581F4FBC01CD010E9402
:1028A0004900DC01CB01F801918380831FC0FE0148
:1028B000ED58FF4F88EC90E091838083FE01ED5846
:1028C000FF4F808191810197F1F7FE01ED58FF4F95
:1028D00091838083DE01AB58BF4FFE01EB58FF4F61
:1028E00080819181019711969C938E93FE01EB5804
:1028F000FF4F808191810097D1F627C08E010B5840
:102900001F4FFE01E958FF4F6081718182819381E1
:102910000E944900DC01CB01F80191838083DE0134
:10292000AF58BF4FFE01EB58FF4F808191818D93CF
:102930009C93FE01EF58FF4F808191810197F1F741
:10294000FE01EF58FF4F9183808381E060E040E01B
:102950000E945F0981E061E040E00E945F0981E040
:1029600063E041E00E945F0981E062E040E00E9494
:102970005F09FE01E359FF4F80E090E0A0EAB0E478
:1029800080839183A283B3838E0107591F4FFE0179
:10299000E359FF4F608171818281938120E030E0B3
:1029A0004AEF54E40E941F02DC01CB01F80180834E
:1029B0009183A283B383FE01E759FF4F6081718148
:1029C0008281938120E030E040E85FE30E942504AB
:1029D000882344F4FE01E959FF4F81E090E09183A0
:1029E000808364C0FE01E759FF4F6081718182815D
:1029F000938120E03FEF4FE757E40E94C50318168C
:102A00000CF043C0FE01E359FF4F60817181828168
:102A1000938120E030E040E251E40E941F02DC019B
:102A2000CB018E0109591F4FBC01CD010E94490005
:102A3000DC01CB01F801918380831FC0FE01EB59BB
:102A4000FF4F88EC90E091838083FE01EB59FF4FAC
:102A5000808191810197F1F7FE01EB59FF4F91833E
:102A60008083DE01A959BF4FFE01E959FF4F8081E4
:102A70009181019711969C938E93FE01E959FF4F26
:102A8000808191810097D1F627C08E0109591F4F8F
:102A9000FE01E759FF4F60817181828193810E941D
:102AA0004900DC01CB01F80191838083DE01AD593F
:102AB000BF4FFE01E959FF4F808191818D939C9317
:102AC000FE01ED59FF4F808191810197F1F7FE01E1
:102AD000ED59FF4F9183808381E060E041E00E94E7
:102AE0005F0981E061E040E00E945F0981E062E00F
:102AF00040E00E945F0981E063E040E00E945F09DE
:102B0000FE01E15AFF4F80E090E0A0EAB0E480834C
:102B10009183A283B3838E01055A1F4FFE01E15AB0
:102B2000FF4F608171818281938120E030E04AEF24
:102B300054E40E941F02DC01CB01F80180839183E1
:102B4000A283B383FE01E55AFF4F608171818281C8
:102B5000938120E030E040E85FE30E942504882371
:102B600044F4FE01E75AFF4F81E090E091838083B7
:102B700064C0FE01E55AFF4F6081718182819381BB
:102B800020E03FEF4FE757E40E94C50318160CF012
:102B900043C0FE01E15AFF4F6081718182819381C0
:102BA00020E030E040E251E40E941F02DC01CB0152
:102BB0008E01075A1F4FBC01CD010E944900DC0164
:102BC000CB01F801918380831FC0FE01E95AFF4FBA
:102BD00088EC90E091838083FE01E95AFF4F808169
:102BE00091810197F1F7FE01E95AFF4F91838083AC
:102BF000DE01A75ABF4FFE01E75AFF4F8081918146
:102C0000019711969C938E93FE01E75AFF4F8081A6
:102C100091810097D1F6A1C38E01075A1F4FFE0183
:102C2000E55AFF4F60817181828193810E94490042
:102C3000DC01CB01F80191838083DE01AB5ABF4FE9
:102C4000FE01E75AFF4F8081918111969C938E93EC
:102C5000FE01EB5AFF4F808191810197F1F7FE0150
:102C6000EB5AFF4F9183808378C381E060E041E0BD
:102C70000E945F0981E061E040E00E945F0981E01D
:102C800062E040E00E945F0981E063E040E00E9472
:102C90005F09FE01EF5AFF4F80E090E0A0EAB0E448
:102CA00080839183A283B3838E01035B1F4FFE0158
:102CB000EF5AFF4F608171818281938120E030E083
:102CC0004AEF54E40E941F02DC01CB01F80180832B
:102CD0009183A283B383FE01E35BFF4F6081718127
:102CE0008281938120E030E040E85FE30E94250488
:102CF000882344F4FE01E55BFF4F81E090E091837F
:102D0000808364C0FE01E35BFF4F6081718182813B
:102D1000938120E03FEF4FE757E40E94C503181668
:102D20000CF043C0FE01EF5AFF4F60817181828138
:102D3000938120E030E040E251E40E941F02DC0178
:102D4000CB018E01055B1F4FBC01CD010E944900E4
:102D5000DC01CB01F801918380831FC0FE01E75B9A
:102D6000FF4F88EC90E091838083FE01E75BFF4F8B
:102D7000808191810197F1F7FE01E75BFF4F91831D
:102D80008083DE01A55BBF4FFE01E55BFF4F8081C5
:102D90009181019711969C938E93FE01E55BFF4F05
:102DA000808191810097D1F627C08E01055B1F4F6E
:102DB000FE01E35BFF4F60817181828193810E94FC
:102DC0004900DC01CB01F80191838083DE01A95B1E
:102DD000BF4FFE01E55BFF4F808191818D939C93F6
:102DE000FE01E95BFF4F808191810197F1F7FE01C0
:102DF000E95BFF4F9183808381E060E040E00E94C7
:102E00005F0981E061E040E00E945F0981E063E0EA
:102E100041E00E945F0981E062E040E00E945F09BA
:102E2000FE01ED5BFF4F80E090E0A0EAB0E480831C
:102E30009183A283B3838E01015C1F4FFE01ED5B82
:102E4000FF4F608171818281938120E030E04AEF01
:102E500054E40E941F02DC01CB01F80180839183BE
:102E6000A283B383FE01FF96608171818281938189
:102E700020E030E040E85FE30E94250488232CF442
:102E800081E090E09EAF8DAF46C0FE01FF9660816D
:102E900071818281938120E03FEF4FE757E40E94E8
:102EA000C503181664F5FE01ED5BFF4F608171816B
:102EB0008281938120E030E040E251E40E941F02D1
:102EC000DC01CB01BC01CD010E944900DC01CB013A
:102ED0009EAF8DAF0FC088EC90E09CAF8BAF8BADF9
:102EE0009CAD0197F1F79CAF8BAF8DAD9EAD019777
:102EF0009EAF8DAF8DAD9EAD009769F716C0FE01F8
:102F0000FF9660817181828193810E944900DC017A
:102F1000CB019EAF8DAF8DAD9EAD9AAF89AF89AD20
:102F20009AAD0197F1F79AAF89AF81E060E040E098
:102F30000E945F0981E061E040E00E945F0981E05A
:102F400063E040E00E945F0981E062E041E00E94AE
:102F50005F0980E090E0A0EAB0E48DAB9EABAFAB40
:102F6000B8AF6DA97EA98FA998AD20E030E04AEFF7
:102F700054E40E941F02DC01CB0189AB9AABABABDE
:102F8000BCAB69A97AA98BA99CA920E030E040E8F4
:102F90005FE30E94250488232CF481E090E098AB45
:102FA0008FA73FC069A97AA98BA99CA920E03FEF10
:102FB0004FE757E40E94C50318164CF56DA97EA98A
:102FC0008FA998AD20E030E040E251E40E941F025A
:102FD000DC01CB01BC01CD010E944900DC01CB0129
:102FE00098AB8FA70FC088EC90E09EA78DA78DA50A
:102FF0009EA50197F1F79EA78DA78FA598A9019788
:1030000098AB8FA78FA598A9009769F714C069A9F5
:103010007AA98BA99CA90E944900DC01CB0198AB3D
:103020008FA78FA598A99CA78BA78BA59CA5019777
:10303000F1F79CA78BA781E060E040E00E945F0968
:1030400081E061E041E00E945F0981E063E040E0EF
:103050000E945F0981E062E040E00E945F0980E039
:1030600090E0A0EAB0E48FA398A7A9A7BAA76FA1A0
:1030700078A589A59AA520E030E04AEF54E40E94A3
:103080001F02DC01CB018BA39CA3ADA3BEA36BA14C
:103090007CA18DA19EA120E030E040E85FE30E948A
:1030A000250488232CF481E090E09AA389A33FC0F3
:1030B0006BA17CA18DA19EA120E03FEF4FE757E4DB
:1030C0000E94C50318164CF56FA178A589A59AA58D
:1030D00020E030E040E251E40E941F02DC01CB011D
:1030E000BC01CD010E944900DC01CB019AA389A358
:1030F0000FC088EC90E098A38F8F8F8D98A10197D7
:10310000F1F798A38F8F89A19AA101979AA389A318
:1031100089A19AA1009769F714C06BA17CA18DA128
:103120009EA10E944900DC01CB019AA389A389A139
:103130009AA19E8F8D8F8D8D9E8D0197F1F79E8F19
:103140008D8F81E060E041E00E945F0981E061E0F5
:1031500040E00E945F0981E062E040E00E945F0978
:1031600081E063E040E00E945F0980E090E0A0EA37
:10317000B0E4898F9A8FAB8FBC8F698D7A8D8B8DE0
:103180009C8D20E030E04AEF54E40E941F02DC01F5
:10319000CB018D8B9E8BAF8BB88F6D897E898F898C
:1031A000988D20E030E040E85FE30E94250488230A
:1031B0002CF481E090E09C8B8B8B3FC06D897E89E5
:1031C0008F89988D20E03FEF4FE757E40E94C503B9
:1031D00018164CF5698D7A8D8B8D9C8D20E030E032
:1031E00040E251E40E941F02DC01CB01BC01CD0191
:1031F0000E944900DC01CB019C8B8B8B0FC088ECBB
:1032000090E09A8B898B89899A890197F1F79A8B3B
:10321000898B8B899C8901979C8B8B8B8B899C8953
:10322000009769F714C06D897E898F89988D0E94F7
:103230004900DC01CB019C8B8B8B8B899C89988B03
:103240008F878F8598890197F1F7988B8F8781E019
:1032500060E041E00E945F0981E061E040E00E949F
:103260005F0981E062E040E00E945F0981E063E085
:1032700041E00E945F0980E090E0A0EAB0E48B8723
:103280009C87AD87BE876B857C858D859E8520E07C
:1032900030E04AEF54E40E941F02DC01CB018F832F
:1032A0009887A987BA876F81788589859A8520E074
:1032B00030E040E85FE30E94250488232CF481E09D
:1032C00090E09E838D833FC06F81788589859A8544
:1032D00020E03FEF4FE757E40E94C50318164CF576
:1032E0006B857C858D859E8520E030E040E251E451
:1032F0000E941F02DC01CB01BC01CD010E944900EC
:10330000DC01CB019E838D830FC088EC90E09C8311
:103310008B838B819C810197F1F79C838B838D81BB
:103320009E8101979E838D838D819E81009769F791
:1033300014C06F81788589859A850E944900DC01D7
:10334000CB019E838D838D819E819A838983898120
:103350009A810197F1F79A838983C356DF4F0FB69D
:10336000F894DEBF0FBECDBFCF91DF911F910F91BB
:103370000895991B79E004C0991F961708F0961BD1
:10338000881F7A95C9F7809508952F923F924F92A2
:103390005F926F927F928F929F92AF92BF92CF92E5
:1033A000DF92EF92FF920F931F93CF93DF93CDB7EE
:1033B000DEB7CA1BDB0B0FB6F894DEBF0FBECDBF66
:1033C00009942A88398848885F846E847D848C8437
:1033D0009B84AA84B984C884DF80EE80FD800C8140
:1033E0001B81AA81B981CE0FD11D0FB6F894DEBF23
:0C33F0000FBECDBFED010895F894FFCF93
:1033FC000000000000000000040506070405060795
:10340C003738392F343536583132332D23303D2B64
:0A341C003F065B4F666D7D077F6F72
:00000001FF
