:100000000C942A000C946F110C949C110C94C9113F
:100010000C9447000C9447000C9447000C94470044
:100020000C9447000C9447000C94C40E0C944700A9
:100030000C94930F0C94FC090C94290A0C94560A06
:100040000C9447000C9447000C9447000C94A610A5
:100050000C94470011241FBECFE5D8E0DEBFCDBF12
:1000600012E0A0E6B0E0E4EDF5E602C005900D92E6
:10007000AE35B107D9F712E0AEE5B2E001C01D928E
:10008000AA3BB107E1F70E9414280C94E8320C94C3
:100090000000EF92FF920F931F937B018C0120E0F1
:1000A00030E040E05FE40E94F50388238CF0C80153
:1000B000B70120E030E040E05FE40E94C1010E940F
:1000C000B3049B01AC01205030404040504806C072
:1000D000C801B7010E94B3049B01AC01B901CA0178
:1000E0001F910F91FF90EF900895A0E0B0E0EBE733
:1000F000F0E00C940930DC012B01FA019C91923064
:1001000008F439C1EB018881823008F433C194309E
:1001100069F4843009F02FC111969C91119789815F
:10012000981709F428C1ADE3B1E025C1843009F482
:1001300021C18230A9F4923009F01DC19A01AD01AC
:1001400088E0EA010990AE01E90109929E0181501F
:10015000C1F7E201898111969C918923818308C1AD
:10016000923009F407C112962D903C901397EB0141
:100170008A819B811496AD90BD90CD90DC901797AD
:10018000EC80FD800E811F819101281B390BB90184
:1001900037FF04C066277727621B730B6032710537
:1001A0000CF061C0121613066CF537014801062EDB
:1001B00004C096948794779467940A94D2F721E0C8
:1001C00030E040E050E004C0220F331F441F551FB1
:1001D0006A95D2F721503040404050402E213F21B7
:1001E00040235123211531054105510521F021E01E
:1001F00030E040E050E079018A01E628F72808293C
:1002000019293CC0232BD1F1260E371E350146019A
:10021000062E04C096948794779467940A94D2F734
:1002200021E030E040E050E004C0220F331F441FC3
:10023000551F6A95D2F721503040404050402A2146
:100240003B214C215D21211531054105510521F04E
:1002500021E030E040E050E059016A01A628B728CB
:10026000C828D9280BC0821593052CF01C01AA249C
:10027000BB24650103C0EE24FF24870111969C91E5
:10028000D20111968C91981709F445C0992339F041
:10029000A80197012A193B094C095D0906C0A6016E
:1002A00095012E193F09400B510B57FD08C01182D3
:1002B0003382228224833583468357831DC081E0A5
:1002C00081833382228288279927DC01821B930B4A
:1002D000A40BB50B84839583A683B7830DC0220F2F
:1002E000331F441F551F24833583468357838281E0
:1002F000938101979383828324813581468157813D
:10030000DA01C9010197A109B1098F5F9F4FAF4F72
:10031000BF4328F30BC0918333822282EA0CFB1C7B
:100320000C1D1D1DE482F5820683178383E0808304
:10033000248135814681578157FF1AC0C901AA27F8
:1003400097FDA095BA2F81709070A070B0705695EF
:10035000479537952795822B932BA42BB52B848318
:100360009583A683B7838281938101969383828349
:10037000DF0101C0D201CD01CDB7DEB7E2E10C94BF
:100380002530A0E2B0E0E7ECF1E00C941530698391
:100390007A838B839C832D833E834F835887E9E048
:1003A000EE2EF12CEC0EFD1ECE010196B7010E943F
:1003B000A4068E010F5E1F4FCE010596B8010E9464
:1003C000A4068A8991E089278A8BC701B801AE010A
:1003D000475E5F4F0E9475000E94CF05A096E6E041
:1003E0000C943130A0E2B0E0E8EFF1E00C9415306D
:1003F00069837A838B839C832D833E834F835887C5
:10040000F9E0EF2EF12CEC0EFD1ECE010196B701A6
:100410000E94A4068E010F5E1F4FCE010596B80103
:100420000E94A406C701B801AE01475E5F4F0E945B
:1004300075000E94CF05A096E6E00C943130A0E252
:10044000B0E0E5E2F2E00C94093069837A838B83B3
:100450009C832D833E834F835887CE010196BE0136
:10046000675F7F4F0E94A406CE010596BE016F5EB6
:100470007F4F0E94A4069985923088F08989823046
:10048000C8F0943019F4823051F404C0843029F457
:10049000923081F48DE391E0C6C0923049F420E0BF
:1004A0009A858A89981321E02A87CE010996BBC0D4
:1004B000823049F420E09A858A89981321E02A8BBA
:1004C000CE014196B0C02D843E844F8458886D88FB
:1004D0007E888F88988CEE24FF248701AA24BB2471
:1004E000650140E050E060E070E0E0E0F0E0C10174
:1004F00081709070892BE9F0E60CF71C081D191D1E
:100500009A01AB012A0D3B1D4C1D5D1D80E090E062
:10051000A0E0B0E0E614F7040805190520F481E036
:1005200090E0A0E0B0E0BA01A901480F591F6A1F8E
:100530007B1FAA0CBB1CCC1CDD1C97FE08C081E0F5
:1005400090E0A0E0B0E0A82AB92ACA2ADB2A3196B6
:10055000E032F10549F0660C771C881C991C569412
:10056000479437942794C3CFFA85EA892B893C892D
:100570008B859C85280F391F2E5F3F4F17C0CA01FE
:1005800081709070892B61F016950795F794E79428
:1005900080E090E0A0E0B0E8E82AF92A0A2B1B2BC3
:1005A00076956795579547952F5F3F4F77FDE7CF36
:1005B0000CC0440F551F661F771F17FD4160EE0CDE
:1005C000FF1C001F111F21503040403090E05907A0
:1005D00090E0690790E4790760F32B8F3C8FDB0193
:1005E000CA018F779070A070B07080349105A1051A
:1005F000B10561F447FD0AC0E114F10401051105DC
:1006000029F0405C5F4F6F4F7F4F40781A8EFE1786
:1006100011F081E08A8F4D8F5E8F6F8F78A383E01A
:10062000898FCE0149960E94CF05A096E2E10C94F5
:100630002530A8E1B0E0EFE1F3E00C9411306983DC
:100640007A838B839C832D833E834F835887B9E0C5
:10065000EB2EF12CEC0EFD1ECE010196B7010E948F
:10066000A4068E010F5E1F4FCE010596B8010E94B1
:10067000A4062985223008F47EC03989323010F46E
:10068000B8017CC08A859A8989278A87243011F02D
:10069000223031F4231709F06EC06DE371E06EC0B3
:1006A000343039F41D861E861F86188A1C861B86E8
:1006B00004C0323021F484E08987B7015FC02B8504
:1006C0003C858B899C89281B390B3C872B87ED84C3
:1006D000FE840F851889AD88BE88CF88D88CEA142F
:1006E000FB040C051D0540F4EE0CFF1C001F111F40
:1006F000215030403C872B8720E030E040E050E044
:1007000080E090E0A0E0B0E460E070E0EA14FB0478
:100710000C051D0540F0282B392B4A2B5B2BEA18C2
:10072000FB080C091D09B695A79597958795EE0CC2
:10073000FF1C001F111F6F5F7F4F6F31710531F775
:10074000DA01C9018F779070A070B0708034910584
:10075000A105B10561F427FD0AC0E114F10401050A
:10076000110529F0205C3F4F4F4F5F4F20782D87B8
:100770003E874F87588BBE01675F7F4FCB010E943A
:10078000CF056896EAE00C942D30A8E1B0E0EBECE0
:10079000F3E00C94153069837A838B839C832D83DB
:1007A0003E834F83588789E0E82EF12CEC0EFD1E26
:1007B000CE010196B7010E94A4068E010F5E1F4F65
:1007C000CE010596B8010E94A4068985823040F0CA
:1007D0008989823028F0C701B8010E941C0701C036
:1007E0008FEF6896E6E00C943130A8E1B0E0EBEFD3
:1007F000F3E00C94153069837A838B839C832D837B
:100800003E834F83588789E0E82EF12CEC0EFD1EC5
:10081000CE010196B7010E94A4068E010F5E1F4F04
:10082000CE010596B8010E94A4068985823040F069
:100830008989823028F0C701B8010E941C0701C0D5
:100840008FEF6896E6E00C943130A8E1B0E0EBE27F
:10085000F4E00C94153069837A838B839C832D8319
:100860003E834F83588789E0E82EF12CEC0EFD1E65
:10087000CE010196B7010E94A4068E010F5E1F4FA4
:10088000CE010596B8010E94A4068985823040F009
:100890008989823028F0C701B8010E941C0701C075
:1008A00081E06896E6E00C943130A8E0B0E0EBE53A
:1008B000F4E00C9412309B01AC0183E08983DA01EF
:1008C000C9018827B7FD83959927AA27BB27B82E8A
:1008D000211531054105510519F482E089833AC09B
:1008E0008823A9F0203080E0380780E0480780E8BE
:1008F000580729F460E070E080E09FEC30C0EE24FF
:10090000FF248701E21AF30A040B150B02C07901D8
:100910008A018EE1C82ED12CDC82CB82ED82FE8250
:100920000F831887C801B7010E9480050197181628
:10093000190684F4082E04C0EE0CFF1C001F111FC2
:100940000A94D2F7ED82FE820F831887C81AD90A5B
:10095000DC82CB82BA82CE0101960E94CF05289616
:10096000E9E00C942E30ACE0B0E0E9EBF4E00C945C
:10097000193069837A838B839C83CE010196BE01F3
:100980006B5F7F4F0E94A4068D81823061F18230BF
:1009900050F1843021F48E81882351F12EC02F81B3
:1009A000388537FD20C06E812F3131051CF066235C
:1009B000F9F023C08EE190E0821B930B29853A85E4
:1009C0004B855C8504C056954795379527958A9544
:1009D000D2F76623B1F050954095309521953F4F61
:1009E0004F4F5F4F0EC020E030E040E050E009C0C4
:1009F0002FEF3FEF4FEF5FE704C020E030E040E033
:100A000050E8B901CA012C96E2E00C943530A8E018
:100A1000B0E0EDE0F5E00C9411307B018C01611544
:100A200071058105910519F482E0898360C083E036
:100A300089838EE1C82ED12CDC82CB82ED82FE82AE
:100A40000F831887C801B7010E948005FC01319708
:100A5000F7FF3BC0222733272E1B3F0B57016801AE
:100A6000022E04C0D694C794B794A7940A94D2F7E0
:100A700040E050E060E070E081E090E0A0E0B0E0B5
:100A800004C0880F991FAA1FBB1F2A95D2F7019790
:100A9000A109B1098E219F21A023B1230097A105AF
:100AA000B10521F041E050E060E070E04A295B29A7
:100AB0006C297D294D835E836F8378878EE190E07A
:100AC0008E1B9F0B9C838B8312C0309781F00E2E60
:100AD00004C0EE0CFF1C001F111F0A94D2F7ED8218
:100AE000FE820F831887CE1ADF0ADC82CB821A823D
:100AF000CE0101960E94CF052896EAE00C942D3095
:100B0000EF92FF920F931F937B018C0180E0E81618
:100B100080E0F80681E0080780E0180788F48FEF8E
:100B2000E816F1040105110531F028F088E090E0A5
:100B3000A0E0B0E017C080E090E0A0E0B0E012C01C
:100B400080E0E81680E0F80680E0080781E01807FA
:100B500028F088E190E0A0E0B0E004C080E190E0FF
:100B6000A0E0B0E020E230E040E050E0281B390B8C
:100B70004A0B5B0B04C016950795F794E7948A958A
:100B8000D2F7F701EB5BFE4F8081281B3109410949
:100B90005109C9011F910F91FF90EF900895DF92C5
:100BA000EF92FF920F931F93FC01E480F580068182
:100BB0001781D1808081823048F480E090E0A0E10C
:100BC000B0E0E82AF92A0A2B1B2BA5C0843009F4CF
:100BD0009FC0823021F4EE24FF24870105C0E11478
:100BE000F1040105110519F4E0E0F0E096C062811E
:100BF00073819FEF623879070CF05BC022E83FEF0A
:100C0000261B370B2A3131052CF020E030E040E084
:100C100050E02AC0B801A701022E04C0769567955E
:100C2000579547950A94D2F781E090E0A0E0B0E0B4
:100C300004C0880F991FAA1FBB1F2A95D2F70197DE
:100C4000A109B1098E219F21A023B1230097A105FD
:100C5000B10521F081E090E0A0E0B0E09A01AB01A5
:100C6000282B392B4A2B5B2BDA01C9018F77907027
:100C7000A070B07080349105A105B10539F427FF4B
:100C800009C0205C3F4F4F4F5F4F04C0215C3F4F76
:100C90004F4F5F4FE0E0F0E02030A0E03A07A0E0E7
:100CA0004A07A0E45A0710F0E1E0F0E079018A0178
:100CB00027C06038710564F5FB01E158FF4FD8018A
:100CC000C7018F779070A070B07080349105A10536
:100CD000B10539F4E7FE0DC080E490E0A0E0B0E09B
:100CE00004C08FE390E0A0E0B0E0E80EF91E0A1F18
:100CF0001B1F17FF05C016950795F794E7943196CB
:100D000087E016950795F794E7948A95D1F705C083
:100D1000EE24FF248701EFEFF0E06E2F6795662742
:100D20006795902F9F77D794DD24D7948E2F869543
:100D3000492F462B582F5D29B701CA011F910F91EA
:100D4000FF90EF90DF900895FC01DB01408151811D
:100D50002281622F6F7770E0221F2227221F93814A
:100D6000892F880F822B282F30E0991F9927991FF0
:100D700011969C93119721153105A9F5411551053F
:100D80006105710511F482E037C082E89FEF139688
:100D90009C938E9312979A01AB0167E0220F331F49
:100DA000441F551F6A95D1F783E08C930DC0220F25
:100DB000331F441F551F12968D919C9113970197D5
:100DC00013969C938E931297203080E0380780E032
:100DD000480780E4580758F314962D933D934D939C
:100DE0005C93179708952F3F310579F4411551050C
:100DF0006105710519F484E08C93089564FF03C0C4
:100E000081E08C9312C01C9210C02F573040139673
:100E10003C932E93129783E08C9387E0440F551FE9
:100E2000661F771F8A95D1F7706414964D935D9372
:100E30006D937C93179708951F93DC01FB019C91A0
:100E4000923008F447C08081823008F443C0943067
:100E500051F411961C91843099F58181682F70E0CE
:100E6000611B71093FC0843021F0923031F482302F
:100E7000B9F18181882389F12DC011961C911197B8
:100E80008230F1F081811817D9F412962D913C919E
:100E90001397828193818217930794F0281739075B
:100EA000BCF014968D919D910D90BC91A02D248144
:100EB000358146815781281739074A075B0718F49F
:100EC000112341F00AC082179307A407B50740F425
:100ED000112319F061E070E005C06FEF7FEF02C0F1
:100EE00060E070E0CB011F910895DF93CF93CDB701
:100EF000DEB727970FB6F894DEBF0FBECDBF8A834B
:100F00007C836B834D833F832E8319828A81282FB4
:100F100030E0C901880F991F880F991F880F991F0A
:100F2000821B930BFC01E25AFD4F80819181009757
:100F300019F083E089835AC08A81282F30E0C901E3
:100F4000880F991F880F991F880F991F821B930B79
:100F5000FC01EF59FD4F8B819C81918380838A81B5
:100F6000282F30E0C901880F991F880F991F880F1B
:100F7000991F821B930BFC01E25AFD4F8E819F81CA
:100F8000918380838A81282F30E0C901880F991FBF
:100F9000880F991F880F991F821B930BFC01E05A41
:100FA000FD4F8A8180838A81282F30E0C901880F14
:100FB000991F880F991F880F991F821B930BFC01A3
:100FC000EC59FD4F8D8180838A81282F30E0C90143
:100FD000880F991F880F991F880F991F821B930BE9
:100FE000FC01ED59FD4F108281E0898389812796AC
:100FF0000FB6F894DEBF0FBECDBFCF91DF9108953D
:10100000DF93CF93CDB7DEB784E698E00E94B20EAF
:10101000AFE5B0E0EFE5F0E0808180688C930E945E
:10102000590ECF91DF910895DF93CF930F92CDB7F3
:10103000DEB789838981282F30E0C901880F991F85
:10104000880F991F880F991F821B930BFC01ED5984
:10105000FD4F81E080830F90CF91DF910895DF9362
:10106000CF930F92CDB7DEB789838981282F30E0E7
:10107000C901880F991F880F991F880F991F821B1C
:10108000930BFC01ED59FD4F10820F90CF91DF9132
:101090000895DF93CF930F92CDB7DEB7898389810F
:1010A000282F30E0C901880F991F880F991F880FDA
:1010B000991F821B930BFC01E25AFD4F1182108293
:1010C0000F90CF91DF910895DF93CF930F92CDB71B
:1010D000DEB71982198291C08981282F30E0C901B9
:1010E000880F991F880F991F880F991F821B930BD8
:1010F000FC01ED59FD4F8081882309F07BC0898177
:10110000282F30E0C901880F991F880F991F880F79
:10111000991F821B930BFC01E25AFD4F8081918144
:10112000009709F467C08981282F30E0C901880F32
:10113000991F880F991F880F991F821B930BFC0121
:10114000EC59FD4F80818823B1F58981282F30E04B
:10115000C901880F991F880F991F880F991F821B3B
:10116000930BFC01E25AFD4F0190F081E02D0995AF
:101170008981482F50E08981282F30E0C901880FEC
:10118000991F880F991F880F991F821B930BFC01D1
:10119000EF59FD4F80819181282FCA01880F991F37
:1011A000880F991F880F991F841B950BFC01EC5920
:1011B000FD4F20831FC08981282F30E0C901880F8F
:1011C000991F880F991F880F991F821B930BFC0191
:1011D000EC59FD4F8081482F4150C901880F991F5C
:1011E000880F991F880F991F821B930BFC01EC59E4
:1011F000FD4F408389818F5F89838981853008F421
:101200006BCF0F90CF91DF910895DF93CF93CDB740
:10121000DEB729970FB6F894DEBF0FBECDBF9D8312
:101220008C837F836E83598748871B821A82198239
:1012300083E390E09B838A838A819B810E94E509F6
:10124000AAE2B0E0EAE2F0E08081877F8C93AAE234
:10125000B0E0EAE2F0E0808180618C93898180686F
:10126000898389818F7B89838981877F898389812C
:101270008F7E898389818F7D89838981826089833B
:10128000898184608983AAE2B0E0EAE2F0E08081AB
:101290008B7F8C93E0E4F0E089818083AFE5B0E060
:1012A000EFE5F0E080818F778C93ABE2B0E0EBE28A
:1012B000F0E0808180648C93AAE2B0E0EAE2F0E0A2
:1012C00080818F7B8C93ABE2B0E0EBE2F0E0808139
:1012D00080648C93AAE2B0E0EAE2F0E080818F774C
:1012E0008C93ABE2B0E0EBE2F0E0808180628C9323
:1012F000AAE2B0E0EAE2F0E080818F7D8C9329964B
:101300000FB6F894DEBF0FBECDBFCF91DF91089529
:10131000DF93CF930F92CDB7DEB78983EBE2F0E096
:101320008081829586958770882F90E0817090707B
:101330000097A1F3ECE2F0E0898180830F90CF91D8
:10134000DF910895DF93CF9300D0CDB7DEB79A83B6
:1013500089830BC0E981FA81208189819A81019674
:101360009A838983822F0E948809E981FA8180818A
:10137000882381F70F900F90CF91DF910895DF932D
:10138000CF93CDB7DEB7EBE2F0E080818823DCF7C6
:10139000ECE2F0E08081CF91DF910895DF93CF936D
:1013A0000F92CDB7DEB7EBE2F0E08081881F88278F
:1013B000881F813031F4ECE2F0E0808189838981FB
:1013C00000C00F90CF91DF910895DF93CF9300D0AD
:1013D000CDB7DEB79A838983E0E4F0E089819A8112
:1013E000892F99278083E9E2F0E0898180830F903B
:1013F0000F90CF91DF9108951F920F920FB60F9229
:1014000011242F933F934F935F936F937F938F9309
:101410009F93AF93BF93EF93FF93DF93CF93CDB79A
:10142000DEB7E0918102F09182020995CF91DF91C0
:10143000FF91EF91BF91AF919F918F917F916F91AC
:101440005F914F913F912F910F900FBE0F901F9082
:1014500018951F920F920FB60F9211242F933F935E
:101460004F935F936F937F938F939F93AF93BF93AC
:10147000EF93FF93DF93CF93CDB7DEB7E091830275
:10148000F09184020995CF91DF91FF91EF91BF9187
:10149000AF919F918F917F916F915F914F913F910C
:1014A0002F910F900FBE0F901F9018951F920F92C3
:1014B0000FB60F9211242F933F934F935F936F9327
:1014C0007F938F939F93AF93BF93EF93FF93DF939C
:1014D000CF93CDB7DEB7E0918502F09186020995F2
:1014E000CF91DF91FF91EF91BF91AF919F918F913C
:1014F0007F916F915F914F913F912F910F900FBE10
:101500000F901F901895DF93CF9300D00F92CDB717
:10151000DEB789836A834B8389810E94A20A8A810C
:101520000E94660B8B810E94A30C0F900F900F906E
:10153000CF91DF910895DF93CF93CDB7DEB7CF91F1
:10154000DF910895DF93CF9300D00F92CDB7DEB730
:1015500089838981282F30E03B832A838A819B817C
:101560008230910509F456C02A813B812330310530
:1015700064F48A819B81009709F486C02A813B81AB
:101580002130310509F463C09BC08A819B8183307F
:10159000910531F02A813B8124303105F1F090C072
:1015A000AFE4B0E0EFE4F0E080818E7F8C93AFE4B5
:1015B000B0E0EFE4F0E080818D7F8C93AEE4B0E0AA
:1015C000EEE4F0E0808188608C93AEE4B0E0EEE47D
:1015D000F0E0808180618C9373C0AFE4B0E0EFE411
:1015E000F0E080818E7F8C93AFE4B0E0EFE4F0E038
:1015F00080818D7F8C93AEE4B0E0EEE4F0E08081FA
:1016000088608C93AEE4B0E0EEE4F0E080818F7E01
:101610008C9356C0AFE4B0E0EFE4F0E080818160ED
:101620008C93AFE4B0E0EFE4F0E0808182608C93D3
:10163000AEE4B0E0EEE4F0E0808188608C93AEE44C
:10164000B0E0EEE4F0E0808180618C9339C0AFE4DB
:10165000B0E0EFE4F0E080818E7F8C93AFE4B0E007
:10166000EFE4F0E0808182608C93AEE4B0E0EEE4E1
:10167000F0E0808188608C93AEE4B0E0EEE4F0E0CE
:10168000808180618C931CC0AFE4B0E0EFE4F0E0B7
:1016900080818E7F8C93AFE4B0E0EFE4F0E0808156
:1016A0008D7F8C93AEE4B0E0EEE4F0E08081877F44
:1016B0008C93AEE4B0E0EEE4F0E080818F7E8C931A
:1016C0000F900F900F90CF91DF910895DF93CF93FC
:1016D00000D00F92CDB7DEB789838981282F30E003
:1016E0003B832A838A819B818630910509F454C00B
:1016F0002A813B812730310524F58A819B81823004
:10170000910509F485C02A813B812330310564F4B9
:101710008A819B81009709F45DC02A813B81213039
:10172000310509F466C009C18A819B818430910525
:1017300009F48CC02A813B81253031050CF095C01D
:1017400076C08A819B818A30910509F4D9C02A81AB
:101750003B812B3031056CF48A819B818830910567
:1017600009F492C02A813B81293031050CF0AAC0CE
:1017700022C08A819B818C30910509F4B2C02A81F4
:101780003B812C3031050CF48EC08A819B818D30D9
:10179000910509F4C4C0D1C0AFE4B0E0EFE4F0E0DB
:1017A00080818F778C93AFE4B0E0EFE4F0E080814C
:1017B0008F7B8C93C2C0AFE4B0E0EFE4F0E08081B7
:1017C0008F7D8C93AFE4B0E0EFE4F0E080818F7E1A
:1017D0008C93B3C0AFE4B0E0EFE4F0E080818F7DA4
:1017E0008C93AFE4B0E0EFE4F0E0808180618C9313
:1017F000A4C0AFE4B0E0EFE4F0E080818F778C9399
:10180000AFE4B0E0EFE4F0E0808180648C9395C0B9
:10181000AFE4B0E0EFE4F0E0808180688C93AFE467
:10182000B0E0EFE4F0E0808180648C9386C0AFE4A8
:10183000B0E0EFE4F0E0808180628C93AFE4B0E050
:10184000EFE4F0E0808180618C9377C0AFE4B0E09A
:10185000EFE4F0E0808180688C93AFE4B0E0EFE4E7
:10186000F0E080818F7B8C9368C0AFE4B0E0EFE460
:10187000F0E0808180628C93AFE4B0E0EFE4F0E0D0
:1018800080818F7E8C9359C0AFE4B0E0EFE4F0E04C
:10189000808180688C93AFE4B0E0EFE4F0E0808179
:1018A00080648C934AC0AFE4B0E0EFE4F0E0808164
:1018B00080628C93AFE4B0E0EFE4F0E0808180617F
:1018C0008C933BC0AFE4B0E0EFE4F0E0808180684F
:1018D0008C93AFE4B0E0EFE4F0E080818F7B8C93F9
:1018E0002CC0AFE4B0E0EFE4F0E0808180628C9344
:1018F000AFE4B0E0EFE4F0E080818F7E8C931DC018
:10190000AFE4B0E0EFE4F0E0808180688C93AFE476
:10191000B0E0EFE4F0E0808180648C930EC0AFE42F
:10192000B0E0EFE4F0E0808180628C93AFE4B0E05F
:10193000EFE4F0E0808180618C930F900F900F9026
:10194000CF91DF910895DF93CF9300D00F92CDB761
:10195000DEB789838981282F30E03B832A838A81FF
:101960009B818330910509F470C02A813B8124302A
:10197000310584F48A819B8181309105D1F12A81DE
:101980003B81223031050CF04AC08A819B8100974F
:10199000D1F0C8C02A813B812530310509F481C0CE
:1019A0008A819B81853091050CF465C02A813B8139
:1019B0002630310509F48BC08A819B8187309105DF
:1019C00009F49BC0AFC0AEE4B0E0EEE4F0E080818B
:1019D0008E7F8C93AEE4B0E0EEE4F0E080818D7F0A
:1019E0008C93AEE4B0E0EEE4F0E080818B7F8C93EA
:1019F00099C0AEE4B0E0EEE4F0E0808181608C93C9
:101A0000AEE4B0E0EEE4F0E080818D7F8C93AEE454
:101A1000B0E0EEE4F0E080818B7F8C9383C0AEE495
:101A2000B0E0EEE4F0E080818E7F8C93AEE4B0E035
:101A3000EEE4F0E0808182608C93AEE4B0E0EEE40E
:101A4000F0E080818B7F8C936DC0AEE4B0E0EEE47B
:101A5000F0E0808181608C93AEE4B0E0EEE4F0E0F1
:101A6000808182608C93AEE4B0E0EEE4F0E08081AF
:101A70008B7F8C9357C0AEE4B0E0EEE4F0E0808161
:101A80008E7F8C93AEE4B0E0EEE4F0E080818D7F59
:101A90008C93AEE4B0E0EEE4F0E0808184608C935F
:101AA00041C0AEE4B0E0EEE4F0E0808181608C9370
:101AB000AEE4B0E0EEE4F0E080818D7F8C93AEE4A4
:101AC000B0E0EEE4F0E0808184608C932BC0AEE463
:101AD000B0E0EEE4F0E080818E7F8C93AEE4B0E085
:101AE000EEE4F0E0808182608C93AEE4B0E0EEE45E
:101AF000F0E0808184608C9315C0AEE4B0E0EEE449
:101B0000F0E0808181608C93AEE4B0E0EEE4F0E040
:101B1000808182608C93AEE4B0E0EEE4F0E08081FE
:101B200084608C930F900F900F90CF91DF91089568
:101B3000DF93CF9300D000D00F92CDB7DEB789836B
:101B40007B836A838981282F30E03D832C838C81BD
:101B50009D818230910521F12C813D812330310519
:101B600034F48C819D818130910561F026C02C81F7
:101B70003D812330310569F08C819D818430910550
:101B8000B1F01BC0E6E4F0E08A819B819183808301
:101B900014C0E6E4F0E08A819B81918380830DC0CC
:101BA000EAE4F0E08A819B819183808306C0EAE4C5
:101BB000F0E08A819B81918380830F900F900F903A
:101BC0000F900F90CF91DF910895DF93CF9300D0C6
:101BD00000D00F92CDB7DEB79A8389836B838B8158
:101BE000282F30E03D832C838C819D8181309105AD
:101BF00031F02C813D812230310541F00DC0EAE405
:101C0000F0E089819A819183808306C0E6E4F0E068
:101C100089819A81918380830F900F900F900F900C
:101C20000F90CF91DF910895DF93CF9300D00F9263
:101C3000CDB7DEB789838981282F30E03B832A83A3
:101C40008A819B818130910531F02A813B8122304C
:101C5000310549F00FC0AEE4B0E0EEE4F0E0808181
:101C600080648C9307C0AEE4B0E0EEE4F0E08081E5
:101C70008F7B8C930F900F900F90CF91DF910895F1
:101C8000DF93CF93CDB7DEB7A9E5B0E0E9E5F0E0AB
:101C9000808180628C93CF91DF910895DF93CF9301
:101CA000CDB7DEB7E6E4F0E080819181CF91DF919E
:101CB0000895DF93CF93CDB7DEB7A3E5B0E0E3E5BA
:101CC000F0E0808188608C93A3E5B0E0E3E5F0E08C
:101CD00080818F7B8C93A9E5B0E0E9E5F0E080811D
:101CE00082608C93ECE5F0E08CE78083A3E5B0E0C4
:101CF000E3E5F0E08081887F83608C93AFE5B0E01E
:101D0000EFE5F0E0808180688C93CF91DF910895BA
:101D1000DF93CF93CDB7DEB7A3E5B0E0E3E5F0E026
:101D20008081887F8C93CF91DF910895DF93CF934B
:101D30000F92CDB7DEB78983E2E5F0E08981808339
:101D40000F90CF91DF910895DF93CF930F92CDB78E
:101D5000DEB78983ECE5F0E0898180830F90CF9135
:101D6000DF910895DF93CF9300D0CDB7DEB79A838C
:101D7000898389819A8190938802809387020F904A
:101D80000F90CF91DF9108951F920F920FB60F928F
:101D900011242F933F934F935F936F937F938F9370
:101DA0009F93AF93BF93EF93FF93DF93CF93CDB701
:101DB000DEB7E0918702F09188020995CF91DF911B
:101DC000FF91EF91BF91AF919F918F917F916F9113
:101DD0005F914F913F912F910F900FBE0F901F90E9
:101DE0001895DF93CF9300D0CDB7DEB79A83898360
:101DF0000E94780FADE2B0E0EDE2F0E0808181601A
:101E00008C93ADE2B0E0EDE2F0E0808182608C93F3
:101E1000AEE2B0E0EEE2F0E080818E7F8C93ADE246
:101E2000B0E0EDE2F0E0808180618C93ADE2B0E063
:101E3000EDE2F0E0808180628C93ADE2B0E0EDE213
:101E4000F0E08081877F8C93ADE2B0E0EDE2F0E0DE
:101E500080818B7F8C93ADE2B0E0EDE2F0E0808199
:101E60008F778C93ADE2B0E0EDE2F0E080818064AA
:101E70008C930F900F90CF91DF910895DF93CF93C4
:101E80000F92CDB7DEB78983EFE2F0E089818083DE
:101E9000EEE2F0E080818823DCF7EFE2F0E0808181
:101EA0000F90CF91DF910895DF93CF9300D0CDB7FE
:101EB000DEB78A831982EFE2F0E080818983EFE266
:101EC000F0E08A81808389810F900F90CF91DF911C
:101ED0000895DF93CF93CDB7DEB7E7E3F0E080EA74
:101EE0008083EDE2F0E081E58083CF91DF9108957A
:101EF000DF93CF93CDB7DEB781E067E041E00E948A
:101F0000F61281E065E041E00E94F61281E064E0B3
:101F100041E00E94F61281E066E040E00E94F61285
:101F2000CF91DF9108951F920F920FB60F92112457
:101F30002F933F934F935F936F937F938F939F93D1
:101F4000AF93BF93EF93FF93DF93CF93CDB7DEB7FC
:101F5000E0918902F0918A020995CF91DF91FF917A
:101F6000EF91BF91AF919F918F917F916F915F9111
:101F70004F913F912F910F900FBE0F901F9018958A
:101F8000DF93CF930F92CDB7DEB78983A1E4B0E0A2
:101F9000E1E4F0E0808188608C93A1E4B0E0E1E4CA
:101FA000F0E08081982F987F8981892B8C930F9006
:101FB000CF91DF910895DF93CF93CDB7DEB7A1E442
:101FC000B0E0E1E4F0E0808180618C93A1E4B0E0D6
:101FD000E1E4F0E0808188608C9300000000000064
:101FE0000000A1E4B0E0E1E4F0E08081877F8C9321
:101FF000CF91DF910895DF93CF9300D0CDB7DEB7B7
:102000009A838983E2E2F0E082E080830E948D106F
:10201000A6E5B0E0E6E5F0E0808180648C93A6E57B
:10202000B0E0E6E5F0E0808184608C930F900F9043
:10203000CF91DF910895DF93CF93CDB7DEB7E6E57B
:10204000F0E084EA8083E6E5F0E080818823DCF735
:10205000CF91DF910895DF93CF930F92CDB7DEB785
:102060008983E3E2F0E089818083A6E5B0E0E6E5DC
:10207000F0E080818F7D8C93A6E5B0E0E6E5F0E0AE
:10208000808180688C93A6E5B0E0E6E5F0E0808191
:1020900084608C93E6E5F0E080818823DCF70F9084
:1020A000CF91DF910895DF93CF93CDB7DEB7A6E54B
:1020B000B0E0E6E5F0E080818F7D8C93A6E5B0E0AE
:1020C000E6E5F0E0808180688C93A6E5B0E0E6E587
:1020D000F0E0808184608C93E6E5F0E080818823E5
:1020E000DCF7E3E2F0E08081CF91DF910895DF93A8
:1020F000CF93CDB7DEB7E6E5F0E084E98083CF91FA
:10210000DF910895DF93CF93CDB7DEB7E1E2F0E042
:102110008081887FCF91DF910895DF93CF93CDB7F2
:10212000DEB7A1E2B0E0E1E2F0E0808181608C9373
:10213000A1E2B0E0E1E2F0E080818D7F8C93E0E20B
:10214000F0E082E08083CF91DF9108951F920F929B
:102150000FB60F9211242F933F934F935F936F937A
:102160007F938F939F93AF93BF93EF93FF93DF93EF
:10217000CF93CDB7DEB7E0918B02F0918C02099539
:10218000CF91DF91FF91EF91BF91AF919F918F918F
:102190007F916F915F914F913F912F910F900FBE63
:1021A0000F901F901895DF93CF93CDB7DEB7AFE5B3
:1021B000B0E0EFE5F0E0808180688C93ABE5B0E0C3
:1021C000EBE5F0E0808180648C93A5E5B0E0E5E587
:1021D000F0E0808182608C93A5E5B0E0E5E5F0E079
:1021E00080818E7F8C93CF91DF910895DF93CF9381
:1021F000CDB7DEB7AFE5B0E0EFE5F0E08081806815
:102200008C93ABE5B0E0EBE5F0E0808180688C93E7
:10221000A5E5B0E0E5E5F0E0808188608C93A5E578
:10222000B0E0E5E5F0E080818B7F8C93CF91DF918A
:102230000895DF93CF93CDB7DEB7AFE5B0E0EFE51C
:10224000F0E0808180688C93ABE5B0E0EBE5F0E0F6
:10225000808180628C93A4E5B0E0E4E5F0E08081C9
:102260008F7B8C93CF91DF910895DF93CF9300D034
:1022700000D00F92CDB7DEB789837B836A838981D3
:10228000282F30E03D832C838C819D818230910505
:1022900089F02C813D812330310599F08C819D811D
:1022A00081309105A1F48A819B8190938E02809365
:1022B0008D020DC08A819B819093900280938F0242
:1022C00006C08A819B8190939202809391020F9025
:1022D0000F900F900F900F90CF91DF9108951F9264
:1022E0000F920FB60F9211242F933F934F935F934A
:1022F0006F937F938F939F93AF93BF93EF93FF93CE
:10230000DF93CF93CDB7DEB7E0918D02F0918E02CF
:102310000995CF91DF91FF91EF91BF91AF919F917F
:102320008F917F916F915F914F913F912F910F907E
:102330000FBE0F901F9018951F920F920FB60F921D
:1023400011242F933F934F935F936F937F938F93BA
:102350009F93AF93BF93EF93FF93DF93CF93CDB74B
:10236000DEB7E0918F02F09190020995CF91DF9155
:10237000FF91EF91BF91AF919F918F917F916F915D
:102380005F914F913F912F910F900FBE0F901F9033
:1023900018951F920F920FB60F9211242F933F930F
:1023A0004F935F936F937F938F939F93AF93BF935D
:1023B000EF93FF93DF93CF93CDB7DEB7E091910218
:1023C000F09192020995CF91DF91FF91EF91BF912A
:1023D000AF919F918F917F916F915F914F913F91BD
:1023E0002F910F900FBE0F901F901895DF93CF93F2
:1023F000CDB7DEB727970FB6F894DEBF0FBECDBFBF
:1024000089836A834B838B81813009F06FC0898116
:10241000282F30E03F832E838E819F81813091056C
:1024200049F12E813F81223031052CF48E819F812C
:10243000009761F0D2C02E813F812230310571F1C9
:102440008E819F8183309105E9F1C7C0ABE3B0E095
:10245000EBE3F0E08081482F8A81282F30E081E093
:1024600090E0022E02C0880F991F0A94E2F7842B95
:102470008C93B3C0A8E3B0E0E8E3F0E08081482F9C
:102480008A81282F30E081E090E0022E02C0880F80
:10249000991F0A94E2F7842B8C939FC0A5E3B0E0C8
:1024A000E5E3F0E08081482F8A81282F30E081E049
:1024B00090E0022E02C0880F991F0A94E2F7842B45
:1024C0008C938BC0A2E3B0E0E2E3F0E08081482F80
:1024D0008A81282F30E081E090E0022E02C0880F30
:1024E000991F0A94E2F7842B8C9377C08B81882301
:1024F00009F073C08981282F30E03D832C838C81C3
:102500009D818130910559F12C813D812230310529
:102510002CF48C819D81009769F05FC02C813D81F6
:102520002230310589F18C819D818330910509F438
:1025300040C053C0ABE3B0E0EBE3F0E08081482F54
:102540008A81282F30E081E090E0022E02C0880FBF
:10255000991F0A94E2F7809584238C933EC0A8E3E8
:10256000B0E0E8E3F0E08081482F8A81282F30E056
:1025700081E090E0022E02C0880F991F0A94E2F7D2
:10258000809584238C9329C0A5E3B0E0E5E3F0E0D7
:102590008081482F8A81282F30E081E090E0022E50
:1025A00002C0880F991F0A94E2F7809584238C93C8
:1025B00014C0A2E3B0E0E2E3F0E08081482F8A811A
:1025C000282F30E081E090E0022E02C0880F991F92
:1025D0000A94E2F7809584238C9327960FB6F8949B
:1025E000DEBF0FBECDBFCF91DF910895DF93CF93B4
:1025F000CDB7DEB727970FB6F894DEBF0FBECDBFBD
:1026000089836A834B838B81813009F06FC0898114
:10261000282F30E03F832E838E819F81813091056A
:1026200049F12E813F81223031052CF48E819F812A
:10263000009761F0CEC02E813F812230310571F1CB
:102640008E819F8183309105E9F1C3C0AAE3B0E098
:10265000EAE3F0E08081482F8A81282F30E081E092
:1026600090E0022E02C0880F991F0A94E2F7842B93
:102670008C93AFC0A7E3B0E0E7E3F0E08081482FA0
:102680008A81282F30E081E090E0022E02C0880F7E
:10269000991F0A94E2F7842B8C939BC0A4E3B0E0CB
:1026A000E4E3F0E08081482F8A81282F30E081E048
:1026B00090E0022E02C0880F991F0A94E2F7842B43
:1026C0008C9387C0A1E3B0E0E1E3F0E08081482F84
:1026D0008A81282F30E081E090E0022E02C0880F2E
:1026E000991F0A94E2F7842B8C9373C08981282F59
:1026F00030E03D832C838C819D818130910559F19F
:102700002C813D81223031052CF48C819D810097F4
:1027100069F05FC02C813D812230310589F18C81C7
:102720009D818330910509F440C053C0AAE3B0E015
:10273000EAE3F0E08081482F8A81282F30E081E0B1
:1027400090E0022E02C0880F991F0A94E2F780954C
:1027500084238C933EC0A7E3B0E0E7E3F0E0808100
:10276000482F8A81282F30E081E090E0022E02C0BD
:10277000880F991F0A94E2F7809584238C9329C0CF
:10278000A4E3B0E0E4E3F0E08081482F8A81282FC1
:1027900030E081E090E0022E02C0880F991F0A9479
:1027A000E2F7809584238C9314C0A1E3B0E0E1E3C9
:1027B000F0E08081482F8A81282F30E081E090E08E
:1027C000022E02C0880F991F0A94E2F78095842395
:1027D0008C9327960FB6F894DEBF0FBECDBFCF9176
:1027E000DF910895DF93CF9300D000D0CDB7DEB74F
:1027F00089836A838981282F30E03C832B838B81F6
:102800009C818130910549F12B813C812230310539
:102810002CF48B819C81009761F05AC02B813C8104
:102820002230310571F18B819C8183309105E9F172
:102830004FC0ABE3B0E0EBE3F0E08081482F8A814A
:10284000282F30E081E090E0022E02C0880F991F0F
:102850000A94E2F784278C933BC0A8E3B0E0E8E356
:10286000F0E08081482F8A81282F30E081E090E0DD
:10287000022E02C0880F991F0A94E2F784278C93D6
:1028800027C0A5E3B0E0E5E3F0E08081482F8A812E
:10289000282F30E081E090E0022E02C0880F991FBF
:1028A0000A94E2F784278C9313C0A2E3B0E0E2E33A
:1028B000F0E08081482F8A81282F30E081E090E08D
:1028C000022E02C0880F991F0A94E2F784278C9386
:1028D0000F900F900F900F90CF91DF910895DF939D
:1028E000CF9300D000D00F92CDB7DEB78A836B8331
:1028F0008A81282F30E03D832C834C815D814130DB
:10290000510541F18C819D818230910534F42C81F7
:102910003D812115310561F052C04C815D8142300D
:10292000510551F18C819D8183309105B9F147C0EA
:10293000E9E3F0E08081282F30E08B81882F90E060
:10294000A90102C0559547958A95E2F7CA018170A1
:10295000898335C0E6E3F0E08081282F30E08B8169
:10296000882F90E0A90102C0559547958A95E2F716
:10297000CA018170898323C0E3E3F0E08081282FBE
:1029800030E08B81882F90E0A90102C055954795D2
:102990008A95E2F7CA018170898311C0E0E3F0E013
:1029A0008081282F30E08B81882F90E0A90102C020
:1029B000559547958A95E2F7CA0181708983898187
:1029C0000F900F900F900F900F90CF91DF9108957F
:1029D000DF93CF9300D000D0CDB7DEB789836A8371
:1029E0008981282F30E03C832B838B819C8181302F
:1029F0009105D1F02B813C81223031052CF48B8163
:102A00009C81009761F01EC02B813C8122303105F2
:102A100081F08B819C818330910581F013C0EBE3C1
:102A2000F0E08A8180830EC0E8E3F0E08A81808351
:102A300009C0E5E3F0E08A81808304C0E2E3F0E0CE
:102A40008A8180830F900F900F900F90CF91DF912C
:102A50000895DF93CF9300D000D0CDB7DEB7898340
:102A60006A838981282F30E03C832B838B819C8172
:102A700081309105D1F02B813C81223031052CF43D
:102A80008B819C81009761F01EC02B813C8122309C
:102A9000310581F08B819C818330910581F013C0D9
:102AA000EAE3F0E08A8180830EC0E7E3F0E08A8108
:102AB000808309C0E4E3F0E08A81808304C0E1E31D
:102AC000F0E08A8180830F900F900F900F90CF914C
:102AD000DF910895DF93CF93CDB7DEB7EAE3F0E05F
:102AE0008CEF8083E7E3F0E08FEA8083E4E3F0E0BB
:102AF0008DEF8083E1E3F0E08EE08083CF91DF9182
:102B00000895DF93CF93CDB7DEB7EBE3F0E080EF2E
:102B10008083E8E3F0E01082E5E3F0E01082E2E396
:102B2000F0E084EF8083CF91DF910895DF93CF931E
:102B3000CDB7DEB7A7E2B0E0E7E2F0E080818F77C3
:102B40008C93A7E2B0E0E7E2F0E0808180648C93B0
:102B5000A7E2B0E0E7E2F0E080818F7D8C93A6E20F
:102B6000B0E0E6E2F0E0808186608C93A6E2B0E01F
:102B7000E6E2F0E0808180688C93CF91DF91089548
:102B8000DF93CF930F92CDB7DEB78983A7E2B0E092
:102B9000E7E2F0E08081982F907E8981892B8C93E9
:102BA000A6E2B0E0E6E2F0E0808180648C93E6E2A9
:102BB000F0E0808182958F70882F90E08170907016
:102BC0000097A9F3A6E2B0E0E6E2F0E08081806140
:102BD0008C93E4E2F0E0808191810F90CF91DF91BE
:102BE0000895DF93CF930F92CDB7DEB78983A7E225
:102BF000B0E0E7E2F0E08081982F907E8981892B18
:102C00008C93A6E2B0E0E6E2F0E0808180648C93F1
:102C1000E6E2F0E0808182958F70882F90E08170ED
:102C200090700097A9F3A6E2B0E0E6E2F0E08081C0
:102C300080618C93E4E2F0E0808191810F90CF91EC
:102C4000DF910895DF93CF9300D000D00F92CDB7DE
:102C5000DEB78D83A7E2B0E0E7E2F0E08081982F55
:102C6000907E8D81892B8C93A6E2B0E0E6E2F0E0C5
:102C7000808180648C931A8219820AC089819A812A
:102C800001969A83898389819A8101969A8389839F
:102C900089819A81833291058CF3A6E2B0E0E6E265
:102CA000F0E0808180618C93E4E2F0E080819181AA
:102CB0000F900F900F900F900F90CF91DF9108958C
:102CC000AF92BF92CF92DF92EF92FF920F931F933A
:102CD000DF93CF93CDB7DEB72E970FB6F894DEBF54
:102CE0000FBECDBF9E838D8378876F835A874987B8
:102CF0003C872B871E870D8780E090E0A0E0B0E046
:102D000089839A83AB83BC838D819E81CC01A0E0B3
:102D1000B0E0BC01CD010E9407057B018C018F81D1
:102D20009885CC01A0E0B0E0BC01CD010E94070570
:102D30009B01AC01C801B7010E94C101DC01CB01BC
:102D40007C018D012D853E858B859C85A901481BC5
:102D5000590BCA01CC01A0E0B0E0BC01CD010E943A
:102D600007059B01AC01C801B7010E941F02DC01ED
:102D7000CB015C016D0189859A85CC01A0E0B0E0B2
:102D8000BC01CD010E9407057B018C018B859C85D0
:102D9000CC01A0E0B0E0BC01CD010E9407059B0181
:102DA000AC01C801B7010E94C101DC01CB019C014B
:102DB000AD01C601B5010E941903DC01CB017C0104
:102DC0008D018F819885CC01A0E0B0E0BC01CD01E0
:102DD0000E9407059B01AC01C801B7010E94F201E6
:102DE000DC01CB0189839A83AB83BC8389819A817F
:102DF000AB81BC81BC01CD012E960FB6F894DEBF2D
:102E00000FBECDBFCF91DF911F910F91FF90EF903B
:102E1000DF90CF90BF90AF900895DF93CF9300D015
:102E2000CDB7DEB789836A8389816A8141E00E94D8
:102E3000F6110F900F90CF91DF910895DF93CF930C
:102E400000D0CDB7DEB789836A8389816A8140E08B
:102E50000E94F6110F900F90CF91DF910895DF93AC
:102E6000CF9300D0CDB7DEB789836A8389816A8129
:102E70000E94F2130F900F90CF91DF910895DF938E
:102E8000CF93CDB7DEB72F970FB6F894DEBF0FBE46
:102E9000CDBF8F8782E067E040E00E94F61182E0BC
:102EA00065E040E00E94F61181E06F850E94E81421
:102EB00082E066E041E00E94F61180E090E0A0E050
:102EC000B0E48B879C87AD87BE876B857C858D85BD
:102ED0009E8520E030E04AEF54E40E941F02DC01AE
:102EE000CB018F839887A987BA876F817885898579
:102EF0009A8520E030E040E85FE30E9425048823C3
:102F00002CF481E090E09E838D833FC06F817885B3
:102F100089859A8520E03FEF4FE757E40E94C5037B
:102F200018164CF56B857C858D859E8520E030E0FC
:102F300040E251E40E941F02DC01CB01BC01CD0143
:102F40000E944900DC01CB019E838D830FC088EC79
:102F500090E09C838B838B819C810197F1F79C830C
:102F60008B838D819E8101979E838D838D819E8130
:102F7000009769F714C06F81788589859A850E94CA
:102F80004900DC01CB019E838D838D819E819A83D4
:102F9000898389819A810197F1F79A83898382E0F5
:102FA00066E040E00E94F6112F960FB6F894DEBF5F
:102FB0000FBECDBFCF91DF910895DF93CF93CDB7F3
:102FC000DEB7AA970FB6F894DEBF0FBECDBF80E084
:102FD00090E0A0EFB1E48FA398A7A9A7BAA76FA12B
:102FE00078A589A59AA520E030E04AEF54E40E9434
:102FF0001F02DC01CB018BA39CA3ADA3BEA36BA1DD
:103000007CA18DA19EA120E030E040E85FE30E941A
:10301000250488232CF481E090E09AA389A33FC083
:103020006BA17CA18DA19EA120E03FEF4FE757E46B
:103030000E94C50318164CF56FA178A589A59AA51D
:1030400020E030E040E251E40E941F02DC01CB01AD
:10305000BC01CD010E944900DC01CB019AA389A3E8
:103060000FC088EC90E098A38F8F8F8D98A1019767
:10307000F1F798A38F8F89A19AA101979AA389A3A9
:1030800089A19AA1009769F714C06BA17CA18DA1B9
:103090009EA10E944900DC01CB019AA389A389A1CA
:1030A0009AA19E8F8D8F8D8D9E8D0197F1F79E8FAA
:1030B0008D8F88E30E943F1780E090E0A0E8BFE397
:1030C000898F9A8FAB8FBC8F698D7A8D8B8D9C8DFC
:1030D00020E030E04AEF54E40E941F02DC01CB0103
:1030E0008D8B9E8BAF8BB88F6D897E898F89988DE4
:1030F00020E030E040E85FE30E94250488232CF4C0
:1031000081E090E09C8B8B8B3FC06D897E898F899D
:10311000988D20E03FEF4FE757E40E94C503181653
:103120004CF5698D7A8D8B8D9C8D20E030E040E2EE
:1031300051E40E941F02DC01CB01BC01CD010E94C1
:103140004900DC01CB019C8B8B8B0FC088EC90E09D
:103150009A8B898B89899A890197F1F79A8B898B48
:103160008B899C8901979C8B8B8B8B899C89009781
:1031700069F714C06D897E898F89988D0E944900F6
:10318000DC01CB019C8B8B8B8B899C89988B8F87E7
:103190008F8598890197F1F7988B8F878FE00E9430
:1031A0003F1780E090E0A0E8BFE38B879C87AD8766
:1031B000BE876B857C858D859E8520E030E04AEF5B
:1031C00054E40E941F02DC01CB018F839887A987FA
:1031D000BA876F81788589859A8520E030E040E85C
:1031E0005FE30E94250488232CF481E090E09E8315
:1031F0008D833FC06F81788589859A8520E03FEF78
:103200004FE757E40E94C50318164CF56B857C8583
:103210008D859E8520E030E040E251E40E941F024F
:10322000DC01CB01BC01CD010E944900DC01CB01D6
:103230009E838D830FC088EC90E09C838B838B8171
:103240009C810197F1F79C838B838D819E810197EF
:103250009E838D838D819E81009769F714C06F8155
:10326000788589859A850E944900DC01CB019E837F
:103270008D838D819E819A83898389819A8101972B
:10328000F1F79A83898381E00E943F17AA960FB6CF
:10329000F894DEBF0FBECDBFCF91DF910895DF93CD
:1032A000CF93CDB7DEB72F970FB6F894DEBF0FBE22
:1032B000CDBF8F8782E067E041E00E94F61182E097
:1032C00065E040E00E94F61181E06F850E94E814FD
:1032D00082E066E041E00E94F61180E090E0A0E02C
:1032E000B0E48B879C87AD87BE876B857C858D8599
:1032F0009E8520E030E04AEF54E40E941F02DC018A
:10330000CB018F839887A987BA876F817885898554
:103310009A8520E030E040E85FE30E94250488239E
:103320002CF481E090E09E838D833FC06F8178858F
:1033300089859A8520E03FEF4FE757E40E94C50357
:1033400018164CF56B857C858D859E8520E030E0D8
:1033500040E251E40E941F02DC01CB01BC01CD011F
:103360000E944900DC01CB019E838D830FC088EC55
:1033700090E09C838B838B819C810197F1F79C83E8
:103380008B838D819E8101979E838D838D819E810C
:10339000009769F714C06F81788589859A850E94A6
:1033A0004900DC01CB019E838D838D819E819A83B0
:1033B000898389819A810197F1F79A83898382E0D1
:1033C00066E040E00E94F6112F960FB6F894DEBF3B
:1033D0000FBECDBFCF91DF910895DF93CF93CDB7CF
:1033E000DEB727970FB6F894DEBF0FBECDBF9B8325
:1033F0008A836C834D8381E089838C81282F30E020
:103400003F832E838E819F818439910561F12E81C6
:103410003F812539310534F48E819F8180389105B3
:1034200061F037C02E813F81203C310589F08E81CB
:103430009F81843D910511F12CC08D8180580E949F
:103440003F1781E089838A819B810E94041B22C0EF
:103450008D8180540E943F1781E089838A819B81FE
:103460000E94041B17C08D818C560E943F1781E07B
:1034700089838A819B810E94041B0CC08D818C52A0
:103480000E943F1781E089838A819B810E94041BEF
:1034900001C01982898127960FB6F894DEBF0FBE4E
:1034A000CDBFCF91DF910895DF93CF9300D000D0AF
:1034B0000F92CDB7DEB78A836B8381E089838A81DF
:1034C000282F30E03D832C838C819D8184399105A8
:1034D00021F12C813D812539310534F48C819D8188
:1034E0008038910561F027C02C813D81203C310559
:1034F00069F08C819D81843D9105B1F01CC08B8168
:1035000080580E943F1781E0898316C08B818054C8
:103510000E943F1781E089830FC08B818C560E94E7
:103520003F1781E0898308C08B818C520E943F172E
:1035300081E0898301C0198289810F900F900F90DB
:103540000F900F90CF91DF910895DF93CF9300D02C
:1035500000D000D0CDB7DEB78A836B834C8381E087
:1035600089838B81282F30E03E832D838D819E813E
:103570008439910551F12D813E812539310534F48D
:103580008D819E818038910561F033C02D813E810F
:10359000203C310581F08D819E81843D9105F9F0BB
:1035A00028C08C8180580E943F1781E089838A81DE
:1035B0000E944F191FC08C8180540E943F1781E0E8
:1035C00089838A810E944F1915C08C818C560E9474
:1035D0003F1781E089838A810E944F190BC08C813B
:1035E0008C520E943F1781E089838A810E944F1983
:1035F00001C01982898126960FB6F894DEBF0FBEEE
:10360000CDBFCF91DF910895DF93CF93CDB7DEB7D4
:1036100060970FB6F894DEBF0FBECDBF988B8F8733
:1036200082E067E041E00E94F61182E065E040E060
:103630000E94F61188C0EF85F88920818F859889CE
:103640000196988B8F8781E0622F0E94E81482E0B8
:1036500066E041E00E94F61180E090E0A0E0B0E476
:103660008B879C87AD87BE876B857C858D859E8586
:1036700020E030E04AEF54E40E941F02DC01CB015D
:103680008F839887A987BA876F81788589859A857E
:1036900020E030E040E85FE30E94250488232CF41A
:1036A00081E090E09E838D833FC06F81788589851E
:1036B0009A8520E03FEF4FE757E40E94C5031816B4
:1036C0004CF56B857C858D859E8520E030E040E261
:1036D00051E40E941F02DC01CB01BC01CD010E941C
:1036E0004900DC01CB019E838D830FC088EC90E004
:1036F0009C838B838B819C810197F1F79C838B83C7
:103700008D819E8101979E838D838D819E810097FF
:1037100069F714C06F81788589859A850E94490070
:10372000DC01CB019E838D838D819E819A83898369
:1037300089819A810197F1F79A83898382E066E013
:1037400040E00E94F611EF85F8898081882309F016
:1037500072CF60960FB6F894DEBF0FBECDBFCF918B
:10376000DF910895DF93CF93CDB7DEB72A970FB6D9
:10377000F894DEBF0FBECDBF6F83788789879A87A5
:103780001E821D826F81788589859A850E94B30487
:10379000DC01CB019C838B838B819C81AA2797FDC5
:1037A000A095BA2FBC01CD010E9455049B01AC012C
:1037B0006F81788589859A850E94C101DC01CB01E2
:1037C000BC01CD0120E030E048EC52E40E941F0231
:1037D000DC01CB01BC01CD010E94B304DC01CB01B3
:1037E0009A8389838B819C81AA2797FDA095BA2F04
:1037F0002D813E81BC01CD01A9010E9404228D8151
:103800009E810E94041B8EE20E944F1989819A8139
:103810008A3091051CF480E30E944F1989819A81B6
:10382000AA2797FDA095BA2F2D813E81BC01CD011D
:10383000A9010E9404228D819E810E94041B2A9668
:103840000FB6F894DEBF0FBECDBFCF91DF910895C4
:10385000DF93CF93CDB7DEB7E4970FB6F894DEBF12
:103860000FBECDBF80E090E0A0EAB1E489AB9AAB97
:10387000ABABBCAB69A97AA98BA99CA920E030E0CD
:103880004AEF54E40E941F02DC01CB018DA79EA7E2
:10389000AFA7B8AB6DA57EA58FA598A920E030E0B5
:1038A00040E85FE30E94250488232CF481E090E047
:1038B0009CA78BA73FC06DA57EA58FA598A920E0EA
:1038C0003FEF4FE757E40E94C50318164CF569A96E
:1038D0007AA98BA99CA920E030E040E251E40E9443
:1038E0001F02DC01CB01BC01CD010E944900DC01BB
:1038F000CB019CA78BA70FC088EC90E09AA789A763
:1039000089A59AA50197F1F79AA789A78BA59CA5E8
:1039100001979CA78BA78BA59CA5009769F714C05E
:103920006DA57EA58FA598A90E944900DC01CB0159
:103930009CA78BA78BA59CA598A78FA38FA198A5C3
:103940000197F1F798A78FA38CE30E94F81D80E000
:1039500090E0A0EAB0E48BA39CA3ADA3BEA36BA1AF
:103960007CA18DA19EA120E030E04AEF54E40E94AA
:103970001F02DC01CB018F8F98A3A9A3BAA36F8D7F
:1039800078A189A19AA120E030E040E85FE30E949D
:10399000250488232CF481E090E09E8F8D8F3FC01A
:1039A0006F8D78A189A19AA120E03FEF4FE757E4FE
:1039B0000E94C50318164CF56BA17CA18DA19EA198
:1039C00020E030E040E251E40E941F02DC01CB0124
:1039D000BC01CD010E944900DC01CB019E8F8D8F7F
:1039E0000FC088EC90E09C8F8B8F8B8D9C8D019706
:1039F000F1F79C8F8B8F8D8D9E8D01979E8F8D8F74
:103A00008D8D9E8D009769F714C06F8D78A189A167
:103A10009AA10E944900DC01CB019E8F8D8F8D8D74
:103A20009E8D9A8F898F898D9A8D0197F1F79A8F44
:103A3000898F8CE30E94F81D80E090E0A6E1B3E45A
:103A40008D8B9E8BAF8BB88F6D897E898F89988D7A
:103A50002BEA3AEA4AE250E40E941F02DC01CB0161
:103A6000898B9A8BAB8BBC8B69897A898B899C8972
:103A700020E030E040E85FE30E94250488231CF446
:103A800081E0888B91C069897A898B899C8920E043
:103A900030E04FE753E40E94C50318160CF07BC0DA
:103AA0006D897E898F89988D20E030E04AE754E463
:103AB0000E941903DC01CB018C879D87AE87BF87ED
:103AC0006C857D858E859F8520E030E04AEF54E44B
:103AD0000E941F02DC01CB0188879987AA87BB87D8
:103AE000688579858A859B8520E030E040E85FE342
:103AF0000E94250488232CF481E090E09F838E832C
:103B00003FC0688579858A859B8520E03FEF4FE738
:103B100057E40E94C50318164CF56C857D858E858B
:103B20009F8520E030E040E251E40E941F02DC016A
:103B3000CB01BC01CD010E944900DC01CB019F8378
:103B40008E830FC088EC90E09D838C838C819D8157
:103B50000197F1F79D838C838E819F8101979F83CD
:103B60008E838E819F81009769F724C0688579854F
:103B70008A859B850E944900DC01CB019F838E834F
:103B80008E819F819B838A838A819B810197F1F734
:103B90009B838A830FC069897A898B899C890E945B
:103BA0004900DC01CB01888B8889898389818A95CA
:103BB000F1F789838CE30E94F81D81E00E94F81DD3
:103BC00082E00E94F81D86E00E94F81D8CE00E94B1
:103BD000F81D8CE20E94F81D80E80E94F81DE49612
:103BE0000FB6F894DEBF0FBECDBFCF91DF91089521
:103BF000DF93CF93CDB7DEB76D970FB6F894DEBFE6
:103C00000FBECDBF8D8F82E067E040E00E94F611CD
:103C100082E065E040E00E94F6118D8D82958F7004
:103C2000982F917081E060E0492F0E94F6118D8DF0
:103C3000829586958770982F917081E061E0492F79
:103C40000E94F6118D8D8295869586958370982FAA
:103C5000917081E062E0492F0E94F6118D8D982FBE
:103C6000991F9927991F81E063E0492F0E94F6115F
:103C700082E066E041E00E94F61180E090E0A0E082
:103C8000B0E4898F9A8FAB8FBC8F698D7A8D8B8DC5
:103C90009C8D20E030E04AEF54E40E941F02DC01DA
:103CA000CB018D8B9E8BAF8BB88F6D897E898F8971
:103CB000988D20E030E040E85FE30E9425048823EF
:103CC0002CF481E090E09C8B8B8B3FC06D897E89CA
:103CD0008F89988D20E03FEF4FE757E40E94C5039E
:103CE00018164CF5698D7A8D8B8D9C8D20E030E017
:103CF00040E251E40E941F02DC01CB01BC01CD0176
:103D00000E944900DC01CB019C8B8B8B0FC088EC9F
:103D100090E09A8B898B89899A890197F1F79A8B20
:103D2000898B8B899C8901979C8B8B8B8B899C8938
:103D3000009769F714C06D897E898F89988D0E94DC
:103D40004900DC01CB019C8B8B8B8B899C89988BE8
:103D50008F878F8598890197F1F7988B8F8782E0FD
:103D600066E040E00E94F6118D8D982F917081E001
:103D700060E0492F0E94F6118D8D8695982F9170E5
:103D800081E061E0492F0E94F6118D8D8695869520
:103D9000982F917081E062E0492F0E94F6118D8D7D
:103DA000869586958695982F917081E063E0492FDE
:103DB0000E94F61182E066E041E00E94F61180E088
:103DC00090E0A0E0B0E48B879C87AD87BE876B85D1
:103DD0007C858D859E8520E030E04AEF54E40E948A
:103DE0001F02DC01CB018F839887A987BA876F8177
:103DF000788589859A8520E030E040E85FE30E947D
:103E0000250488232CF481E090E09E838D833FC0BD
:103E10006F81788589859A8520E03FEF4FE757E4E9
:103E20000E94C50318164CF56B857C858D859E8593
:103E300020E030E040E251E40E941F02DC01CB01AF
:103E4000BC01CD010E944900DC01CB019E838D8322
:103E50000FC088EC90E09C838B838B819C810197C1
:103E6000F1F79C838B838D819E8101979E838D8347
:103E70008D819E81009769F714C06F81788589854F
:103E80009A850E944900DC01CB019E838D838D8140
:103E90009E819A83898389819A810197F1F79A8318
:103EA000898382E066E040E00E94F6116D960FB6CD
:103EB000F894DEBF0FBECDBFCF91DF910895DF93A1
:103EC000CF93CDB7DEB76D970FB6F894DEBF0FBEB8
:103ED000CDBF8D8F82E067E041E00E94F61182E065
:103EE00065E040E00E94F6118D8D82958F70982FCD
:103EF000917081E060E0492F0E94F6118D8D8295CE
:103F000086958770982F917081E061E0492F0E941B
:103F1000F6118D8D8295869586958370982F917078
:103F200081E062E0492F0E94F6118D8D982F991F34
:103F30009927991F81E063E0492F0E94F61182E0E2
:103F400066E041E00E94F61180E090E0A0E0B0E47D
:103F5000898F9A8FAB8FBC8F698D7A8D8B8D9C8D5D
:103F600020E030E04AEF54E40E941F02DC01CB0164
:103F70008D8B9E8BAF8BB88F6D897E898F89988D45
:103F800020E030E040E85FE30E94250488232CF421
:103F900081E090E09C8B8B8B3FC06D897E898F89FF
:103FA000988D20E03FEF4FE757E40E94C5031816B5
:103FB0004CF5698D7A8D8B8D9C8D20E030E040E250
:103FC00051E40E941F02DC01CB01BC01CD010E9423
:103FD0004900DC01CB019C8B8B8B0FC088EC90E0FF
:103FE0009A8B898B89899A890197F1F79A8B898BAA
:103FF0008B899C8901979C8B8B8B8B899C890097E3
:1040000069F714C06D897E898F89988D0E94490057
:10401000DC01CB019C8B8B8B8B899C89988B8F8748
:104020008F8598890197F1F7988B8F8782E066E0FA
:1040300040E00E94F6118D8D982F917081E060E034
:10404000492F0E94F6118D8D8695982F917081E0F1
:1040500061E0492F0E94F6118D8D86958695982FE7
:10406000917081E062E0492F0E94F6118D8D869556
:1040700086958695982F917081E063E0492F0E9484
:10408000F61182E066E041E00E94F61180E090E0E7
:10409000A0E0B0E48B879C87AD87BE876B857C856D
:1040A0008D859E8520E030E04AEF54E40E941F0297
:1040B000DC01CB018F839887A987BA876F817885C8
:1040C00089859A8520E030E040E85FE30E9425047E
:1040D00088232CF481E090E09E838D833FC06F8124
:1040E000788589859A8520E03FEF4FE757E40E9465
:1040F000C50318164CF56B857C858D859E8520E063
:1041000030E040E251E40E941F02DC01CB01BC011F
:10411000CD010E944900DC01CB019E838D830FC03D
:1041200088EC90E09C838B838B819C810197F1F7D5
:104130009C838B838D819E8101979E838D838D814E
:104140009E81009769F714C06F81788589859A856B
:104150000E944900DC01CB019E838D838D819E816D
:104160009A83898389819A810197F1F79A83898358
:1041700082E066E040E00E94F6116D960FB6F8947A
:10418000DEBF0FBECDBFCF91DF910895DF93CF93F8
:1041900000D0CDB7DEB79A83898382E067E041E043
:1041A0000E94F61182E065E040E00E94F6110BC02B
:1041B000E981FA81208189819A8101969A83898394
:1041C000822F0E945F1FE981FA818081882381F715
:1041D0000F900F90CF91DF910895DF93CF93CDB7DC
:1041E000DEB727970FB6F894DEBF0FBECDBF9B8317
:1041F0008A836C834D8381E089838C81282F30E012
:104200003F832E838E819F818439910561F12E81B8
:104210003F812539310534F48E819F8180389105A5
:1042200061F037C02E813F81203C310589F08E81BD
:104230009F81843D910511F12CC08D8180580E9491
:10424000F81D81E089838A819B810E94C62022C05B
:104250008D8180540E94F81D81E089838A819B8131
:104260000E94C62017C08D818C560E94F81D81E0E7
:1042700089838A819B810E94C6200CC08D818C52CB
:104280000E94F81D81E089838A819B810E94C6205B
:1042900001C01982898127960FB6F894DEBF0FBE40
:1042A000CDBFCF91DF910895DF93CF9300D000D0A1
:1042B0000F92CDB7DEB78A836B8381E089838A81D1
:1042C000282F30E03D832C838C819D81843991059A
:1042D00021F12C813D812539310534F48C819D817A
:1042E0008038910561F027C02C813D81203C31054B
:1042F00069F08C819D81843D9105B1F01CC08B815A
:1043000080580E94F81D81E0898316C08B818054FB
:104310000E94F81D81E089830FC08B818C560E941A
:10432000F81D81E0898308C08B818C520E94F81DA2
:1043300081E0898301C0198289810F900F900F90CD
:104340000F900F90CF91DF910895DF93CF9300D01E
:1043500000D000D0CDB7DEB78A836B834C8381E079
:1043600089838B81282F30E03E832D838D819E8130
:104370008439910551F12D813E812539310534F47F
:104380008D819E818038910561F033C02D813E8101
:10439000203C310581F08D819E81843D9105F9F0AD
:1043A00028C08C8180580E94F81D81E089838A8111
:1043B0000E945F1F1FC08C8180540E94F81D81E005
:1043C00089838A810E945F1F15C08C818C560E9450
:1043D000F81D81E089838A810E945F1F0BC08C8158
:1043E0008C520E94F81D81E089838A810E945F1FA0
:1043F00001C01982898126960FB6F894DEBF0FBEE0
:10440000CDBFCF91DF910895DF93CF93CDB7DEB7C6
:1044100027970FB6F894DEBF0FBECDBF6A837B83AC
:104420008C839D835F834E8381E089838E819F810E
:10443000009711F419822DC08E819F8160E070E099
:104440004BE050E00E9440308DB79EB708970FB602
:10445000F8949EBF0FBE8DBFEDB7FEB731968E812B
:104460009F819183808380E690E0938382838A8119
:104470009B81AC81BD8184839583A683B7830E9491
:1044800047308DB79EB708960FB6F8949EBF0FBE03
:104490008DBF898127960FB6F894DEBF0FBECDBFC2
:1044A000CF91DF910895DF93CF9300D000D0CDB7A7
:1044B000DEB78A837C836B8319828B819C81009712
:1044C00011F4198227C08B819C8160E070E044E088
:1044D00050E00E9440308A81282F30E000D000D088
:1044E00000D0EDB7FEB731968B819C81918380839C
:1044F00080E690E093838283358324830E94473053
:104500008DB79EB706960FB6F8949EBF0FBE8DBFAF
:1045100081E0898389810F900F900F900F90CF9148
:10452000DF910895DF93CF9300D000D00F92CDB7E5
:10453000DEB79B838A837D836C8319828C819D8106
:10454000009711F4198226C08C819D8160E070E093
:1045500048E050E00E94403000D000D000D0EDB7DD
:10456000FEB731968C819D819183808380E690E0B7
:10457000938382838A819B81958384830E944730C1
:104580008DB79EB706960FB6F8949EBF0FBE8DBF2F
:1045900081E0898389810F900F900F900F900F9089
:1045A000CF91DF910895DF93CF93CDB7DEB72C97EE
:1045B0000FB6F894DEBF0FBECDBF9A8789876B8791
:1045C0004C8789859A859E012F5F3F4FB9010E94D4
:1045D0009222CE0101966B854C850E94ED192C9696
:1045E0000FB6F894DEBF0FBECDBFCF91DF91089517
:1045F000DF93CF93CDB7DEB72C970FB6F894DEBF1D
:104600000FBECDBF9A8789876B874C8789859A852E
:104610009E012F5F3F4FB9010E949222CE01019669
:104620006B854C850E94ED202C960FB6F894DEBF6A
:104630000FBECDBFCF91DF910895DF93CF93CDB75C
:10464000DEB7AC970FB6F894DEBF0FBECDBF9CA708
:104650008BA71AA619A618A61FA2EBA5FCA5108267
:104660001AA679C18AA5882F90E0FC01E75BFD4F6F
:10467000908183E0692F41E00E94F61180E090E094
:10468000A8E4B2E48BA39CA3ADA3BEA36BA17CA1C1
:104690008DA19EA12BEA3AEA4AE250E40E941F0251
:1046A000DC01CB018F8F98A3A9A3BAA36F8D78A14A
:1046B00089A19AA120E030E040E85FE30E94250450
:1046C00088231CF481E08E8F91C06F8D78A189A121
:1046D0009AA120E030E04FE753E40E94C50318168A
:1046E0000CF07BC06BA17CA18DA19EA120E030E0ED
:1046F0004AE754E40E941903DC01CB018A8F9B8FA7
:10470000AC8FBD8F6A8D7B8D8C8D9D8D20E030E0D0
:104710004AEF54E40E941F02DC01CB018E8B9F8B79
:10472000A88FB98F6E897F89888D998D20E030E0C0
:1047300040E85FE30E94250488232CF481E090E0A8
:104740009D8B8C8B3FC06E897F89888D998D20E0F1
:104750003FEF4FE757E40E94C50318164CF56A8DEA
:104760007B8D8C8D9D8D20E030E040E251E40E94F5
:104770001F02DC01CB01BC01CD010E944900DC011C
:10478000CB019D8B8C8B0FC088EC90E09B8B8A8B30
:104790008A899B890197F1F79B8B8A8B8C899D89EC
:1047A00001979D8B8C8B8C899D89009769F724C01C
:1047B0006E897F89888D998D0E944900DC01CB012B
:1047C0009D8B8C8B8C899D89998B888B8889998905
:1047D0000197F1F7998B888B0FC06F8D78A189A114
:1047E0009AA10E944900DC01CB018E8F8E8D8F87AC
:1047F0008F858A95F1F78F8719A6A6C089A5882F7E
:1048000090E0FC01EB5BFD4F908180E0692F0E94FE
:104810006F148FA38FA1813009F093C080E090E0E6
:10482000A8E4B2E48B879C87AD87BE876B857C85C7
:104830008D859E8520E030E04AEF54E40E941F02FF
:10484000DC01CB018F839887A987BA876F81788530
:1048500089859A8520E030E040E85FE30E942504E6
:1048600088232CF481E090E09E838D833FC06F818C
:10487000788589859A8520E03FEF4FE757E40E94CD
:10488000C50318164CF56B857C858D859E8520E0CB
:1048900030E040E251E40E941F02DC01CB01BC0188
:1048A000CD010E944900DC01CB019E838D830FC0A6
:1048B00088EC90E09C838B838B819C810197F1F73E
:1048C0009C838B838D819E8101979E838D838D81B7
:1048D0009E81009769F714C06F81788589859A85D4
:1048E0000E944900DC01CB019E838D838D819E81D6
:1048F0009A83898389819A810197F1F79A838983C1
:104900008AA5482F50E08AA5282F30E0CA01880FD9
:10491000991F880F991F820F931FFC01E35BFD4FC6
:104920008081EBA5FCA5808388A5882F90E0FC0101
:10493000E75BFD4F908183E0692F40E00E94F61114
:1049400007C089A58F5F89A789A5843008F456CF51
:104950008AA58F5F8AA78AA5843008F483CEAC9697
:104960000FB6F894DEBF0FBECDBFCF91DF91089593
:10497000DF93CF93CDB7DEB763970FB6F894DEBF62
:104980000FBECDBF9B8B8A8B198A188A1F86EA8936
:10499000FB891082188ABBC08889882F90E0FC01AF
:1049A000EB5BFD4F908180E0692F40E00E94F611A3
:1049B000198AA6C08989882F90E0FC01E75BFD4F2A
:1049C000908183E0692F0E946F148F878F858823E1
:1049D00009F093C080E090E0A8E4B2E48B879C8764
:1049E000AD87BE876B857C858D859E8520E030E018
:1049F0004AEF54E40E941F02DC01CB018F839887A9
:104A0000A987BA876F81788589859A8520E030E00B
:104A100040E85FE30E94250488232CF481E090E0C5
:104A20009E838D833FC06F81788589859A8520E03C
:104A30003FEF4FE757E40E94C50318164CF56B850E
:104A40007C858D859E8520E030E040E251E40E9427
:104A50001F02DC01CB01BC01CD010E944900DC0139
:104A6000CB019E838D830FC088EC90E09C838B8369
:104A70008B819C810197F1F79C838B838D819E8133
:104A800001979E838D838D819E81009769F714C065
:104A90006F81788589859A850E944900DC01CB0168
:104AA0009E838D838D819E819A83898389819A815A
:104AB0000197F1F79A8389838989482F50E0888983
:104AC000282F30E0CA01880F991F880F991F820F85
:104AD000931FFC01E35BFD4F8081EA89FB898083A2
:104AE0008889882F90E0FC01EB5BFD4F908180E08E
:104AF000692F41E00E94F61107C089898F5F898B79
:104B00008989843008F456CF88898F5F888B88899B
:104B1000843008F441CF63960FB6F894DEBF0FBE21
:104B2000CDBFCF91DF910895DF93CF9300D000D018
:104B300000D0CDB7DEB79E838D831C821B821A8284
:104B4000ED81FE81108219821B824CC08B81882FDF
:104B500090E0FC01EB5BFD4F908180E0692F40E02D
:104B60000E94F6111C8229C08C81882F90E0FC01E4
:104B7000E75BFD4F908183E0692F0E946F148A8369
:104B80008A818823B9F481E089838C81482F50E0A1
:104B90008B81282F30E0CA01880F991F880F991F39
:104BA000820F931FFC01E35BFD4F8081ED81FE814D
:104BB000808306C08C818F5F8C838C818430A0F2CF
:104BC0008B81882F90E0FC01EB5BFD4F908180E0B2
:104BD000692F41E00E94F6118981813039F08B8183
:104BE0008F5F8B838B81843008F4B0CF26960FB60D
:104BF000F894DEBF0FBECDBFCF91DF910895DF9354
:104C0000CF9300D000D00F92CDB7DEB79D838C83B9
:104C10001B821A821982EC81FD8110821A8257C090
:104C20008A81882F90E0FC01EB5BFD4F908180E052
:104C3000692F40E00E94F6111B8237C08B81882FBC
:104C400090E0FC01E75BFD4F908183E0692F0E94BB
:104C50006F1489838981882329F50CC08B81882F63
:104C600090E0FC01E75BFD4F908183E0692F0E949B
:104C70006F1489838981882389F78B81482F50E0BD
:104C80008A81282F30E0CA01880F991F880F991F49
:104C9000820F931FFC01E35BFD4F8081EC81FD815E
:104CA000808306C08B818F5F8B838B81843030F251
:104CB0008A81882F90E0FC01EB5BFD4F908180E0C2
:104CC000692F41E00E94F6118A818F5F8A838A8171
:104CD000843008F4A5CF0F900F900F900F900F9095
:104CE000CF91DF910895DF93CF93CDB7DEB72797AC
:104CF0000FB6F894DEBF0FBECDBF9F838E831D829B
:104D00001C821B821A82EE81FF81108219821B8213
:104D10005FC08B81882F90E0FC01EB5BFD4F9081A1
:104D200080E0692F40E00E94F6111C823CC08C811B
:104D3000882F90E0FC01E75BFD4F908183E0692FB5
:104D40000E946F148A838A81882349F581E08D83CC
:104D500081E089830CC08C81882F90E0FC01E75BA7
:104D6000FD4F908183E0692F0E946F148A838A81AE
:104D7000882389F38C81482F50E08B81282F30E0E5
:104D8000CA01880F991F880F991F820F931FFC017A
:104D9000E35BFD4F8081EE81FF81808307C01D8230
:104DA0008C818F5F8C838C81843008F28B81882F7B
:104DB00090E0FC01EB5BFD4F908180E0692F41E0CA
:104DC0000E94F6118981813039F08B818F5F8B834E
:104DD0008B81843008F49DCF8D8127960FB6F8948F
:104DE000DEBF0FBECDBFCF91DF910895DF93CF938C
:104DF00000D0CDB7DEB789836A830E941B1080EA9A
:104E00000E942B108A810E942B1089810E942B10F6
:104E10000E9477100F900F90CF91DF910895DF934C
:104E2000CF93CDB7DEB764970FB6F894DEBF0FBE51
:104E3000CDBF9A8B898B6B8B4C8B188A1F86188AF7
:104E40001F8689C02F85388989899A89FC01E20FDC
:104E5000F31F8081982F90532C898C898F5F8C8BC6
:104E6000892F622F0E94F62680E090E0A8ECB2E441
:104E70008B879C87AD87BE876B857C858D859E855E
:104E800020E030E04AEF54E40E941F02DC01CB0135
:104E90008F839887A987BA876F81788589859A8556
:104EA00020E030E040E85FE30E94250488232CF4F2
:104EB00081E090E09E838D833FC06F8178858985F6
:104EC0009A8520E03FEF4FE757E40E94C50318168C
:104ED0004CF56B857C858D859E8520E030E040E239
:104EE00051E40E941F02DC01CB01BC01CD010E94F4
:104EF0004900DC01CB019E838D830FC088EC90E0DC
:104F00009C838B838B819C810197F1F79C838B839E
:104F10008D819E8101979E838D838D819E810097D7
:104F200069F714C06F81788589859A850E94490048
:104F3000DC01CB019E838D838D819E819A83898341
:104F400089819A810197F1F79A8389838F8598895E
:104F50000196988B8F878B89282F30E08F859889D1
:104F6000821793070CF46ECF64960FB6F894DEBFE9
:104F70000FBECDBFCF91DF910895DF93CF9300D0C7
:104F800000D000D0CDB7DEB79C838B836D834E837A
:104F90001A8219821A82198213C099818E81492F2F
:104FA000480F29813A818B819C81280F391F842FDA
:104FB000B9010E94F12789819A8101969A83898398
:104FC0008D81282F30E089819A81821793072CF3F5
:104FD00026960FB6F894DEBF0FBECDBFCF91DF91FE
:104FE0000895DF93CF9300D00F92CDB7DEB78983BA
:104FF0007B836A830E941B1080EA0E942B108981A8
:105000000E942B100E941B1081EA0E942B100E940C
:105010005310EA81FB8180830E9477100F900F90DC
:105020000F90CF91DF910895DF93CF93CDB7DEB787
:105030000E946A150E9481150E94A72E0E94281CBA
:1050400080E090E00E94F10E80E090E00E94FB0F73
:1050500080E090E060E070E040E050E00E940509F0
:105060000E94961524EA32E08FEFB9010E94F127E1
:105070000E944B2B83E992E00E9473268093B40236
:105080008091B402813009F096C08091A502909180
:10509000A602009749F40E94C72D81E090E090930A
:1050A000A6028093A502E6CF8091A5029091A60268
:1050B00081309105F9F68091A7029091A802813084
:1050C0009105D9F480915D02843031F481E00E9431
:1050D000A52C80935D02CECF80915D02863051F683
:1050E00082E00E94A52C80935D0280915D02873052
:1050F00009F68AE080935D02BDCF8091A70290916E
:10510000A80282309105E1F580915D02843031F48E
:1051100081E00E94A52C80935D02ACCF80915D025E
:10512000863069F482E00E94A52C80935D02809114
:105130005D02873009F09ECF0E94732C9BCF809137
:105140005D02873009F096CF0E94122D80935D0298
:1051500080915D02893009F08DCF1092A8021092E3
:10516000A7021092A6021092A5021092930284E068
:1051700080935D0281E00E94F81D0E944B2B7ACF44
:105180008091A7029091A8028330910509F072CF17
:1051900080915D02843029F40E94BF2F80935D02CC
:1051A00069CF80915D028C3009F064CF0E94E22EBD
:1051B00080935D025FCF8091B402882309F05ACFBB
:1051C00080915D028A3009F055CF0E94000852CFCD
:1051D000DF93CF93CDB7DEB765970FB6F894DEBFF8
:1051E0000FBECDBF1D8A85E090E09C8B8B8B1A8A09
:1051F000198A58C085E090E09C8B8B8B188A1F869B
:105200002DC089899A89880F991F880F991F880F47
:10521000991F982F8F85492F480F8F8598899C015A
:1052200024563D4F842FB9010E94F1278F8598891C
:10523000FC01E856FD4F20818F859889FC01E456DA
:10524000FD4F8081281729F084E090E09C8B8B8BA8
:105250000AC08F8598890196988B8F878F8598894A
:105260008430910574F28B899C8985309105A9F46D
:1052700086E090E09C8B8B8B0E948C2B1092AE0270
:105280001092AD0289899A89880F991F880F991FFA
:10529000880F991F8093B3020FC089899A8901965C
:1052A0009A8B898B8091A402282F30E089899A8972
:1052B000821793070CF49ECF8B899C8984309105CB
:1052C00009F085C08091AD029091AE020196909355
:1052D000AE028093AD0284E090E09C8B8B8B80913A
:1052E000AD029091AE020E94852C80E090E0AAE78A
:1052F000B4E48B879C87AD87BE876B857C858D8565
:105300009E8520E030E04AEF54E40E941F02DC0159
:10531000CB018F839887A987BA876F817885898524
:105320009A8520E030E040E85FE30E94250488236E
:105330002CF481E090E09E838D833FC06F8178855F
:1053400089859A8520E03FEF4FE757E40E94C50327
:1053500018164CF56B857C858D859E8520E030E0A8
:1053600040E251E40E941F02DC01CB01BC01CD01EF
:105370000E944900DC01CB019E838D830FC088EC25
:1053800090E09C838B838B819C810197F1F79C83B8
:105390008B838D819E8101979E838D838D819E81DC
:1053A000009769F714C06F81788589859A850E9476
:1053B0004900DC01CB019E838D838D819E819A8380
:1053C000898389819A810197F1F79A8389838091F2
:1053D000AD029091AE0283309105F1F41092A602D5
:1053E0001092A50288E992E060E070E044E050E0AD
:1053F0000E94403080EA92E060E070E044E050E0DB
:105400000E94403084E080935D020E944B2B1092FA
:10541000AE021092AD0219C08091AD029091AE0221
:10542000009799F08091AD029091AE028330910582
:1054300061F081E00E94F81D0E947A2B84E0809345
:105440005D0284E090E09C8B8B8B8B8965960FB618
:10545000F894DEBF0FBECDBFCF91DF910895DF93EB
:10546000CF93CDB7DEB762970FB6F894DEBF0FBE0D
:10547000CDBF88E090E09A8B898B188A1F86A9C0DF
:105480009F858091B302890F482F4C5F8F85988943
:105490009C0124563D4F842FB9010E94F1278F852E
:1054A0009889FC01E056FD4F20818F859889FC0189
:1054B000E456FD4F8081281709F486C08091AF0221
:1054C0009091B00201969093B0028093AF0286E073
:1054D00090E09A8B898B8091AF029091B0020E94EC
:1054E000532C80E090E0AAE7B4E48B879C87AD87DB
:1054F000BE876B857C858D859E8520E030E04AEFF8
:1055000054E40E941F02DC01CB018F839887A98796
:10551000BA876F81788589859A8520E030E040E8F8
:105520005FE30E94250488232CF481E090E09E83B1
:105530008D833FC06F81788589859A8520E03FEF14
:105540004FE757E40E94C50318164CF56B857C8520
:105550008D859E8520E030E040E251E40E941F02EC
:10556000DC01CB01BC01CD010E944900DC01CB0173
:105570009E838D830FC088EC90E09C838B838B810E
:105580009C810197F1F79C838B838D819E8101978C
:105590009E838D838D819E81009769F720C06F81E6
:1055A000788589859A850E944900DC01CB019E831C
:1055B0008D838D819E819A83898389819A810197C8
:1055C000F1F79A8389830BC08F8598890196988B10
:1055D0008F878F859889843091050CF451CF898904
:1055E0009A898830910569F483E690E00E94C6208C
:1055F0001092B0021092AF0287E090E09A8B898BF4
:1056000040C08091AF029091B0028330910519F5AE
:105610001092A6021092A50288E992E060E070E084
:1056200044E050E00E94403080EA92E060E070E0A8
:1056300044E050E00E944030109294021092960292
:1056400084E090E09A8B898B1092B0021092AF02A6
:105650000E944B2B16C08091AF029091B002009730
:1056600081F08091AF029091B0028330910549F0B2
:1056700081E00E94F81D0E948C2B86E090E09A8BBE
:10568000898B898962960FB6F894DEBF0FBECDBFB5
:10569000CF91DF910895DF93CF93CDB7DEB781E04F
:1056A0000E94F81D8DE690E060EC40E00E94ED2045
:1056B00089E790E060EC4CE00E94ED208FE790E0FD
:1056C00060E840E00E94ED20CF91DF910895DF93E4
:1056D000CF93CDB7DEB78EE890E064E040E00E9463
:1056E0000F278EE890E064E044E00E940F27CF91FE
:1056F000DF910895DF93CF93CDB7DEB781E00E94AD
:10570000F81D83E990E00E94C62080EC60E00E94D2
:105710005421CF91DF910895DF93CF93CDB7DEB7BA
:1057200081E00E94F81D8EE990E00E94C62080EC86
:1057300060E00E945421CF91DF910895DF93CF93D1
:10574000CDB7DEB72E970FB6F894DEBF0FBECDBF34
:1057500081E00E94F81D8DEA90E060E841E00E943F
:10576000ED208CEB90E060EC41E00E94ED2080E0C9
:1057700090E0AAE7B4E48B879C87AD87BE876B85F2
:105780007C858D859E8520E030E04AEF54E40E94C0
:105790001F02DC01CB018F839887A987BA876F81AD
:1057A000788589859A8520E030E040E85FE30E94B3
:1057B000250488232CF481E090E09E838D833FC0F4
:1057C0006F81788589859A8520E03FEF4FE757E420
:1057D0000E94C50318164CF56B857C858D859E85CA
:1057E00020E030E040E251E40E941F02DC01CB01E6
:1057F000BC01CD010E944900DC01CB019E838D8359
:105800000FC088EC90E09C838B838B819C810197F7
:10581000F1F79C838B838D819E8101979E838D837D
:105820008D819E81009769F714C06F817885898585
:105830009A850E944900DC01CB019E838D838D8176
:105840009E819A83898389819A810197F1F79A834E
:10585000898381E00E94F81D8BEC90E060E840E0D5
:105860000E94ED2080EC60E00E9454212E960FB63D
:10587000F894DEBF0FBECDBFCF91DF910895DF93C7
:10588000CF93CDB7DEB781E00E94F81D8BEC90E09E
:1058900060E843E00E94ED2080EC60E00E9454212B
:1058A000CF91DF910895DF93CF930F92CDB7DEB7FD
:1058B000898387ED90E00E94C62082EE90E060EC44
:1058C00040E00E94ED208981805D60EC48E00E940C
:1058D000A52189EE90E060EC4AE00E94ED200F9057
:1058E000CF91DF910895DF93CF93CDB7DEB781E0FD
:1058F0000E94F81D82EF90E00E94C62080EC60E0DC
:105900000E945421CF91DF910895DF93CF930F929E
:10591000CDB7DEB7898381E091E00E94C62082EE98
:1059200090E060EC40E00E94ED208981805D60ECB9
:1059300048E00E94A52189EE90E060EC4AE00E94D8
:10594000ED200F90CF91DF910895DF93CF9300D09A
:1059500000D0CDB7DEB78A8384E089838A81282F7F
:1059600030E03C832B838B819C818130910531F029
:105970002B813C812230310511F145C08091940288
:10598000282F30E0809193028053F901E856FD4FB3
:105990008083809193020E945F1F809194028F5FA9
:1059A0008093940280919402843069F5109294025D
:1059B00081E00E94F81D0E94E828898324C080911C
:1059C0009602282F30E0809193028053F901E0562F
:1059D000FD4F8083809193020E945F1F8091960209
:1059E0008F5F8093960286E089838091960284304F
:1059F00051F487E089831092960281E00E94F81D9D
:105A00000E942F2A898389810F900F900F900F9009
:105A1000CF91DF910895DF93CF93CDB7DEB7CF91CC
:105A2000DF910895DF93CF93CDB7DEB72F970FB6F1
:105A3000F894DEBF0FBECDBF87E08F8780919302C1
:105A40000E945F1F80919502882F90E02091930221
:105A5000FC01E056FD4F2083809195028F5F80937B
:105A6000950280919502843009F087C081E00E9400
:105A7000F81D8091B302282F2C5F80EA92E064E049
:105A8000422F0E940F278CE091E00E94C62080E008
:105A900090E0AAE7B4E48B879C87AD87BE876B85CF
:105AA0007C858D859E8520E030E04AEF54E40E949D
:105AB0001F02DC01CB018F839887A987BA876F818A
:105AC000788589859A8520E030E040E85FE30E9490
:105AD000250488232CF481E090E09E838D833FC0D1
