:100000000C942A000C94A0100C94CD100C94FA10AF
:100010000C9447000C9447000C9447000C94470044
:100020000C9447000C9447000C94C40E0C944700A9
:100030000C9447000C94FC090C94290A0C94560A61
:100040000C9447000C9447000C9447000C94D70F75
:100050000C94470011241FBECFE5D8E0DEBFCDBF12
:1000600012E0A0E6B0E0EAECF7E602C005900D92DF
:10007000AC3DB107D9F713E0ACEDB2E001C01D9281
:10008000A433B107E1F70E9439240C94E3330C94B4
:100090000000EF92FF920F931F937B018C0120E0F1
:1000A00030E040E05FE40E94F50388238CF0C80153
:1000B000B70120E030E040E05FE40E94C1010E940F
:1000C000B3049B01AC01205030404040504806C072
:1000D000C801B7010E94B3049B01AC01B901CA0178
:1000E0001F910F91FF90EF900895A0E0B0E0EBE733
:1000F000F0E00C940431DC012B01FA019C91923068
:1001000008F439C1EB018881823008F433C194309E
:1001100069F4843009F02FC111969C91119789815F
:10012000981709F428C1AAEBB1E025C1843009F47D
:1001300021C18230A9F4923009F01DC19A01AD01AC
:1001400088E0EA010990AE01E90109929E0181501F
:10015000C1F7E201898111969C918923818308C1AD
:10016000923009F407C112962D903C901397EB0141
:100170008A819B811496AD90BD90CD90DC901797AD
:10018000EC80FD800E811F819101281B390BB90184
:1001900037FF04C066277727621B730B6032710537
:1001A0000CF061C0121613066CF537014801062EDB
:1001B00004C096948794779467940A94D2F721E0C8
:1001C00030E040E050E004C0220F331F441F551FB1
:1001D0006A95D2F721503040404050402E213F21B7
:1001E00040235123211531054105510521F021E01E
:1001F00030E040E050E079018A01E628F72808293C
:1002000019293CC0232BD1F1260E371E350146019A
:10021000062E04C096948794779467940A94D2F734
:1002200021E030E040E050E004C0220F331F441FC3
:10023000551F6A95D2F721503040404050402A2146
:100240003B214C215D21211531054105510521F04E
:1002500021E030E040E050E059016A01A628B728CB
:10026000C828D9280BC0821593052CF01C01AA249C
:10027000BB24650103C0EE24FF24870111969C91E5
:10028000D20111968C91981709F445C0992339F041
:10029000A80197012A193B094C095D0906C0A6016E
:1002A00095012E193F09400B510B57FD08C01182D3
:1002B0003382228224833583468357831DC081E0A5
:1002C00081833382228288279927DC01821B930B4A
:1002D000A40BB50B84839583A683B7830DC0220F2F
:1002E000331F441F551F24833583468357838281E0
:1002F000938101979383828324813581468157813D
:10030000DA01C9010197A109B1098F5F9F4FAF4F72
:10031000BF4328F30BC0918333822282EA0CFB1C7B
:100320000C1D1D1DE482F5820683178383E0808304
:10033000248135814681578157FF1AC0C901AA27F8
:1003400097FDA095BA2F81709070A070B0705695EF
:10035000479537952795822B932BA42BB52B848318
:100360009583A683B7838281938101969383828349
:10037000DF0101C0D201CD01CDB7DEB7E2E10C94BF
:100380002031A0E2B0E0E7ECF1E00C941031698399
:100390007A838B839C832D833E834F835887E9E048
:1003A000EE2EF12CEC0EFD1ECE010196B7010E943F
:1003B000A4068E010F5E1F4FCE010596B8010E9464
:1003C000A4068A8991E089278A8BC701B801AE010A
:1003D000475E5F4F0E9475000E94CF05A096E6E041
:1003E0000C942C31A0E2B0E0E8EFF1E00C94103175
:1003F00069837A838B839C832D833E834F835887C5
:10040000F9E0EF2EF12CEC0EFD1ECE010196B701A6
:100410000E94A4068E010F5E1F4FCE010596B80103
:100420000E94A406C701B801AE01475E5F4F0E945B
:1004300075000E94CF05A096E6E00C942C31A0E256
:10044000B0E0E5E2F2E00C94043169837A838B83B7
:100450009C832D833E834F835887CE010196BE0136
:10046000675F7F4F0E94A406CE010596BE016F5EB6
:100470007F4F0E94A4069985923088F08989823046
:10048000C8F0943019F4823051F404C0843029F457
:10049000923081F48AEB91E0C6C0923049F420E0BA
:1004A0009A858A89981321E02A87CE010996BBC0D4
:1004B000823049F420E09A858A89981321E02A8BBA
:1004C000CE014196B0C02D843E844F8458886D88FB
:1004D0007E888F88988CEE24FF248701AA24BB2471
:1004E000650140E050E060E070E0E0E0F0E0C10174
:1004F00081709070892BE9F0E60CF71C081D191D1E
:100500009A01AB012A0D3B1D4C1D5D1D80E090E062
:10051000A0E0B0E0E614F7040805190520F481E036
:1005200090E0A0E0B0E0BA01A901480F591F6A1F8E
:100530007B1FAA0CBB1CCC1CDD1C97FE08C081E0F5
:1005400090E0A0E0B0E0A82AB92ACA2ADB2A3196B6
:10055000E032F10549F0660C771C881C991C569412
:10056000479437942794C3CFFA85EA892B893C892D
:100570008B859C85280F391F2E5F3F4F17C0CA01FE
:1005800081709070892B61F016950795F794E79428
:1005900080E090E0A0E0B0E8E82AF92A0A2B1B2BC3
:1005A00076956795579547952F5F3F4F77FDE7CF36
:1005B0000CC0440F551F661F771F17FD4160EE0CDE
:1005C000FF1C001F111F21503040403090E05907A0
:1005D00090E0690790E4790760F32B8F3C8FDB0193
:1005E000CA018F779070A070B07080349105A1051A
:1005F000B10561F447FD0AC0E114F10401051105DC
:1006000029F0405C5F4F6F4F7F4F40781A8EFE1786
:1006100011F081E08A8F4D8F5E8F6F8F78A383E01A
:10062000898FCE0149960E94CF05A096E2E10C94F5
:100630002031A8E1B0E0EFE1F3E00C940C316983E4
:100640007A838B839C832D833E834F835887B9E0C5
:10065000EB2EF12CEC0EFD1ECE010196B7010E948F
:10066000A4068E010F5E1F4FCE010596B8010E94B1
:10067000A4062985223008F47EC03989323010F46E
:10068000B8017CC08A859A8989278A87243011F02D
:10069000223031F4231709F06EC06AEB71E06EC0AE
:1006A000343039F41D861E861F86188A1C861B86E8
:1006B00004C0323021F484E08987B7015FC02B8504
:1006C0003C858B899C89281B390B3C872B87ED84C3
:1006D000FE840F851889AD88BE88CF88D88CEA142F
:1006E000FB040C051D0540F4EE0CFF1C001F111F40
:1006F000215030403C872B8720E030E040E050E044
:1007000080E090E0A0E0B0E460E070E0EA14FB0478
:100710000C051D0540F0282B392B4A2B5B2BEA18C2
:10072000FB080C091D09B695A79597958795EE0CC2
:10073000FF1C001F111F6F5F7F4F6F31710531F775
:10074000DA01C9018F779070A070B0708034910584
:10075000A105B10561F427FD0AC0E114F10401050A
:10076000110529F0205C3F4F4F4F5F4F20782D87B8
:100770003E874F87588BBE01675F7F4FCB010E943A
:10078000CF056896EAE00C942831A8E1B0E0EBECE4
:10079000F3E00C94103169837A838B839C832D83DF
:1007A0003E834F83588789E0E82EF12CEC0EFD1E26
:1007B000CE010196B7010E94A4068E010F5E1F4F65
:1007C000CE010596B8010E94A4068985823040F0CA
:1007D0008989823028F0C701B8010E941C0701C036
:1007E0008FEF6896E6E00C942C31A8E1B0E0EBEFD7
:1007F000F3E00C94103169837A838B839C832D837F
:100800003E834F83588789E0E82EF12CEC0EFD1EC5
:10081000CE010196B7010E94A4068E010F5E1F4F04
:10082000CE010596B8010E94A4068985823040F069
:100830008989823028F0C701B8010E941C0701C0D5
:100840008FEF6896E6E00C942C31A8E1B0E0EBE283
:10085000F4E00C94103169837A838B839C832D831D
:100860003E834F83588789E0E82EF12CEC0EFD1E65
:10087000CE010196B7010E94A4068E010F5E1F4FA4
:10088000CE010596B8010E94A4068985823040F009
:100890008989823028F0C701B8010E941C0701C075
:1008A00081E06896E6E00C942C31A8E0B0E0EBE53E
:1008B000F4E00C940D319B01AC0183E08983DA01F3
:1008C000C9018827B7FD83959927AA27BB27B82E8A
:1008D000211531054105510519F482E089833AC09B
:1008E0008823A9F0203080E0380780E0480780E8BE
:1008F000580729F460E070E080E09FEC30C0EE24FF
:10090000FF248701E21AF30A040B150B02C07901D8
:100910008A018EE1C82ED12CDC82CB82ED82FE8250
:100920000F831887C801B7010E9480050197181628
:10093000190684F4082E04C0EE0CFF1C001F111FC2
:100940000A94D2F7ED82FE820F831887C81AD90A5B
:10095000DC82CB82BA82CE0101960E94CF05289616
:10096000E9E00C942931ACE0B0E0E9EBF4E00C9460
:10097000143169837A838B839C83CE010196BE01F7
:100980006B5F7F4F0E94A4068D81823061F18230BF
:1009900050F1843021F48E81882351F12EC02F81B3
:1009A000388537FD20C06E812F3131051CF066235C
:1009B000F9F023C08EE190E0821B930B29853A85E4
:1009C0004B855C8504C056954795379527958A9544
:1009D000D2F76623B1F050954095309521953F4F61
:1009E0004F4F5F4F0EC020E030E040E050E009C0C4
:1009F0002FEF3FEF4FEF5FE704C020E030E040E033
:100A000050E8B901CA012C96E2E00C943031A8E01C
:100A1000B0E0EDE0F5E00C940C317B018C01611548
:100A200071058105910519F482E0898360C083E036
:100A300089838EE1C82ED12CDC82CB82ED82FE82AE
:100A40000F831887C801B7010E948005FC01319708
:100A5000F7FF3BC0222733272E1B3F0B57016801AE
:100A6000022E04C0D694C794B794A7940A94D2F7E0
:100A700040E050E060E070E081E090E0A0E0B0E0B5
:100A800004C0880F991FAA1FBB1F2A95D2F7019790
:100A9000A109B1098E219F21A023B1230097A105AF
:100AA000B10521F041E050E060E070E04A295B29A7
:100AB0006C297D294D835E836F8378878EE190E07A
:100AC0008E1B9F0B9C838B8312C0309781F00E2E60
:100AD00004C0EE0CFF1C001F111F0A94D2F7ED8218
:100AE000FE820F831887CE1ADF0ADC82CB821A823D
:100AF000CE0101960E94CF052896EAE00C94283199
:100B0000EF92FF920F931F937B018C0180E0E81618
:100B100080E0F80681E0080780E0180788F48FEF8E
:100B2000E816F1040105110531F028F088E090E0A5
:100B3000A0E0B0E017C080E090E0A0E0B0E012C01C
:100B400080E0E81680E0F80680E0080781E01807FA
:100B500028F088E190E0A0E0B0E004C080E190E0FF
:100B6000A0E0B0E020E230E040E050E0281B390B8C
:100B70004A0B5B0B04C016950795F794E7948A958A
:100B8000D2F7F701EE53FE4F8081281B310941094E
:100B90005109C9011F910F91FF90EF900895DF92C5
:100BA000EF92FF920F931F93FC01E480F580068182
:100BB0001781D1808081823048F480E090E0A0E10C
:100BC000B0E0E82AF92A0A2B1B2BA5C0843009F4CF
:100BD0009FC0823021F4EE24FF24870105C0E11478
:100BE000F1040105110519F4E0E0F0E096C062811E
:100BF00073819FEF623879070CF05BC022E83FEF0A
:100C0000261B370B2A3131052CF020E030E040E084
:100C100050E02AC0B801A701022E04C0769567955E
:100C2000579547950A94D2F781E090E0A0E0B0E0B4
:100C300004C0880F991FAA1FBB1F2A95D2F70197DE
:100C4000A109B1098E219F21A023B1230097A105FD
:100C5000B10521F081E090E0A0E0B0E09A01AB01A5
:100C6000282B392B4A2B5B2BDA01C9018F77907027
:100C7000A070B07080349105A105B10539F427FF4B
:100C800009C0205C3F4F4F4F5F4F04C0215C3F4F76
:100C90004F4F5F4FE0E0F0E02030A0E03A07A0E0E7
:100CA0004A07A0E45A0710F0E1E0F0E079018A0178
:100CB00027C06038710564F5FB01E158FF4FD8018A
:100CC000C7018F779070A070B07080349105A10536
:100CD000B10539F4E7FE0DC080E490E0A0E0B0E09B
:100CE00004C08FE390E0A0E0B0E0E80EF91E0A1F18
:100CF0001B1F17FF05C016950795F794E7943196CB
:100D000087E016950795F794E7948A95D1F705C083
:100D1000EE24FF248701EFEFF0E06E2F6795662742
:100D20006795902F9F77D794DD24D7948E2F869543
:100D3000492F462B582F5D29B701CA011F910F91EA
:100D4000FF90EF90DF900895FC01DB01408151811D
:100D50002281622F6F7770E0221F2227221F93814A
:100D6000892F880F822B282F30E0991F9927991FF0
:100D700011969C93119721153105A9F5411551053F
:100D80006105710511F482E037C082E89FEF139688
:100D90009C938E9312979A01AB0167E0220F331F49
:100DA000441F551F6A95D1F783E08C930DC0220F25
:100DB000331F441F551F12968D919C9113970197D5
:100DC00013969C938E931297203080E0380780E032
:100DD000480780E4580758F314962D933D934D939C
:100DE0005C93179708952F3F310579F4411551050C
:100DF0006105710519F484E08C93089564FF03C0C4
:100E000081E08C9312C01C9210C02F573040139673
:100E10003C932E93129783E08C9387E0440F551FE9
:100E2000661F771F8A95D1F7706414964D935D9372
:100E30006D937C93179708951F93DC01FB019C91A0
:100E4000923008F447C08081823008F443C0943067
:100E500051F411961C91843099F58181682F70E0CE
:100E6000611B71093FC0843021F0923031F482302F
:100E7000B9F18181882389F12DC011961C911197B8
:100E80008230F1F081811817D9F412962D913C919E
:100E90001397828193818217930794F0281739075B
:100EA000BCF014968D919D910D90BC91A02D248144
:100EB000358146815781281739074A075B0718F49F
:100EC000112341F00AC082179307A407B50740F425
:100ED000112319F061E070E005C06FEF7FEF02C0F1
:100EE00060E070E0CB011F910895DF93CF93CDB701
:100EF000DEB727970FB6F894DEBF0FBECDBF8A834B
:100F00007C836B834D833F832E8319828A81282FB4
:100F100030E0C901880F991F880F991F880F991F0A
:100F2000821B930BFC01E452FD4F8081918100975D
:100F300019F083E089835AC08A81282F30E0C901E3
:100F4000880F991F880F991F880F991F821B930B79
:100F5000FC01E152FD4F8B819C81918380838A81CA
:100F6000282F30E0C901880F991F880F991F880F1B
:100F7000991F821B930BFC01E452FD4F8E819F81D0
:100F8000918380838A81282F30E0C901880F991FBF
:100F9000880F991F880F991F821B930BFC01E25247
:100FA000FD4F8A8180838A81282F30E0C901880F14
:100FB000991F880F991F880F991F821B930BFC01A3
:100FC000EE51FD4F8D8180838A81282F30E0C90149
:100FD000880F991F880F991F880F991F821B930BE9
:100FE000FC01EF51FD4F108281E0898389812796B2
:100FF0000FB6F894DEBF0FBECDBFCF91DF9108953D
:10100000DF93CF93CDB7DEB784E698E00E94B20EAF
:10101000AFE5B0E0EFE5F0E0808180688C930E945E
:10102000590ECF91DF910895DF93CF930F92CDB7F3
:10103000DEB789838981282F30E0C901880F991F85
:10104000880F991F880F991F821B930BFC01EF518A
:10105000FD4F81E080830F90CF91DF910895DF9362
:10106000CF930F92CDB7DEB789838981282F30E0E7
:10107000C901880F991F880F991F880F991F821B1C
:10108000930BFC01EF51FD4F10820F90CF91DF9138
:101090000895DF93CF930F92CDB7DEB7898389810F
:1010A000282F30E0C901880F991F880F991F880FDA
:1010B000991F821B930BFC01E452FD4F1182108299
:1010C0000F90CF91DF910895DF93CF930F92CDB71B
:1010D000DEB71982198291C08981282F30E0C901B9
:1010E000880F991F880F991F880F991F821B930BD8
:1010F000FC01EF51FD4F8081882309F07BC089817D
:10110000282F30E0C901880F991F880F991F880F79
:10111000991F821B930BFC01E452FD4F808191814A
:10112000009709F467C08981282F30E0C901880F32
:10113000991F880F991F880F991F821B930BFC0121
:10114000EE51FD4F80818823B1F58981282F30E051
:10115000C901880F991F880F991F880F991F821B3B
:10116000930BFC01E452FD4F0190F081E02D0995B5
:101170008981482F50E08981282F30E0C901880FEC
:10118000991F880F991F880F991F821B930BFC01D1
:10119000E152FD4F80819181282FCA01880F991F4C
:1011A000880F991F880F991F841B950BFC01EE5126
:1011B000FD4F20831FC08981282F30E0C901880F8F
:1011C000991F880F991F880F991F821B930BFC0191
:1011D000EE51FD4F8081482F4150C901880F991F62
:1011E000880F991F880F991F821B930BFC01EE51EA
:1011F000FD4F408389818F5F89838981853008F421
:101200006BCF0F90CF91DF910895DF93CF93CDB740
:10121000DEB729970FB6F894DEBF0FBECDBF9D8312
:101220008C837F836E83598748871B821A82198239
:1012300083E390E09B838A838A819B810E94E509F6
:10124000AAE2B0E0EAE2F0E08081877F8C93AAE234
:10125000B0E0EAE2F0E0808180618C93898180686F
:10126000898389818F7B89838981877F898389812C
:101270008F7E898389818F7D89838981826089833B
:10128000898184608983AAE2B0E0EAE2F0E08081AB
:101290008B7F8C93E0E4F0E089818083AFE5B0E060
:1012A000EFE5F0E080818F778C93ABE2B0E0EBE28A
:1012B000F0E0808180648C93AAE2B0E0EAE2F0E0A2
:1012C00080818F7B8C93ABE2B0E0EBE2F0E0808139
:1012D00080648C93AAE2B0E0EAE2F0E080818F774C
:1012E0008C93ABE2B0E0EBE2F0E0808180628C9323
:1012F000AAE2B0E0EAE2F0E080818F7D8C9329964B
:101300000FB6F894DEBF0FBECDBFCF91DF91089529
:10131000DF93CF930F92CDB7DEB78983EBE2F0E096
:101320008081829586958770882F90E0817090707B
:101330000097A1F3ECE2F0E0898180830F90CF91D8
:10134000DF910895DF93CF9300D0CDB7DEB79A83B6
:1013500089830BC0E981FA81208189819A81019674
:101360009A838983822F0E948809E981FA8180818A
:10137000882381F70F900F90CF91DF910895DF932D
:10138000CF93CDB7DEB7EBE2F0E080818823DCF7C6
:10139000ECE2F0E08081CF91DF910895DF93CF936D
:1013A0000F92CDB7DEB7EBE2F0E08081881F88278F
:1013B000881F813031F4ECE2F0E0808189838981FB
:1013C00000C00F90CF91DF910895DF93CF9300D0AD
:1013D000CDB7DEB79A838983E0E4F0E089819A8112
:1013E000892F99278083E9E2F0E0898180830F903B
:1013F0000F90CF91DF9108951F920F920FB60F9229
:1014000011242F933F934F935F936F937F938F9309
:101410009F93AF93BF93EF93FF93DF93CF93CDB79A
:10142000DEB7E091FF02F09100030995CF91DF91C3
:10143000FF91EF91BF91AF919F918F917F916F91AC
:101440005F914F913F912F910F900FBE0F901F9082
:1014500018951F920F920FB60F9211242F933F935E
:101460004F935F936F937F938F939F93AF93BF93AC
:10147000EF93FF93DF93CF93CDB7DEB7E0910103F6
:10148000F09102030995CF91DF91FF91EF91BF9108
:10149000AF919F918F917F916F915F914F913F910C
:1014A0002F910F900FBE0F901F9018951F920F92C3
:1014B0000FB60F9211242F933F934F935F936F9327
:1014C0007F938F939F93AF93BF93EF93FF93DF939C
:1014D000CF93CDB7DEB7E0910303F09104030995F4
:1014E000CF91DF91FF91EF91BF91AF919F918F913C
:1014F0007F916F915F914F913F912F910F900FBE10
:101500000F901F901895DF93CF9300D00F92CDB717
:10151000DEB789836A834B8389810E94A20A8A810C
:101520000E94660B8B810E94A30C0F900F900F906E
:10153000CF91DF910895DF93CF93CDB7DEB7CF91F1
:10154000DF910895DF93CF9300D00F92CDB7DEB730
:1015500089838981282F30E03B832A838A819B817C
:101560008230910509F456C02A813B812330310530
:1015700064F48A819B81009709F486C02A813B81AB
:101580002130310509F463C09BC08A819B8183307F
:10159000910531F02A813B8124303105F1F090C072
:1015A000AFE4B0E0EFE4F0E080818E7F8C93AFE4B5
:1015B000B0E0EFE4F0E080818D7F8C93AEE4B0E0AA
:1015C000EEE4F0E0808188608C93AEE4B0E0EEE47D
:1015D000F0E0808180618C9373C0AFE4B0E0EFE411
:1015E000F0E080818E7F8C93AFE4B0E0EFE4F0E038
:1015F00080818D7F8C93AEE4B0E0EEE4F0E08081FA
:1016000088608C93AEE4B0E0EEE4F0E080818F7E01
:101610008C9356C0AFE4B0E0EFE4F0E080818160ED
:101620008C93AFE4B0E0EFE4F0E0808182608C93D3
:10163000AEE4B0E0EEE4F0E0808188608C93AEE44C
:10164000B0E0EEE4F0E0808180618C9339C0AFE4DB
:10165000B0E0EFE4F0E080818E7F8C93AFE4B0E007
:10166000EFE4F0E0808182608C93AEE4B0E0EEE4E1
:10167000F0E0808188608C93AEE4B0E0EEE4F0E0CE
:10168000808180618C931CC0AFE4B0E0EFE4F0E0B7
:1016900080818E7F8C93AFE4B0E0EFE4F0E0808156
:1016A0008D7F8C93AEE4B0E0EEE4F0E08081877F44
:1016B0008C93AEE4B0E0EEE4F0E080818F7E8C931A
:1016C0000F900F900F90CF91DF910895DF93CF93FC
:1016D00000D00F92CDB7DEB789838981282F30E003
:1016E0003B832A838A819B818630910509F454C00B
:1016F0002A813B812730310524F58A819B81823004
:10170000910509F485C02A813B812330310564F4B9
:101710008A819B81009709F45DC02A813B81213039
:10172000310509F466C009C18A819B818430910525
:1017300009F48CC02A813B81253031050CF095C01D
:1017400076C08A819B818A30910509F4D9C02A81AB
:101750003B812B3031056CF48A819B818830910567
:1017600009F492C02A813B81293031050CF0AAC0CE
:1017700022C08A819B818C30910509F4B2C02A81F4
:101780003B812C3031050CF48EC08A819B818D30D9
:10179000910509F4C4C0D1C0AFE4B0E0EFE4F0E0DB
:1017A00080818F778C93AFE4B0E0EFE4F0E080814C
:1017B0008F7B8C93C2C0AFE4B0E0EFE4F0E08081B7
:1017C0008F7D8C93AFE4B0E0EFE4F0E080818F7E1A
:1017D0008C93B3C0AFE4B0E0EFE4F0E080818F7DA4
:1017E0008C93AFE4B0E0EFE4F0E0808180618C9313
:1017F000A4C0AFE4B0E0EFE4F0E080818F778C9399
:10180000AFE4B0E0EFE4F0E0808180648C9395C0B9
:10181000AFE4B0E0EFE4F0E0808180688C93AFE467
:10182000B0E0EFE4F0E0808180648C9386C0AFE4A8
:10183000B0E0EFE4F0E0808180628C93AFE4B0E050
:10184000EFE4F0E0808180618C9377C0AFE4B0E09A
:10185000EFE4F0E0808180688C93AFE4B0E0EFE4E7
:10186000F0E080818F7B8C9368C0AFE4B0E0EFE460
:10187000F0E0808180628C93AFE4B0E0EFE4F0E0D0
:1018800080818F7E8C9359C0AFE4B0E0EFE4F0E04C
:10189000808180688C93AFE4B0E0EFE4F0E0808179
:1018A00080648C934AC0AFE4B0E0EFE4F0E0808164
:1018B00080628C93AFE4B0E0EFE4F0E0808180617F
:1018C0008C933BC0AFE4B0E0EFE4F0E0808180684F
:1018D0008C93AFE4B0E0EFE4F0E080818F7B8C93F9
:1018E0002CC0AFE4B0E0EFE4F0E0808180628C9344
:1018F000AFE4B0E0EFE4F0E080818F7E8C931DC018
:10190000AFE4B0E0EFE4F0E0808180688C93AFE476
:10191000B0E0EFE4F0E0808180648C930EC0AFE42F
:10192000B0E0EFE4F0E0808180628C93AFE4B0E05F
:10193000EFE4F0E0808180618C930F900F900F9026
:10194000CF91DF910895DF93CF9300D00F92CDB761
:10195000DEB789838981282F30E03B832A838A81FF
:101960009B818330910509F470C02A813B8124302A
:10197000310584F48A819B8181309105D1F12A81DE
:101980003B81223031050CF04AC08A819B8100974F
:10199000D1F0C8C02A813B812530310509F481C0CE
:1019A0008A819B81853091050CF465C02A813B8139
:1019B0002630310509F48BC08A819B8187309105DF
:1019C00009F49BC0AFC0AEE4B0E0EEE4F0E080818B
:1019D0008E7F8C93AEE4B0E0EEE4F0E080818D7F0A
:1019E0008C93AEE4B0E0EEE4F0E080818B7F8C93EA
:1019F00099C0AEE4B0E0EEE4F0E0808181608C93C9
:101A0000AEE4B0E0EEE4F0E080818D7F8C93AEE454
:101A1000B0E0EEE4F0E080818B7F8C9383C0AEE495
:101A2000B0E0EEE4F0E080818E7F8C93AEE4B0E035
:101A3000EEE4F0E0808182608C93AEE4B0E0EEE40E
:101A4000F0E080818B7F8C936DC0AEE4B0E0EEE47B
:101A5000F0E0808181608C93AEE4B0E0EEE4F0E0F1
:101A6000808182608C93AEE4B0E0EEE4F0E08081AF
:101A70008B7F8C9357C0AEE4B0E0EEE4F0E0808161
:101A80008E7F8C93AEE4B0E0EEE4F0E080818D7F59
:101A90008C93AEE4B0E0EEE4F0E0808184608C935F
:101AA00041C0AEE4B0E0EEE4F0E0808181608C9370
:101AB000AEE4B0E0EEE4F0E080818D7F8C93AEE4A4
:101AC000B0E0EEE4F0E0808184608C932BC0AEE463
:101AD000B0E0EEE4F0E080818E7F8C93AEE4B0E085
:101AE000EEE4F0E0808182608C93AEE4B0E0EEE45E
:101AF000F0E0808184608C9315C0AEE4B0E0EEE449
:101B0000F0E0808181608C93AEE4B0E0EEE4F0E040
:101B1000808182608C93AEE4B0E0EEE4F0E08081FE
:101B200084608C930F900F900F90CF91DF91089568
:101B3000DF93CF9300D000D00F92CDB7DEB789836B
:101B40007B836A838981282F30E03D832C838C81BD
:101B50009D818230910521F12C813D812330310519
:101B600034F48C819D818130910561F026C02C81F7
:101B70003D812330310569F08C819D818430910550
:101B8000B1F01BC0E6E4F0E08A819B819183808301
:101B900014C0E6E4F0E08A819B81918380830DC0CC
:101BA000EAE4F0E08A819B819183808306C0EAE4C5
:101BB000F0E08A819B81918380830F900F900F903A
:101BC0000F900F90CF91DF910895DF93CF9300D0C6
:101BD00000D00F92CDB7DEB79A8389836B838B8158
:101BE000282F30E03D832C838C819D8181309105AD
:101BF00031F02C813D812230310541F00DC0EAE405
:101C0000F0E089819A819183808306C0E6E4F0E068
:101C100089819A81918380830F900F900F900F900C
:101C20000F90CF91DF910895DF93CF9300D00F9263
:101C3000CDB7DEB789838981282F30E03B832A83A3
:101C40008A819B818130910531F02A813B8122304C
:101C5000310549F00FC0AEE4B0E0EEE4F0E0808181
:101C600080648C9307C0AEE4B0E0EEE4F0E08081E5
:101C70008F7B8C930F900F900F90CF91DF910895F1
:101C8000DF93CF93CDB7DEB7A9E5B0E0E9E5F0E0AB
:101C9000808180628C93CF91DF910895DF93CF9301
:101CA000CDB7DEB7E6E4F0E080819181CF91DF919E
:101CB0000895DF93CF93CDB7DEB7A3E5B0E0E3E5BA
:101CC000F0E0808188608C93A3E5B0E0E3E5F0E08C
:101CD00080818F7B8C93A9E5B0E0E9E5F0E080811D
:101CE00082608C93ECE5F0E08CE78083A3E5B0E0C4
:101CF000E3E5F0E08081887F83608C93AFE5B0E01E
:101D0000EFE5F0E0808180688C93CF91DF910895BA
:101D1000DF93CF93CDB7DEB7A3E5B0E0E3E5F0E026
:101D20008081887F8C93CF91DF910895DF93CF934B
:101D30000F92CDB7DEB78983E2E5F0E08981808339
:101D40000F90CF91DF910895DF93CF930F92CDB78E
:101D5000DEB78983ECE5F0E0898180830F90CF9135
:101D6000DF910895DF93CF9300D0CDB7DEB79A838C
:101D7000898389819A8190930603809305030F904C
:101D80000F90CF91DF9108951F920F920FB60F928F
:101D900011242F933F934F935F936F937F938F9370
:101DA0009F93AF93BF93EF93FF93DF93CF93CDB701
:101DB000DEB7E0910503F09106030995CF91DF911D
:101DC000FF91EF91BF91AF919F918F917F916F9113
:101DD0005F914F913F912F910F900FBE0F901F90E9
:101DE0001895DF93CF930F92CDB7DEB78983A1E427
:101DF000B0E0E1E4F0E0808188608C93A1E4B0E0A1
:101E0000E1E4F0E08081982F987F8981892B8C9381
:101E10000F90CF91DF910895DF93CF93CDB7DEB7C9
:101E2000A1E4B0E0E1E4F0E0808180618C93A1E482
:101E3000B0E0E1E4F0E0808188608C930000000075
:101E400000000000A1E4B0E0E1E4F0E08081877FE1
:101E50008C93CF91DF910895DF93CF9300D0CDB7CE
:101E6000DEB79A838983E2E2F0E082E080830E9419
:101E7000BE0FA6E5B0E0E6E5F0E0808180648C93DB
:101E8000A6E5B0E0E6E5F0E0808184608C930F90F9
:101E90000F90CF91DF910895DF93CF93CDB7DEB749
:101EA000E6E5F0E084EA8083E6E5F0E080818823DF
:101EB000DCF7CF91DF910895DF93CF930F92CDB7E9
:101EC000DEB78983E3E2F0E089818083A6E5B0E0B4
:101ED000E6E5F0E080818F7D8C93A6E5B0E0E6E555
:101EE000F0E0808180688C93A6E5B0E0E6E5F0E064
:101EF000808184608C93E6E5F0E080818823DCF7C4
:101F00000F90CF91DF910895DF93CF93CDB7DEB7D8
:101F1000A6E5B0E0E6E5F0E080818F7D8C93A6E554
:101F2000B0E0E6E5F0E0808180688C93A6E5B0E063
:101F3000E6E5F0E0808184608C93E6E5F0E0808166
:101F40008823DCF7E3E2F0E08081CF91DF91089510
:101F5000DF93CF93CDB7DEB7E6E5F0E084E9808389
:101F6000CF91DF910895DF93CF93CDB7DEB7E1E254
:101F7000F0E08081887FCF91DF910895DF93CF9348
:101F8000CDB7DEB7A1E2B0E0E1E2F0E080818160B0
:101F90008C93A1E2B0E0E1E2F0E080818D7F8C9350
:101FA000E0E2F0E082E08083CF91DF9108951F921C
:101FB0000F920FB60F9211242F933F934F935F937D
:101FC0006F937F938F939F93AF93BF93EF93FF9301
:101FD000DF93CF93CDB7DEB7E0910703F09108030D
:101FE0000995CF91DF91FF91EF91BF91AF919F91B3
:101FF0008F917F916F915F914F913F912F910F90B2
:102000000FBE0F901F901895DF93CF93CDB7DEB71B
:10201000AFE5B0E0EFE5F0E0808180688C93ABE560
:10202000B0E0EBE5F0E0808180648C93A5E5B0E062
:10203000E5E5F0E0808182608C93A5E5B0E0E5E520
:10204000F0E080818E7F8C93CF91DF910895DF93B4
:10205000CF93CDB7DEB7AFE5B0E0EFE5F0E080813C
:1020600080688C93ABE5B0E0EBE5F0E080818068C0
:102070008C93A5E5B0E0E5E5F0E0808188608C9385
:10208000A5E5B0E0E5E5F0E080818B7F8C93CF9112
:10209000DF910895DF93CF93CDB7DEB7AFE5B0E022
:1020A000EFE5F0E0808180688C93ABE5B0E0EBE594
:1020B000F0E0808180628C93A4E5B0E0E4E5F0E09C
:1020C00080818F7B8C93CF91DF910895DF93CF93A5
:1020D00000D000D00F92CDB7DEB789837B836A83AF
:1020E0008981282F30E03D832C838C819D81823033
:1020F000910589F02C813D812330310599F08C8147
:102100009D8181309105A1F48A819B8190930A037E
:10211000809309030DC08A819B8190930C03809367
:102120000B0306C08A819B8190930E0380930D035D
:102130000F900F900F900F900F90CF91DF91089517
:102140001F920F920FB60F9211242F933F934F932C
:102150005F936F937F938F939F93AF93BF93EF930F
:10216000FF93DF93CF93CDB7DEB7E0910903F091F2
:102170000A030995CF91DF91FF91EF91BF91AF9144
:102180009F918F917F916F915F914F913F912F918F
:102190000F900FBE0F901F9018951F920F920FB6C1
:1021A0000F9211242F933F934F935F936F937F93DD
:1021B0008F939F93AF93BF93EF93FF93DF93CF934F
:1021C000CDB7DEB7E0910B03F0910C030995CF91E9
:1021D000DF91FF91EF91BF91AF919F918F917F918F
:1021E0006F915F914F913F912F910F900FBE0F9084
:1021F0001F9018951F920F920FB60F9211242F93D4
:102200003F934F935F936F937F938F939F93AF937E
:10221000BF93EF93FF93DF93CF93CDB7DEB7E091FA
:102220000D03F0910E030995CF91DF91FF91EF918E
:10223000BF91AF919F918F917F916F915F914F91DE
:102240003F912F910F900FBE0F901F901895DF9325
:10225000CF93CDB7DEB727970FB6F894DEBF0FBE8A
:10226000CDBF89836A834B838B81813009F06FC036
:102270008981282F30E03F832E838E819F8181309A
:10228000910549F12E813F81223031052CF48E8158
:102290009F81009761F0D2C02E813F8122303105AD
:1022A00071F18E819F8183309105E9F1C7C0ABE365
:1022B000B0E0EBE3F0E08081482F8A81282F30E006
:1022C00081E090E0022E02C0880F991F0A94E2F785
:1022D000842B8C93B3C0A8E3B0E0E8E3F0E0808106
:1022E000482F8A81282F30E081E090E0022E02C042
:1022F000880F991F0A94E2F7842B8C939FC0A5E363
:10230000B0E0E5E3F0E08081482F8A81282F30E0BB
:1023100081E090E0022E02C0880F991F0A94E2F734
:10232000842B8C938BC0A2E3B0E0E2E3F0E08081E9
:10233000482F8A81282F30E081E090E0022E02C0F1
:10234000880F991F0A94E2F7842B8C9377C08B81B6
:10235000882309F073C08981282F30E03D832C83C6
:102360008C819D818130910559F12C813D812230F4
:1023700031052CF48C819D81009769F05FC02C8120
:102380003D812230310589F18C819D818330910519
:1023900009F440C053C0ABE3B0E0EBE3F0E0808170
:1023A000482F8A81282F30E081E090E0022E02C081
:1023B000880F991F0A94E2F7809584238C933EC07E
:1023C000A8E3B0E0E8E3F0E08081482F8A81282F7D
:1023D00030E081E090E0022E02C0880F991F0A943D
:1023E000E2F7809584238C9329C0A5E3B0E0E5E370
:1023F000F0E08081482F8A81282F30E081E090E052
:10240000022E02C0880F991F0A94E2F78095842358
:102410008C9314C0A2E3B0E0E2E3F0E08081482FA7
:102420008A81282F30E081E090E0022E02C0880FE0
:10243000991F0A94E2F7809584238C9327960FB610
:10244000F894DEBF0FBECDBFCF91DF910895DF932B
:10245000CF93CDB7DEB727970FB6F894DEBF0FBE88
:10246000CDBF89836A834B838B81813009F06FC034
:102470008981282F30E03F832E838E819F81813098
:10248000910549F12E813F81223031052CF48E8156
:102490009F81009761F0CEC02E813F8122303105AF
:1024A00071F18E819F8183309105E9F1C3C0AAE368
:1024B000B0E0EAE3F0E08081482F8A81282F30E005
:1024C00081E090E0022E02C0880F991F0A94E2F783
:1024D000842B8C93AFC0A7E3B0E0E7E3F0E080810A
:1024E000482F8A81282F30E081E090E0022E02C040
:1024F000880F991F0A94E2F7842B8C939BC0A4E366
:10250000B0E0E4E3F0E08081482F8A81282F30E0BA
:1025100081E090E0022E02C0880F991F0A94E2F732
:10252000842B8C9387C0A1E3B0E0E1E3F0E08081ED
:10253000482F8A81282F30E081E090E0022E02C0EF
:10254000880F991F0A94E2F7842B8C9373C08981BA
:10255000282F30E03D832C838C819D818130910533
:1025600059F12C813D81223031052CF48C819D81E3
:10257000009769F05FC02C813D812230310589F1DF
:102580008C819D818330910509F440C053C0AAE33A
:10259000B0E0EAE3F0E08081482F8A81282F30E024
:1025A00081E090E0022E02C0880F991F0A94E2F7A2
:1025B000809584238C933EC0A7E3B0E0E7E3F0E08E
:1025C0008081482F8A81282F30E081E090E0022E20
:1025D00002C0880F991F0A94E2F7809584238C9398
:1025E00029C0A4E3B0E0E4E3F0E08081482F8A81D1
:1025F000282F30E081E090E0022E02C0880F991F62
:102600000A94E2F7809584238C9314C0A1E3B0E090
:10261000E1E3F0E08081482F8A81282F30E081E0DB
:1026200090E0022E02C0880F991F0A94E2F780956D
:1026300084238C9327960FB6F894DEBF0FBECDBFD0
:10264000CF91DF910895DF93CF9300D000D0CDB725
:10265000DEB789836A838981282F30E03C832B830E
:102660008B819C818130910549F12B813C81223005
:1026700031052CF48B819C81009761F05AC02B812D
:102680003C812230310571F18B819C818330910531
:10269000E9F14FC0ABE3B0E0EBE3F0E08081482F1D
:1026A0008A81282F30E081E090E0022E02C0880F5E
:1026B000991F0A94E2F784278C933BC0A8E3B0E00B
:1026C000E8E3F0E08081482F8A81282F30E081E024
:1026D00090E0022E02C0880F991F0A94E2F7842727
:1026E0008C9327C0A5E3B0E0E5E3F0E08081482FBC
:1026F0008A81282F30E081E090E0022E02C0880F0E
:10270000991F0A94E2F784278C9313C0A2E3B0E0E8
:10271000E2E3F0E08081482F8A81282F30E081E0D9
:1027200090E0022E02C0880F991F0A94E2F78427D6
:102730008C930F900F900F900F90CF91DF91089591
:10274000DF93CF9300D000D00F92CDB7DEB78A834E
:102750006B838A81282F30E03D832C834C815D81FF
:102760004130510541F18C819D818230910534F4D5
:102770002C813D812115310561F052C04C815D8174
:102780004230510551F18C819D8183309105B9F121
:1027900047C0E9E3F0E08081282F30E08B81882F6B
:1027A00090E0A90102C0559547958A95E2F7CA01C4
:1027B0008170898335C0E6E3F0E08081282F30E026
:1027C0008B81882F90E0A90102C0559547958A9585
:1027D000E2F7CA018170898323C0E3E3F0E08081DE
:1027E000282F30E08B81882F90E0A90102C05595F9
:1027F00047958A95E2F7CA018170898311C0E0E3A9
:10280000F0E08081282F30E08B81882F90E0A901B3
:1028100002C0559547958A95E2F7CA018170898370
:1028200089810F900F900F900F900F90CF91DF91B3
:102830000895DF93CF9300D000D0CDB7DEB7898362
:102840006A838981282F30E03C832B838B819C8194
:1028500081309105D1F02B813C81223031052CF45F
:102860008B819C81009761F01EC02B813C812230BE
:10287000310581F08B819C818330910581F013C0FB
:10288000EBE3F0E08A8180830EC0E8E3F0E08A8128
:10289000808309C0E5E3F0E08A81808304C0E2E33D
:1028A000F0E08A8180830F900F900F900F90CF916E
:1028B000DF910895DF93CF9300D000D0CDB7DEB77E
:1028C00089836A838981282F30E03C832B838B8125
:1028D0009C8181309105D1F02B813C8122303105E2
:1028E0002CF48B819C81009761F01EC02B813C8170
:1028F0002230310581F08B819C818330910581F0FC
:1029000013C0EAE3F0E08A8180830EC0E7E3F0E0E1
:102910008A81808309C0E4E3F0E08A81808304C077
:10292000E1E3F0E08A8180830F900F900F900F9089
:10293000CF91DF910895DF93CF93CDB7DEB7EAE370
:10294000F0E08CEF8083E7E3F0E08FEF8083E4E357
:10295000F0E08DEF8083E1E3F0E08EE08083CF91C3
:10296000DF910895DF93CF93CDB7DEB7EBE3F0E0CF
:1029700080EF8083E8E3F0E01082E5E3F0E010828E
:10298000E2E3F0E080EF8083CF91DF910895DF9361
:10299000CF93CDB7DEB7A7E2B0E0E7E2F0E0808109
:1029A0008F778C93A7E2B0E0E7E2F0E0808180646B
:1029B0008C93A7E2B0E0E7E2F0E080818F7D8C931A
:1029C000A6E2B0E0E6E2F0E0808186608C93A6E2C9
:1029D000B0E0E6E2F0E0808180688C93CF91DF91F7
:1029E0000895DF93CF930F92CDB7DEB78983A7E227
:1029F000B0E0E7E2F0E08081982F907E8981892B1A
:102A00008C93A6E2B0E0E6E2F0E0808180648C93F3
:102A1000E6E2F0E0808182958F70882F90E08170EF
:102A200090700097A9F3A6E2B0E0E6E2F0E08081C2
:102A300080618C93E4E2F0E0808191810F90CF91EE
:102A4000DF910895DF93CF930F92CDB7DEB78983DF
:102A5000A7E2B0E0E7E2F0E08081982F907E8981E4
:102A6000892B8C93A6E2B0E0E6E2F0E080818064FE
:102A70008C93E6E2F0E0808182958F70882F90E061
:102A8000817090700097A9F3A6E2B0E0E6E2F0E072
:102A9000808180618C93E4E2F0E0808191810F90ED
:102AA000CF91DF910895DF93CF9300D000D00F92A4
:102AB000CDB7DEB78D83A7E2B0E0E7E2F0E080813A
:102AC000982F907E8D81892B8C93A6E2B0E0E6E270
:102AD000F0E0808180648C931A8219820AC0898117
:102AE0009A8101969A83898389819A8101969A8332
:102AF000898389819A81833291058CF3A6E2B0E0C3
:102B0000E6E2F0E0808180618C93E4E2F0E0808195
:102B100091810F900F900F900F900F90CF91DF91B8
:102B20000895AF92BF92CF92DF92EF92FF920F93F0
:102B30001F93DF93CF93CDB7DEB72E970FB6F894E0
:102B4000DEBF0FBECDBF9E838D8378876F835A878C
:102B500049873C872B871E870D8780E090E0A0E0A7
:102B6000B0E089839A83AB83BC838D819E81CC0145
:102B7000A0E0B0E0BC01CD010E9407057B018C0103
:102B80008F819885CC01A0E0B0E0BC01CD010E940E
:102B900007059B01AC01C801B7010E94C101DC011E
:102BA000CB017C018D012D853E858B859C85A901FE
:102BB000481B590BCA01CC01A0E0B0E0BC01CD011B
:102BC0000E9407059B01AC01C801B7010E941F02CA
:102BD000DC01CB015C016D0189859A85CC01A0E007
:102BE000B0E0BC01CD010E9407057B018C018B8503
:102BF0009C85CC01A0E0B0E0BC01CD010E9407059E
:102C00009B01AC01C801B7010E94C101DC01CB01ED
:102C10009C01AD01C601B5010E941903DC01CB0185
:102C20007C018D018F819885CC01A0E0B0E0BC01D2
:102C3000CD010E9407059B01AC01C801B7010E94AC
:102C4000F201DC01CB0189839A83AB83BC83898148
:102C50009A81AB81BC81BC01CD012E960FB6F89450
:102C6000DEBF0FBECDBFCF91DF911F910F91FF90BF
:102C7000EF90DF90CF90BF90AF900895DF93CF9308
:102C800000D0CDB7DEB789836A8389816A8141E04C
:102C90000E9427110F900F90CF91DF910895DF933D
:102CA000CF9300D0CDB7DEB789836A8389816A81EB
:102CB00040E00E9427110F900F90CF91DF9108956F
:102CC000DF93CF9300D0CDB7DEB789836A83898144
:102CD0006A810E9423130F900F90CF91DF91089586
:102CE000DF93CF93CDB7DEB72F970FB6F894DEBF43
:102CF0000FBECDBF8F8782E067E040E00E942711C2
:102D000082E065E040E00E94271181E06F850E942B
:102D1000191482E066E041E00E94271180E090E013
:102D2000A0E0B0E48B879C87AD87BE876B857C85F0
:102D30008D859E8520E030E04AEF54E40E941F021A
:102D4000DC01CB018F839887A987BA876F8178854B
:102D500089859A8520E030E040E85FE30E94250401
:102D600088232CF481E090E09E838D833FC06F81A7
:102D7000788589859A8520E03FEF4FE757E40E94E8
:102D8000C50318164CF56B857C858D859E8520E0E6
:102D900030E040E251E40E941F02DC01CB01BC01A3
:102DA000CD010E944900DC01CB019E838D830FC0C1
:102DB00088EC90E09C838B838B819C810197F1F759
:102DC0009C838B838D819E8101979E838D838D81D2
:102DD0009E81009769F714C06F81788589859A85EF
:102DE0000E944900DC01CB019E838D838D819E81F1
:102DF0009A83898389819A810197F1F79A838983DC
:102E000082E066E040E00E9427112F960FB6F8940A
:102E1000DEBF0FBECDBFCF91DF910895DF93CF937B
:102E2000CDB7DEB7AA970FB6F894DEBF0FBECDBF01
:102E300080E090E0A0EFB1E48FA398A7A9A7BAA77C
:102E40006FA178A589A59AA520E030E04AEF54E467
:102E50000E941F02DC01CB018BA39CA3ADA3BEA3E8
:102E60006BA17CA18DA19EA120E030E040E85FE352
:102E70000E94250488232CF481E090E09AA389A382
:102E80003FC06BA17CA18DA19EA120E03FEF4FE749
:102E900057E40E94C50318164CF56FA178A589A5C3
:102EA0009AA520E030E040E251E40E941F02DC01DC
:102EB000CB01BC01CD010E944900DC01CB019AA3EA
:102EC00089A30FC088EC90E098A38F8F8F8D98A175
:102ED0000197F1F798A38F8F89A19AA101979AA3DF
:102EE00089A389A19AA1009769F714C06BA17CA15D
:102EF0008DA19EA10E944900DC01CB019AA389A368
:102F000089A19AA19E8F8D8F8D8D9E8D0197F1F74E
:102F10009E8F8D8F88E30E94701680E090E0A0E87D
:102F2000BFE3898F9A8FAB8FBC8F698D7A8D8B8D24
:102F30009C8D20E030E04AEF54E40E941F02DC0147
:102F4000CB018D8B9E8BAF8BB88F6D897E898F89DE
:102F5000988D20E030E040E85FE30E94250488235C
:102F60002CF481E090E09C8B8B8B3FC06D897E8937
:102F70008F89988D20E03FEF4FE757E40E94C5030B
:102F800018164CF5698D7A8D8B8D9C8D20E030E084
:102F900040E251E40E941F02DC01CB01BC01CD01E3
:102FA0000E944900DC01CB019C8B8B8B0FC088EC0D
:102FB00090E09A8B898B89899A890197F1F79A8B8E
:102FC000898B8B899C8901979C8B8B8B8B899C89A6
:102FD000009769F714C06D897E898F89988D0E944A
:102FE0004900DC01CB019C8B8B8B8B899C89988B56
:102FF0008F878F8598890197F1F7988B8F878FE05E
:103000000E94701680E090E0A0E8BFE38B879C8769
:10301000AD87BE876B857C858D859E8520E030E001
:103020004AEF54E40E941F02DC01CB018F83988792
:10303000A987BA876F81788589859A8520E030E0F5
:1030400040E85FE30E94250488232CF481E090E0AF
:103050009E838D833FC06F81788589859A8520E026
:103060003FEF4FE757E40E94C50318164CF56B85F8
:103070007C858D859E8520E030E040E251E40E9411
:103080001F02DC01CB01BC01CD010E944900DC0123
:10309000CB019E838D830FC088EC90E09C838B8353
:1030A0008B819C810197F1F79C838B838D819E811D
:1030B00001979E838D838D819E81009769F714C04F
:1030C0006F81788589859A850E944900DC01CB0152
:1030D0009E838D838D819E819A83898389819A8144
:1030E0000197F1F79A83898381E00E947016AA966E
:1030F0000FB6F894DEBF0FBECDBFCF91DF9108951C
:10310000DF93CF93CDB7DEB72F970FB6F894DEBF1E
:103110000FBECDBF8F8782E067E041E00E9427119C
:1031200082E065E040E00E94271181E06F850E9407
:10313000191482E066E041E00E94271180E090E0EF
:10314000A0E0B0E48B879C87AD87BE876B857C85CC
:103150008D859E8520E030E04AEF54E40E941F02F6
:10316000DC01CB018F839887A987BA876F81788527
:1031700089859A8520E030E040E85FE30E942504DD
:1031800088232CF481E090E09E838D833FC06F8183
:10319000788589859A8520E03FEF4FE757E40E94C4
:1031A000C50318164CF56B857C858D859E8520E0C2
:1031B00030E040E251E40E941F02DC01CB01BC017F
:1031C000CD010E944900DC01CB019E838D830FC09D
:1031D00088EC90E09C838B838B819C810197F1F735
:1031E0009C838B838D819E8101979E838D838D81AE
:1031F0009E81009769F714C06F81788589859A85CB
:103200000E944900DC01CB019E838D838D819E81CC
:103210009A83898389819A810197F1F79A838983B7
:1032200082E066E040E00E9427112F960FB6F894E6
:10323000DEBF0FBECDBFCF91DF910895DF93CF9357
:10324000CDB7DEB727970FB6F894DEBF0FBECDBF60
:103250009B838A836C834D8381E089838C81282FB3
:1032600030E03F832E838E819F818439910561F107
:103270002E813F812539310534F48E819F8180383C
:10328000910561F037C02E813F81203C310589F0E6
:103290008E819F81843D910511F12CC08D818058D4
:1032A0000E94701681E089838A819B810E94351A71
:1032B00022C08D8180540E94701681E089838A81AA
:1032C0009B810E94351A17C08D818C560E94701602
:1032D00081E089838A819B810E94351A0CC08D818F
:1032E0008C520E94701681E089838A819B810E94A2
:1032F000351A01C01982898127960FB6F894DEBF6E
:103300000FBECDBFCF91DF910895DF93CF9300D053
:1033100000D00F92CDB7DEB78A836B8381E08983BB
:103320008A81282F30E03D832C838C819D818439D4
:10333000910521F12C813D812539310534F48C81B1
:103340009D818038910561F027C02C813D81203C12
:10335000310569F08C819D81843D9105B1F01CC0DF
:103360008B8180580E94701681E0898316C08B8102
:1033700080540E94701681E089830FC08B818C5627
:103380000E94701681E0898308C08B818C520E9454
:10339000701681E0898301C0198289810F900F9096
:1033A0000F900F900F90CF91DF910895DF93CF93FF
:1033B00000D000D000D0CDB7DEB78A836B834C83BA
:1033C00081E089838B81282F30E03E832D838D819E
:1033D0009E818439910551F12D813E812539310538
:1033E00034F48D819E818038910561F033C02D8148
:1033F0003E81203C310581F08D819E81843D910587
:10340000F9F028C08C8180580E94701681E0898371
:103410008A810E9480181FC08C8180540E9470167F
:1034200081E089838A810E94801815C08C818C5626
:103430000E94701681E089838A810E9480180BC0E7
:103440008C818C520E94701681E089838A810E944F
:10345000801801C01982898126960FB6F894DEBFC4
:103460000FBECDBFCF91DF910895DF93CF93CDB73E
:10347000DEB760970FB6F894DEBF0FBECDBF988B56
:103480008F8782E067E041E00E94271182E065E0DB
:1034900040E00E94271188C0EF85F88920818F8540
:1034A00098890196988B8F8781E0622F0E9419146A
:1034B00082E066E041E00E94271180E090E0A0E019
:1034C000B0E48B879C87AD87BE876B857C858D85B7
:1034D0009E8520E030E04AEF54E40E941F02DC01A8
:1034E000CB018F839887A987BA876F817885898573
:1034F0009A8520E030E040E85FE30E9425048823BD
:103500002CF481E090E09E838D833FC06F817885AD
:1035100089859A8520E03FEF4FE757E40E94C50375
:1035200018164CF56B857C858D859E8520E030E0F6
:1035300040E251E40E941F02DC01CB01BC01CD013D
:103540000E944900DC01CB019E838D830FC088EC73
:1035500090E09C838B838B819C810197F1F79C8306
:103560008B838D819E8101979E838D838D819E812A
:10357000009769F714C06F81788589859A850E94C4
:103580004900DC01CB019E838D838D819E819A83CE
:10359000898389819A810197F1F79A83898382E0EF
:1035A00066E040E00E942711EF85F889808188233A
:1035B00009F072CF60960FB6F894DEBF0FBECDBF94
:1035C000CF91DF910895DF93CF93CDB7DEB72A97E0
:1035D0000FB6F894DEBF0FBECDBF6F8378878987A3
:1035E0009A871E821D826F81788589859A850E94BF
:1035F000B304DC01CB019C838B838B819C81AA2744
:1036000097FDA095BA2FBC01CD010E9455049B01E6
:10361000AC016F81788589859A850E94C101DC01A2
:10362000CB01BC01CD0120E030E048EC52E40E9427
:103630001F02DC01CB01BC01CD010E94B304DC01FF
:10364000CB019A8389838B819C81AA2797FDA095C2
:10365000BA2F2D813E81BC01CD01A9010E944E1ED1
:103660008D819E810E94351A8EE20E948018898188
:103670009A818A3091051CF480E30E948018898128
:103680009A81AA2797FDA095BA2F2D813E81BC0172
:10369000CD01A9010E944E1E8D819E810E94351A86
:1036A0002A960FB6F894DEBF0FBECDBFCF91DF9143
:1036B0000895DF93CF93CDB7DEB7E4970FB6F894B4
:1036C000DEBF0FBECDBF80E090E0A0EAB1E489ABE1
:1036D0009AABABABBCAB69A97AA98BA99CA920E03A
:1036E00030E04AEF54E40E941F02DC01CB018DA7B9
:1036F0009EA7AFA7B8AB6DA57EA58FA598A920E022
:1037000030E040E85FE30E94250488232CF481E048
:1037100090E09CA78BA73FC06DA57EA58FA598A91B
:1037200020E03FEF4FE757E40E94C50318164CF521
:1037300069A97AA98BA99CA920E030E040E251E474
:103740000E941F02DC01CB01BC01CD010E94490097
:10375000DC01CB019CA78BA70FC088EC90E09AA757
:1037600089A789A59AA50197F1F79AA789A78BA59B
:103770009CA501979CA78BA78BA59CA5009769F793
:1037800014C06DA57EA58FA598A90E944900DC01F3
:10379000CB019CA78BA78BA59CA598A78FA38FA1D6
:1037A00098A50197F1F798A78FA38CE30E94291D94
:1037B00080E090E0A0EAB0E48BA39CA3ADA3BEA3FD
:1037C0006BA17CA18DA19EA120E030E04AEF54E4E2
:1037D0000E941F02DC01CB018F8F98A3A9A3BAA37B
:1037E0006F8D78A189A19AA120E030E040E85FE3E5
:1037F0000E94250488232CF481E090E09E8F8D8F19
:103800003FC06F8D78A189A19AA120E03FEF4FE7DB
:1038100057E40E94C50318164CF56BA17CA18DA13D
:103820009EA120E030E040E251E40E941F02DC0152
:10383000CB01BC01CD010E944900DC01CB019E8F70
:103840008D8F0FC088EC90E09C8F8B8F8B8D9C8D23
:103850000197F1F79C8F8B8F8D8D9E8D01979E8F99
:103860008D8F8D8D9E8D009769F714C06F8D78A117
:1038700089A19AA10E944900DC01CB019E8F8D8F06
:103880008D8D9E8D9A8F898F898D9A8D0197F1F7F5
:103890009A8F898F8CE30E94291D80E090E0A6E139
:1038A000B3E48D8B9E8BAF8BB88F6D897E898F89AA
:1038B000988D2BEA3AEA4AE250E40E941F02DC01AA
:1038C000CB01898B9A8BAB8BBC8B69897A898B896D
:1038D0009C8920E030E040E85FE30E9425048823D3
:1038E0001CF481E0888B91C069897A898B899C89D5
:1038F00020E030E04FE753E40E94C50318160CF0B7
:103900007BC06D897E898F89988D20E030E04AE701
:1039100054E40E941903DC01CB018C879D87AE879C
:10392000BF876C857D858E859F8520E030E04AEFDE
:1039300054E40E941F02DC01CB0188879987AA8783
:10394000BB87688579858A859B8520E030E040E8E3
:103950005FE30E94250488232CF481E090E09F839C
:103960008E833FC0688579858A859B8520E03FEFFF
:103970004FE757E40E94C50318164CF56C857D850A
:103980008E859F8520E030E040E251E40E941F02D6
:10399000DC01CB01BC01CD010E944900DC01CB015F
:1039A0009F838E830FC088EC90E09D838C838C81F5
:1039B0009D810197F1F79D838C838E819F81019773
:1039C0009F838E838E819F81009769F724C06885CD
:1039D00079858A859B850E944900DC01CB019F8304
:1039E0008E838E819F819B838A838A819B810197AD
:1039F000F1F79B838A830FC069897A898B899C89B7
:103A00000E944900DC01CB01888B888989838981E8
:103A10008A95F1F789838CE30E94291D81E00E9439
:103A2000291D82E00E94291D86E00E94291D8CE04C
:103A30000E94291D8CE20E94291D80E80E94291DF8
:103A4000E4960FB6F894DEBF0FBECDBFCF91DF91E5
:103A50000895DF93CF93CDB7DEB76D970FB6F89487
:103A6000DEBF0FBECDBF8D8F82E067E040E00E94D9
:103A7000271182E065E040E00E9427118D8D982F8C
:103A800092959F7081E0692F0E94191482E066E090
:103A900041E00E94271180E090E0A0E0B0E4898F2F
:103AA0009A8FAB8FBC8F698D7A8D8B8D9C8D20E02A
:103AB00030E04AEF54E40E941F02DC01CB018D8B01
:103AC0009E8BAF8BB88F6D897E898F89988D20E012
:103AD00030E040E85FE30E94250488232CF481E075
:103AE00090E09C8B8B8B3FC06D897E898F89988DF0
:103AF00020E03FEF4FE757E40E94C50318164CF54E
:103B0000698D7A8D8B8D9C8D20E030E040E251E410
:103B10000E941F02DC01CB01BC01CD010E944900C3
:103B2000DC01CB019C8B8B8B0FC088EC90E09A8BD7
:103B3000898B89899A890197F1F79A8B898B8B896F
:103B40009C8901979C8B8B8B8B899C89009769F74B
:103B500014C06D897E898F89988D0E944900DC018F
:103B6000CB019C8B8B8B8B899C89988B8F878F85C6
:103B700098890197F1F7988B8F8782E066E040E0A3
:103B80000E9427118D8D982F9F7081E0692F0E94D0
:103B9000191482E066E041E00E94271180E090E085
:103BA000A0E0B0E48B879C87AD87BE876B857C8562
:103BB0008D859E8520E030E04AEF54E40E941F028C
:103BC000DC01CB018F839887A987BA876F817885BD
:103BD00089859A8520E030E040E85FE30E94250473
:103BE00088232CF481E090E09E838D833FC06F8119
:103BF000788589859A8520E03FEF4FE757E40E945A
:103C0000C50318164CF56B857C858D859E8520E057
:103C100030E040E251E40E941F02DC01CB01BC0114
:103C2000CD010E944900DC01CB019E838D830FC032
:103C300088EC90E09C838B838B819C810197F1F7CA
:103C40009C838B838D819E8101979E838D838D8143
:103C50009E81009769F714C06F81788589859A8560
:103C60000E944900DC01CB019E838D838D819E8162
:103C70009A83898389819A810197F1F79A8389834D
:103C800082E066E040E00E9427116D960FB6F8943E
:103C9000DEBF0FBECDBFCF91DF910895DF93CF93ED
:103CA000CDB7DEB727970FB6F894DEBF0FBECDBFF6
:103CB0006A837B838C839D835F834E8381E08983CA
:103CC0008E819F81009711F419822DC08E819F8172
:103CD00060E070E04BE050E00E943B318DB79EB752
:103CE00008970FB6F8949EBF0FBE8DBFEDB7FEB715
:103CF00031968E819F819183808380E690E09383CB
:103D000082838A819B81AC81BD8184839583A683D4
:103D1000B7830E9442318DB79EB708960FB6F894CC
:103D20009EBF0FBE8DBF898127960FB6F894DEBF68
:103D30000FBECDBFCF91DF910895DF93CF9300D019
:103D400000D0CDB7DEB78A837C836B8319828B81E9
:103D50009C81009711F4198227C08B819C8160E0BF
:103D600070E044E050E00E943B318A81282F30E02F
:103D700000D000D000D0EDB7FEB731968B819C818A
:103D80009183808380E690E09383828335832483CC
:103D90000E9442318DB79EB706960FB6F8949EBF2B
:103DA0000FBE8DBF81E0898389810F900F900F90A6
:103DB0000F90CF91DF910895DF93CF9300D000D083
:103DC0000F92CDB7DEB79B838A837D836C83198284
:103DD0008C819D81009711F4198226C08C819D8170
:103DE00060E070E048E050E00E943B3100D000D03D
:103DF00000D0EDB7FEB731968C819D819183808391
:103E000080E690E0938382838A819B81958384837B
:103E10000E9442318DB79EB706960FB6F8949EBFAA
:103E20000FBE8DBF81E0898389810F900F900F9025
:103E30000F900F90CF91DF910895DF93CF93CDB77F
:103E4000DEB72C970FB6F894DEBF0FBECDBF9A87B2
:103E500089876B874C8789859A859E012F5F3F4FA5
:103E6000B9010E94DC1ECE0101966B854C850E9433
:103E70001E192C960FB6F894DEBF0FBECDBFCF91A2
:103E8000DF910895DF93CF93CDB7DEB7AC970FB630
:103E9000F894DEBF0FBECDBF9CA78BA71AA619A6AC
:103EA00018A61FA2EBA5FCA510821AA679C18AA5A7
:103EB000882F90E0FC01EA53FD4F908183E0692F49
:103EC00041E00E94271180E090E0A8E4B2E48BA3D7
:103ED0009CA3ADA3BEA36BA17CA18DA19EA12BEA47
:103EE0003AEA4AE250E40E941F02DC01CB018F8FC4
:103EF00098A3A9A3BAA36F8D78A189A19AA120E064
:103F000030E040E85FE30E94250488231CF481E050
:103F10008E8F91C06F8D78A189A19AA120E030E0A9
:103F20004FE753E40E94C50318160CF07BC06BA149
:103F30007CA18DA19EA120E030E04AE754E40E94DC
:103F40001903DC01CB018A8F9B8FAC8FBD8F6A8DEB
:103F50007B8D8C8D9D8D20E030E04AEF54E40E94F3
:103F60001F02DC01CB018E8B9F8BA88FB98F6E89CE
:103F70007F89888D998D20E030E040E85FE30E94E2
:103F8000250488232CF481E090E09D8B8C8B3FC02E
:103F90006E897F89888D998D20E03FEF4FE757E448
:103FA0000E94C50318164CF56A8D7B8D8C8D9D8DF6
:103FB00020E030E040E251E40E941F02DC01CB012E
:103FC000BC01CD010E944900DC01CB019D8B8C8B93
:103FD0000FC088EC90E09B8B8A8B8A899B89019724
:103FE000F1F79B8B8A8B8C899D8901979D8B8C8B9C
:103FF0008C899D89009769F724C06E897F89888D97
:10400000998D0E944900DC01CB019D8B8C8B8C89A2
:104010009D89998B888B888999890197F1F7998B6C
:10402000888B0FC06F8D78A189A19AA10E94490049
:10403000DC01CB018E8F8E8D8F878F858A95F1F76E
:104040008F8719A6A6C089A5882F90E0FC01EE53A2
:10405000FD4F908180E0692F0E94A0138FA38FA154
:10406000813009F093C080E090E0A8E4B2E48B874F
:104070009C87AD87BE876B857C858D859E8520E07E
:1040800030E04AEF54E40E941F02DC01CB018F8331
:104090009887A987BA876F81788589859A8520E076
:1040A00030E040E85FE30E94250488232CF481E09F
:1040B00090E09E838D833FC06F81788589859A8546
:1040C00020E03FEF4FE757E40E94C50318164CF578
:1040D0006B857C858D859E8520E030E040E251E453
:1040E0000E941F02DC01CB01BC01CD010E944900EE
:1040F000DC01CB019E838D830FC088EC90E09C8314
:104100008B838B819C810197F1F79C838B838D81BD
:104110009E8101979E838D838D819E81009769F793
:1041200014C06F81788589859A850E944900DC01D9
:10413000CB019E838D838D819E819A838983898122
:104140009A810197F1F79A8389838AA5482F50E0D5
:104150008AA5282F30E0CA01880F991F880F991F60
:10416000820F931FFC01E653FD4F8081EBA5FCA558
:10417000808388A5882F90E0FC01EA53FD4F908151
:1041800083E0692F40E00E94271107C089A58F5F57
:1041900089A789A5843008F456CF8AA58F5F8AA79E
:1041A0008AA5843008F483CEAC960FB6F894DEBFAF
:1041B0000FBECDBFCF91DF910895DF93CF93CDB7E1
:1041C000DEB763970FB6F894DEBF0FBECDBF9B8BF3
:1041D0008A8B198A188A1F86EA89FB891082188AB5
:1041E000BBC08889882F90E0FC01EE53FD4F908181
:1041F00080E0692F40E00E942711198AA6C08989B2
:10420000882F90E0FC01EA53FD4F908183E0692FF5
:104210000E94A0138F878F85882309F093C080E0C8
:1042200090E0A8E4B2E48B879C87AD87BE876B855E
:104230007C858D859E8520E030E04AEF54E40E9425
:104240001F02DC01CB018F839887A987BA876F8112
:10425000788589859A8520E030E040E85FE30E9418
:10426000250488232CF481E090E09E838D833FC059
:104270006F81788589859A8520E03FEF4FE757E485
:104280000E94C50318164CF56B857C858D859E852F
:1042900020E030E040E251E40E941F02DC01CB014B
:1042A000BC01CD010E944900DC01CB019E838D83BE
:1042B0000FC088EC90E09C838B838B819C8101975D
:1042C000F1F79C838B838D819E8101979E838D83E3
:1042D0008D819E81009769F714C06F8178858985EB
:1042E0009A850E944900DC01CB019E838D838D81DC
:1042F0009E819A83898389819A810197F1F79A83B4
:1043000089838989482F50E08889282F30E0CA01A5
:10431000880F991F880F991F820F931FFC01E65386
:10432000FD4F8081EA89FB8980838889882F90E00E
:10433000FC01EE53FD4F908180E0692F41E00E9427
:10434000271107C089898F5F898B8989843008F498
:1043500056CF88898F5F888B8889843008F441CF55
:1043600063960FB6F894DEBF0FBECDBFCF91DF913D
:104370000895DF93CF9300D000D000D0CDB7DEB743
:104380009E838D831C821B821A82ED81FE811082A6
:1043900019821B824CC08B81882F90E0FC01EE5368
:1043A000FD4F908180E0692F40E00E9427111C8220
:1043B00029C08C81882F90E0FC01EA53FD4F908149
:1043C00083E0692F0E94A0138A838A818823B9F42D
:1043D00081E089838C81482F50E08B81282F30E049
:1043E000CA01880F991F880F991F820F931FFC0124
:1043F000E653FD4F8081ED81FE81808306C08C8174
:104400008F5F8C838C818430A0F28B81882F90E029
:10441000FC01EE53FD4F908180E0692F41E00E9446
:1044200027118981813039F08B818F5F8B838B815C
:10443000843008F4B0CF26960FB6F894DEBF0FBED6
:10444000CDBFCF91DF910895DF93CF9300D000D0FF
:104450000F92CDB7DEB79D838C831B821A8219829F
:10446000EC81FD8110821A8257C08A81882F90E0EA
:10447000FC01EE53FD4F908180E0692F40E00E94E7
:1044800027111B8237C08B81882F90E0FC01EA53F3
:10449000FD4F908183E0692F0E94A0138983898159
:1044A000882329F50CC08B81882F90E0FC01EA530A
:1044B000FD4F908183E0692F0E94A0138983898139
:1044C000882389F78B81482F50E08A81282F30E09C
:1044D000CA01880F991F880F991F820F931FFC0133
:1044E000E653FD4F8081EC81FD81808306C08B8186
:1044F0008F5F8B838B81843030F28A81882F90E0AC
:10450000FC01EE53FD4F908180E0692F41E00E9455
:1045100027118A818F5F8A838A81843008F4A5CF2E
:104520000F900F900F900F900F90CF91DF91089503
:10453000DF93CF93CDB7DEB727970FB6F894DEBFE2
:104540000FBECDBF9F838E831D821C821B821A8269
:10455000EE81FF81108219821B825FC08B81882FC0
:1045600090E0FC01EE53FD4F908180E0692F40E028
:104570000E9427111C823CC08C81882F90E0FC0196
:10458000EA53FD4F908183E0692F0E94A0138A8334
:104590008A81882349F581E08D8381E089830CC07D
:1045A0008C81882F90E0FC01EA53FD4F908183E0DD
:1045B000692F0E94A0138A838A81882389F38C81C2
:1045C000482F50E08B81282F30E0CA01880F991FB7
:1045D000880F991F820F931FFC01E653FD4F8081C6
:1045E000EE81FF81808307C01D828C818F5F8C8369
:1045F0008C81843008F28B81882F90E0FC01EE538F
:10460000FD4F908180E0692F41E00E942711898150
:10461000813039F08B818F5F8B838B81843008F4FC
:104620009DCF8D8127960FB6F894DEBF0FBECDBF0C
:10463000CF91DF910895DF93CF9300D0CDB7DEB750
:1046400089836A830E944C0F80EA0E945C0F8A81F2
:104650000E945C0F89810E945C0F0E94A80F0F903E
:104660000F90CF91DF910895DF93CF93CDB7DEB751
:1046700064970FB6F894DEBF0FBECDBF9A8B898BBF
:104680006B8B4C8B188A1F86188A1F8689C02F85D2
:10469000388989899A89FC01E20FF31F8081982F5C
:1046A00090532C898C898F5F8C8B892F622F0E946D
:1046B0001B2380E090E0A8ECB2E48B879C87AD8759
:1046C000BE876B857C858D859E8520E030E04AEF36
:1046D00054E40E941F02DC01CB018F839887A987D5
:1046E000BA876F81788589859A8520E030E040E837
:1046F0005FE30E94250488232CF481E090E09E83F0
:104700008D833FC06F81788589859A8520E03FEF52
:104710004FE757E40E94C50318164CF56B857C855E
:104720008D859E8520E030E040E251E40E941F022A
:10473000DC01CB01BC01CD010E944900DC01CB01B1
:104740009E838D830FC088EC90E09C838B838B814C
:104750009C810197F1F79C838B838D819E810197CA
:104760009E838D838D819E81009769F714C06F8130
:10477000788589859A850E944900DC01CB019E835A
:104780008D838D819E819A83898389819A81019706
:10479000F1F79A8389838F8598890196988B8F8703
:1047A0008B89282F30E08F859889821793070CF426
:1047B0006ECF64960FB6F894DEBF0FBECDBFCF911B
:1047C000DF910895DF93CF9300D000D000D0CDB714
:1047D000DEB79C838B836D834E831A8219821A8283
:1047E000198213C099818E81492F480F29813A81FE
:1047F0008B819C81280F391F842FB9010E941624B8
:1048000089819A8101969A8389838D81282F30E04E
:1048100089819A81821793072CF326960FB6F89414
:10482000DEBF0FBECDBFCF91DF910895DF93CF9351
:1048300000D00F92CDB7DEB789837B836A830E9455
:104840004C0F80EA0E945C0F89810E945C0F0E94DD
:104850004C0F81EA0E945C0F0E94840FEA81FB8169
:1048600080830E94A80F0F900F900F90CF91DF913F
:104870000895DF93CF93CDB7DEB70E949B140E94BB
:10488000B2140E94B02F0E940E1780E090E00E94A8
:104890002C0F80E090E060E070E040E050E00E948B
:1048A00005090E94C7140E948A2720E233E08FEF97
:1048B000B9010E9416240E946E278FE093E00E94A7
:1048C00098228093300380913003813009F096C0A4
:1048D0008091210390912203009749F40E94EA29D4
:1048E00081E090E09093220380932103E6CF8091B2
:1048F00021039091220381309105F9F680912303E1
:104900009091240381309105D9F48091DA028430AA
:1049100031F481E00E94C8288093DA02CECF8091E2
:10492000DA02863051F682E00E94C8288093DA02CB
:104930008091DA02873009F68AE08093DA02BDCFEF
:10494000809123039091240382309105E1F58091B9
:10495000DA02843031F481E00E94C8288093DA02C0
:10496000ACCF8091DA02863069F482E00E94C828D8
:104970008093DA028091DA02873009F09ECF0E949C
:1049800096289BCF8091DA02873009F096CF0E945B
:1049900035298093DA028091DA02893009F08DCFCF
:1049A00010922403109223031092220310922103E9
:1049B00010920F0384E08093DA0281E00E94701667
:1049C0000E946E277ACF8091230390912403833035
:1049D000910509F072CF8091DA02843029F40E94A7
:1049E000BA308093DA0269CF8091DA028C3009F014
:1049F00064CF0E94DD2F8093DA025FCF8091300375
:104A0000882309F05ACF8091DA028A3009F055CF15
:104A10000E94000852CFDF93CF93CDB7DEB76597E2
:104A20000FB6F894DEBF0FBECDBF1D8A85E090E0C3
:104A30009C8B8B8B1A8A198A58C085E090E09C8BDE
:104A40008B8B188A1F862DC089899A89880F991F98
:104A5000880F991F880F991F982F8F85492F480F0E
:104A60008F8598899C01285E3C4F842FB9010E9454
:104A700016248F859889FC01EC5EFC4F20818F8580
:104A80009889FC01E85EFC4F8081281729F084E0BA
:104A900090E09C8B8B8B0AC08F8598890196988BB0
:104AA0008F878F8598898430910574F28B899C89D2
:104AB00085309105A9F486E090E09C8B8B8B0E9459
:104AC000AF2710922A031092290389899A89880FA7
:104AD000991F880F991F880F991F80932F030FC06C
:104AE00089899A8901969A8B898B80912003282F36
:104AF00030E089899A89821793070CF49ECF8B89BD
:104B00009C898430910509F085C08091290390919A
:104B10002A03019690932A038093290384E090E06E
:104B20009C8B8B8B8091290390912A030E94A8284B
:104B300080E090E0AAE7B4E48B879C87AD87BE87CE
:104B40006B857C858D859E8520E030E04AEF54E4BE
:104B50000E941F02DC01CB018F839887A987BA8747
:104B60006F81788589859A8520E030E040E85FE3B1
:104B70000E94250488232CF481E090E09E838D839D
:104B80003FC06F81788589859A8520E03FEF4FE7A8
:104B900057E40E94C50318164CF56B857C858D85FE
:104BA0009E8520E030E040E251E40E941F02DC01DB
:104BB000CB01BC01CD010E944900DC01CB019E83E9
:104BC0008D830FC088EC90E09C838B838B819C81CC
:104BD0000197F1F79C838B838D819E8101979E8342
:104BE0008D838D819E81009769F714C06F817885D0
:104BF00089859A850E944900DC01CB019E838D83C3
:104C00008D819E819A83898389819A810197F1F7A9
:104C10009A8389838091290390912A038330910597
:104C2000F1F4109222031092210384E193E060E0FA
:104C300070E044E050E00E943B318CE193E060E0A2
:104C400070E044E050E00E943B3184E08093DA025F
:104C50000E946E2710922A031092290319C0809196
:104C6000290390912A03009799F08091290390914C
:104C70002A038330910561F081E00E9470160E9442
:104C80009D2784E08093DA0284E090E09C8B8B8BFC
:104C90008B8965960FB6F894DEBF0FBECDBFCF915E
:104CA000DF910895DF93CF93CDB7DEB762970FB64C
:104CB000F894DEBF0FBECDBF88E090E09A8B898B61
:104CC000188A1F86A9C09F8580912F03890F482FBE
:104CD0004C5F8F8598899C01285E3C4F842FB901D9
:104CE0000E9416248F859889FC01E45EFC4F208188
:104CF0008F859889FC01E85EFC4F8081281709F4B4
:104D000086C080912B0390912C03019690932C03E5
:104D100080932B0386E090E09A8B898B80912B0304
:104D200090912C030E94762880E090E0AAE7B4E4FA
:104D30008B879C87AD87BE876B857C858D859E859F
:104D400020E030E04AEF54E40E941F02DC01CB0176
:104D50008F839887A987BA876F81788589859A8597
:104D600020E030E040E85FE30E94250488232CF433
:104D700081E090E09E838D833FC06F817885898537
:104D80009A8520E03FEF4FE757E40E94C5031816CD
:104D90004CF56B857C858D859E8520E030E040E27A
:104DA00051E40E941F02DC01CB01BC01CD010E9435
:104DB0004900DC01CB019E838D830FC088EC90E01D
:104DC0009C838B838B819C810197F1F79C838B83E0
:104DD0008D819E8101979E838D838D819E81009719
:104DE00069F720C06F81788589859A850E9449007E
:104DF000DC01CB019E838D838D819E819A83898383
:104E000089819A810197F1F79A8389830BC08F85F5
:104E100098890196988B8F878F8598898430910522
:104E20000CF451CF89899A898830910569F483E619
:104E300090E00E94351A10922C0310922B0387E009
:104E400090E09A8B898B40C080912B0390912C032A
:104E50008330910519F5109222031092210384E109
:104E600093E060E070E044E050E00E943B318CE170
:104E700093E060E070E044E050E00E943B3110922B
:104E800010031092120384E090E09A8B898B1092A9
:104E90002C0310922B030E946E2716C080912B03C7
:104EA00090912C03009781F080912B0390912C031B
:104EB0008330910549F081E00E9470160E94AF276F
:104EC00086E090E09A8B898B898962960FB6F89478
:104ED000DEBF0FBECDBFCF91DF910895DF93CF939B
:104EE000CDB7DEB781E00E9470168DE690E060ECF1
:104EF00040E00E941E1989E790E060EC4CE00E94BF
:104F00001E198FE790E060E840E00E941E19CF91E3
:104F1000DF910895DF93CF93CDB7DEB78EE890E0B1
:104F200064E040E00E9434238EE890E064E044E0D6
:104F30000E943423CF91DF910895DF93CF93CDB7B3
:104F4000DEB781E00E94701683E990E00E94351A76
:104F500080EC60E00E948519CF91DF910895DF9386
:104F6000CF93CDB7DEB781E00E9470168EE990E056
:104F70000E94351A80EC60E00E948519CF91DF9184
:104F80000895DF93CF93CDB7DEB72E970FB6F89481
:104F9000DEBF0FBECDBF81E00E9470168DEA90E0AB
:104FA00060E841E00E941E198CEB90E060EC41E06B
:104FB0000E941E1980E090E0AAE7B4E48B879C87EA
:104FC000AD87BE876B857C858D859E8520E030E032
:104FD0004AEF54E40E941F02DC01CB018F839887C3
:104FE000A987BA876F81788589859A8520E030E026
:104FF00040E85FE30E94250488232CF481E090E0E0
:105000009E838D833FC06F81788589859A8520E056
:105010003FEF4FE757E40E94C50318164CF56B8528
:105020007C858D859E8520E030E040E251E40E9441
:105030001F02DC01CB01BC01CD010E944900DC0153
:10504000CB019E838D830FC088EC90E09C838B8383
:105050008B819C810197F1F79C838B838D819E814D
:1050600001979E838D838D819E81009769F714C07F
:105070006F81788589859A850E944900DC01CB0182
:105080009E838D838D819E819A83898389819A8174
:105090000197F1F79A83898381E00E9470168BEC67
:1050A00090E060E840E00E941E1980EC60E00E9401
:1050B00085192E960FB6F894DEBF0FBECDBFCF91E7
:1050C000DF910895DF93CF93CDB7DEB781E00E94E3
:1050D00070168BEC90E060E843E00E941E1980ECB3
:1050E00060E00E948519CF91DF910895DF93CF93FF
:1050F0000F92CDB7DEB7898387ED90E00E94351A15
:1051000082EE90E060EC40E00E941E198981805D93
:1051100060EC48E00E94D61989EE90E060EC4AE02D
:105120000E941E190F90CF91DF910895DF93CF93C6
:10513000CDB7DEB781E00E94701682EF90E00E944A
:10514000351A80EC60E00E948519CF91DF910895B7
:10515000DF93CF930F92CDB7DEB7898381E091E0E3
:105160000E94351A82EE90E060EC40E00E941E1929
:105170008981805D60EC48E00E94D61989EE90E05C
:1051800060EC4AE00E941E190F90CF91DF910895C4
:10519000DF93CF9300D000D0CDB7DEB78A8384E011
:1051A00089838A81282F30E03C832B838B819C81EB
:1051B0008130910531F02B813C812230310511F194
:1051C00045C080911003282F30E080910F03805359
:1051D000F901EC5EFC4F808380910F030E948018E0
:1051E000809110038F5F80931003809110038430AF
:1051F00069F51092100381E00E9470160E940B2541
:10520000898324C080911203282F30E080910F03FE
:105210008053F901E45EFC4F808380910F030E946C
:105220008018809112038F5F8093120386E0898338
:1052300080911203843051F487E089831092120325
:1052400081E00E9470160E945226898389810F9006
:105250000F900F900F90CF91DF910895DF93CF9330
:10526000CDB7DEB7CF91DF910895DF93CF93CDB760
:10527000DEB72F970FB6F894DEBF0FBECDBF87E025
:105280008F8780910F030E94801880911103882FCF
:1052900090E020910F03FC01E45EFC4F208380919D
:1052A00011038F5F8093110380911103843009F003
:1052B00087C081E00E94701680912F03282F2C5FF9
:1052C0008CE193E064E0422F0E9434238CE091E073
:1052D0000E94351A80E090E0AAE7B4E48B879C87AF
:1052E000AD87BE876B857C858D859E8520E030E00F
:1052F0004AEF54E40E941F02DC01CB018F839887A0
:10530000A987BA876F81788589859A8520E030E002
:1053100040E85FE30E94250488232CF481E090E0BC
:105320009E838D833FC06F81788589859A8520E033
:105330003FEF4FE757E40E94C50318164CF56B8505
:105340007C858D859E8520E030E040E251E40E941E
:105350001F02DC01CB01BC01CD010E944900DC0130
:10536000CB019E838D830FC088EC90E09C838B8360
:105370008B819C810197F1F79C838B838D819E812A
:1053800001979E838D838D819E81009769F714C05C
:105390006F81788589859A850E944900DC01CB015F
:1053A0009E838D838D819E819A83898389819A8151
:1053B0000197F1F79A8389831092110389E08F870F
:1053C0008F852F960FB6F894DEBF0FBECDBFCF915D
:1053D000DF910895DF93CF93CDB7DEB780910F03B0
:1053E000823349F40E949D2781E090E0909324034A
:1053F0008093230319C080910F03813349F40E94E5
:10540000C12782E090E090932403809323030CC093
:1054100080910F03833341F40E94622883E090E07F
:105420009093240380932303CF91DF9108950F93EA
:105430001F93DF93CF93CDB7DEB7C157D0400FB6E0
:10544000F894DEBF0FBECDBF0E94CE09FE01EF581B
:10545000FF4F8083FE01EF58FF4F8081813309F0B9
:10546000C0C081E00E9470168DE191E060EC40E0E8
:105470000E941E19FE01E359FF4F80E090E0AAE769
:10548000B4E480839183A283B3838E0107591F4FB5
:10549000FE01E359FF4F608171818281938120E099
:1054A00030E04AEF54E40E941F02DC01CB01F80116
:1054B00080839183A283B383FE01E759FF4F60810C
:1054C00071818281938120E030E040E85FE30E94B7
:1054D0002504882344F4FE01E959FF4F81E090E060
:1054E0009183808364C0FE01E759FF4F6081718121
:1054F0008281938120E03FEF4FE757E40E94C5038C
:1055000018160CF043C0FE01E359FF4F6081718112
:105510008281938120E030E040E251E40E941F024A
:10552000DC01CB018E0109591F4FBC01CD010E9446
:105530004900DC01CB01F801918380831FC0FE018B
:10554000EB59FF4F88EC90E091838083FE01EB598B
:10555000FF4F808191810197F1F7FE01EB59FF4FD9
:1055600091838083DE01A959BF4FFE01E959FF4FA6
:1055700080819181019711969C938E93FE01E95948
:10558000FF4F808191810097D1F627C08E01095984
:105590001F4FFE01E759FF4F608171818281938126
:1055A0000E944900DC01CB01F80191838083DE0178
:1055B000AD59BF4FFE01E959FF4F808191818D9315
:1055C0009C93FE01ED59FF4F808191810197F1F786
:1055D000FE01ED59FF4F9183808381E00E94701698
:1055E0003EC4FE01EF58FF4F8081823309F0C0C0F6
:1055F00081E00E94701687E291E060EC40E00E943A
:105600001E19FE01E15AFF4F80E090E0AAE7B4E4E2
:1056100080839183A283B3838E01055A1F4FFE01BD
:10562000E15AFF4F608171818281938120E030E0F7
:105630004AEF54E40E941F02DC01CB01F801808391
:105640009183A283B383FE01E55AFF4F608171818C
:105650008281938120E030E040E85FE30E942504EE
:10566000882344F4FE01E75AFF4F81E090E09183E4
:10567000808364C0FE01E55AFF4F608171818281A1
:10568000938120E03FEF4FE757E40E94C5031816CF
:105690000CF043C0FE01E15AFF4F608171818281AD
:1056A000938120E030E040E251E40E941F02DC01DF
:1056B000CB018E01075A1F4FBC01CD010E9449004A
:1056C000DC01CB01F801918380831FC0FE01E95A00
:1056D000FF4F88EC90E091838083FE01E95AFF4FF1
:1056E000808191810197F1F7FE01E95AFF4F918383
:1056F0008083DE01A75ABF4FFE01E75AFF4F80812A
:105700009181019711969C938E93FE01E75AFF4F6A
:10571000808191810097D1F627C08E01075A1F4FD3
:10572000FE01E55AFF4F60817181828193810E9461
:105730004900DC01CB01F80191838083DE01AB5A83
:10574000BF4FFE01E75AFF4F808191818D939C935B
:10575000FE01EB5AFF4F808191810197F1F7FE0125
:10576000EB5AFF4F9183808381E00E94701677C3CC
:10577000FE01EF58FF4F8081833309F0C0C081E004
:105780000E94701683E391E060EC40E00E941E19D5
:10579000FE01EF5AFF4F80E090E0AAE7B4E4808377
:1057A0009183A283B3838E01035B1F4FFE01EF5AE7
:1057B000FF4F608171818281938120E030E04AEF68
:1057C00054E40E941F02DC01CB01F8018083918325
:1057D000A283B383FE01E35BFF4F6081718182810D
:1057E000938120E030E040E85FE30E9425048823B5
:1057F00044F4FE01E55BFF4F81E090E091838083FC
:1058000064C0FE01E35BFF4F6081718182819381FF
:1058100020E03FEF4FE757E40E94C50318160CF055
:1058200043C0FE01EF5AFF4F6081718182819381F5
:1058300020E030E040E251E40E941F02DC01CB0195
:105840008E01055B1F4FBC01CD010E944900DC01A8
:10585000CB01F801918380831FC0FE01E75BFF4FFE
:1058600088EC90E091838083FE01E75BFF4F8081AD
:1058700091810197F1F7FE01E75BFF4F91838083F0
:10588000DE01A55BBF4FFE01E55BFF4F808191818B
:10589000019711969C938E93FE01E55BFF4F8081EB
:1058A00091810097D1F627C08E01055B1F4FFE0145
:1058B000E35BFF4F60817181828193810E94490087
:1058C000DC01CB01F80191838083DE01A95BBF4F2E
:1058D000FE01E55BFF4F808191818D939C93FE01DA
:1058E000E95BFF4F808191810197F1F7FE01E95B50
:1058F000FF4F9183808381E00E947016B0C2FE0149
:10590000EF58FF4F8081843309F092C081E00E94FC
:1059100070168FE391E060EC40E00E941E19FE01DA
:10592000ED5BFF4F80E090E0AAE7B4E480839183D1
:10593000A283B3838E01015C1F4FFE01ED5BFF4F1D
:10594000608171818281938120E030E04AEF54E4EC
:105950000E941F02DC01CB01F80180839183A283A6
:10596000B383FE01FF96608171818281938120E083
:1059700030E040E85FE30E94250488232CF481E0B6
:1059800090E09EAF8DAF46C0FE01FF9660817181B1
:105990008281938120E03FEF4FE757E40E94C503E7
:1059A000181664F5FE01ED5BFF4F60817181828105
:1059B000938120E030E040E251E40E941F02DC01CC
:1059C000CB01BC01CD010E944900DC01CB019EAF9F
:1059D0008DAF0FC088EC90E09CAF8BAF8BAD9CADD2
:1059E0000197F1F79CAF8BAF8DAD9EAD01979EAF48
:1059F0008DAF8DAD9EAD009769F716C0FE01FF9685
:105A000060817181828193810E944900DC01CB0118
:105A10009EAF8DAF8DAD9EAD9AAF89AF89AD9AAD7A
:105A20000197F1F79AAF89AF81E00E94701617C213
:105A3000FE01EF58FF4F8081853309F07FC081E080
:105A40000E9470168AE491E060EC40E00E941E190A
:105A500080E090E0AAE7B4E48DAB9EABAFABB8AF0B
:105A60006DA97EA98FA998AD20E030E04AEF54E4FB
:105A70000E941F02DC01CB0189AB9AABABABBCAB84
:105A800069A97AA98BA99CA920E030E040E85FE3EE
:105A90000E94250488232CF481E090E098AB8FA726
:105AA0003FC069A97AA98BA99CA920E03FEF4FE7E5
:105AB00057E40E94C50318164CF56DA97EA98FA95D
:105AC00098AD20E030E040E251E40E941F02DC018A
:105AD000CB01BC01CD010E944900DC01CB0198AB98
