:100000000C942A000C946B0A0C94920A0C94B90A72
:100010000C9447000C9447000C9447000C94470044
:100020000C9447000C9447000C944B090C94470027
:100030000C9480090C94A7070C94CC070C94F1073E
:100040000C9447000C9447000C9447000C940D0A44
:100050000C94470011241FBECFE5D8E0DEBFCDBF12
:1000600012E0A0E6B0E0E0EFF3E302C005900D92ED
:10007000AE35B107D9F712E0AEE5B2E001C01D928E
:10008000A03BB107E1F70E9475160C94F6190C9489
:100090000000EF92FF920F931F937B018C0120E0F1
:1000A00030E040E05FE40E94C50388238CF0C80183
:1000B000B70120E030E040E05FE40E94C1010E940F
:1000C00053049B01AC01205030404040504806C0D2
:1000D000C801B7010E9453049B01AC01B901CA01D8
:1000E0001F910F91FF90EF900895A0E0B0E0EBE733
:1000F000F0E00C941E17DC012B01FA019C91923068
:1001000008F439C1EB018881823008F433C194309E
:1001100069F4843009F02FC111969C91119789815F
:10012000981709F428C1ADE3B1E025C1843009F482
:1001300021C18230A9F4923009F01DC19A01AD01AC
:1001400088E0EA010990AE01E90109929E0181501F
:10015000C1F7E201898111969C918923818308C1AD
:10016000923009F407C112962D903C901397EB0141
:100170008A819B811496AD90BD90CD90DC901797AD
:10018000EC80FD800E811F819101281B390BB90184
:1001900037FF04C066277727621B730B6032710537
:1001A0000CF061C0121613066CF537014801062EDB
:1001B00004C096948794779467940A94D2F721E0C8
:1001C00030E040E050E004C0220F331F441F551FB1
:1001D0006A95D2F721503040404050402E213F21B7
:1001E00040235123211531054105510521F021E01E
:1001F00030E040E050E079018A01E628F72808293C
:1002000019293CC0232BD1F1260E371E350146019A
:10021000062E04C096948794779467940A94D2F734
:1002200021E030E040E050E004C0220F331F441FC3
:10023000551F6A95D2F721503040404050402A2146
:100240003B214C215D21211531054105510521F04E
:1002500021E030E040E050E059016A01A628B728CB
:10026000C828D9280BC0821593052CF01C01AA249C
:10027000BB24650103C0EE24FF24870111969C91E5
:10028000D20111968C91981709F445C0992339F041
:10029000A80197012A193B094C095D0906C0A6016E
:1002A00095012E193F09400B510B57FD08C01182D3
:1002B0003382228224833583468357831DC081E0A5
:1002C00081833382228288279927DC01821B930B4A
:1002D000A40BB50B84839583A683B7830DC0220F2F
:1002E000331F441F551F24833583468357838281E0
:1002F000938101979383828324813581468157813D
:10030000DA01C9010197A109B1098F5F9F4FAF4F72
:10031000BF4328F30BC0918333822282EA0CFB1C7B
:100320000C1D1D1DE482F5820683178383E0808304
:10033000248135814681578157FF1AC0C901AA27F8
:1003400097FDA095BA2F81709070A070B0705695EF
:10035000479537952795822B932BA42BB52B848318
:100360009583A683B7838281938101969383828349
:10037000DF0101C0D201CD01CDB7DEB7E2E10C94BF
:100380003A17A0E2B0E0E7ECF1E00C942A17698399
:100390007A838B839C832D833E834F835887E9E048
:1003A000EE2EF12CEC0EFD1ECE010196B7010E943F
:1003B00044068E010F5E1F4FCE010596B8010E94C4
:1003C00044068A8991E089278A8BC701B801AE016A
:1003D000475E5F4F0E9475000E946F05A096E6E0A1
:1003E0000C944617A0E2B0E0E8EFF1E00C942A1775
:1003F00069837A838B839C832D833E834F835887C5
:10040000F9E0EF2EF12CEC0EFD1ECE010196B701A6
:100410000E9444068E010F5E1F4FCE010596B80163
:100420000E944406C701B801AE01475E5F4F0E94BB
:1004300075000E946F05A096E6E00C944617A0E2B6
:10044000B0E0E5E2F2E00C941E1769837A838B83B7
:100450009C832D833E834F835887CE010196BE0136
:10046000675F7F4F0E944406CE010596BE016F5E16
:100470007F4F0E9444069985923088F089898230A6
:10048000C8F0943019F4823051F404C0843029F457
:10049000923081F48DE391E0C6C0923049F420E0BF
:1004A0009A858A89981321E02A87CE010996BBC0D4
:1004B000823049F420E09A858A89981321E02A8BBA
:1004C000CE014196B0C02D843E844F8458886D88FB
:1004D0007E888F88988CEE24FF248701AA24BB2471
:1004E000650140E050E060E070E0E0E0F0E0C10174
:1004F00081709070892BE9F0E60CF71C081D191D1E
:100500009A01AB012A0D3B1D4C1D5D1D80E090E062
:10051000A0E0B0E0E614F7040805190520F481E036
:1005200090E0A0E0B0E0BA01A901480F591F6A1F8E
:100530007B1FAA0CBB1CCC1CDD1C97FE08C081E0F5
:1005400090E0A0E0B0E0A82AB92ACA2ADB2A3196B6
:10055000E032F10549F0660C771C881C991C569412
:10056000479437942794C3CFFA85EA892B893C892D
:100570008B859C85280F391F2E5F3F4F17C0CA01FE
:1005800081709070892B61F016950795F794E79428
:1005900080E090E0A0E0B0E8E82AF92A0A2B1B2BC3
:1005A00076956795579547952F5F3F4F77FDE7CF36
:1005B0000CC0440F551F661F771F17FD4160EE0CDE
:1005C000FF1C001F111F21503040403090E05907A0
:1005D00090E0690790E4790760F32B8F3C8FDB0193
:1005E000CA018F779070A070B07080349105A1051A
:1005F000B10561F447FD0AC0E114F10401051105DC
:1006000029F0405C5F4F6F4F7F4F40781A8EFE1786
:1006100011F081E08A8F4D8F5E8F6F8F78A383E01A
:10062000898FCE0149960E946F05A096E2E10C9455
:100630003A17A8E1B0E0EFE1F3E00C9426176983E4
:100640007A838B839C832D833E834F835887B9E0C5
:10065000EB2EF12CEC0EFD1ECE010196B7010E948F
:1006600044068E010F5E1F4FCE010596B8010E9411
:1006700044062985223008F47EC03989323010F4CE
:10068000B8017CC08A859A8989278A87243011F02D
:10069000223031F4231709F06EC06DE371E06EC0B3
:1006A000343039F41D861E861F86188A1C861B86E8
:1006B00004C0323021F484E08987B7015FC02B8504
:1006C0003C858B899C89281B390B3C872B87ED84C3
:1006D000FE840F851889AD88BE88CF88D88CEA142F
:1006E000FB040C051D0540F4EE0CFF1C001F111F40
:1006F000215030403C872B8720E030E040E050E044
:1007000080E090E0A0E0B0E460E070E0EA14FB0478
:100710000C051D0540F0282B392B4A2B5B2BEA18C2
:10072000FB080C091D09B695A79597958795EE0CC2
:10073000FF1C001F111F6F5F7F4F6F31710531F775
:10074000DA01C9018F779070A070B0708034910584
:10075000A105B10561F427FD0AC0E114F10401050A
:10076000110529F0205C3F4F4F4F5F4F20782D87B8
:100770003E874F87588BBE01675F7F4FCB010E943A
:100780006F056896EAE00C944217A8E1B0E0EBEC44
:10079000F3E00C942A1769837A838B839C832D83DF
:1007A0003E834F83588789E0E82EF12CEC0EFD1E26
:1007B000CE010196B7010E9444068E010F5E1F4FC5
:1007C000CE010596B8010E9444068985823040F02A
:1007D0008989823028F0C701B8010E94BC0601C097
:1007E0008FEF6896E6E00C944617A8E0B0E0EBEFD8
:1007F000F3E00C9427179B01AC0183E08983DA01B5
:10080000C9018827B7FD83959927AA27BB27B82E4A
:10081000211531054105510519F482E089833AC05B
:100820008823A9F0203080E0380780E0480780E87E
:10083000580729F460E070E080E09FEC30C0EE24BF
:10084000FF248701E21AF30A040B150B02C0790199
:100850008A018EE1C82ED12CDC82CB82ED82FE8211
:100860000F831887C801B7010E9420050197181649
:10087000190684F4082E04C0EE0CFF1C001F111F83
:100880000A94D2F7ED82FE820F831887C81AD90A1C
:10089000DC82CB82BA82CE0101960E946F05289637
:1008A000E9E00C944317ACE0B0E0E9E5F4E00C9427
:1008B0002E1769837A838B839C83CE010196BE01B8
:1008C0006B5F7F4F0E9444068D81823061F18230E0
:1008D00050F1843021F48E81882351F12EC02F8174
:1008E000388537FD20C06E812F3131051CF066231D
:1008F000F9F023C08EE190E0821B930B29853A85A5
:100900004B855C8504C056954795379527958A9504
:10091000D2F76623B1F050954095309521953F4F21
:100920004F4F5F4F0EC020E030E040E050E009C084
:100930002FEF3FEF4FEF5FE704C020E030E040E0F3
:1009400050E8B901CA012C96E2E00C944A17A8E0DD
:10095000B0E0EDEAF4E00C9426177B018C01611500
:1009600071058105910519F482E0898360C083E0F7
:1009700089838EE1C82ED12CDC82CB82ED82FE826F
:100980000F831887C801B7010E942005FC01319729
:10099000F7FF3BC0222733272E1B3F0B570168016F
:1009A000022E04C0D694C794B794A7940A94D2F7A1
:1009B00040E050E060E070E081E090E0A0E0B0E076
:1009C00004C0880F991FAA1FBB1F2A95D2F7019751
:1009D000A109B1098E219F21A023B1230097A10570
:1009E000B10521F041E050E060E070E04A295B2968
:1009F0006C297D294D835E836F8378878EE190E03B
:100A00008E1B9F0B9C838B8312C0309781F00E2E20
:100A100004C0EE0CFF1C001F111F0A94D2F7ED82D8
:100A2000FE820F831887CE1ADF0ADC82CB821A82FD
:100A3000CE0101960E946F052896EAE00C944217B9
:100A4000EF92FF920F931F937B018C0180E0E816D9
:100A500080E0F80681E0080780E0180788F48FEF4F
:100A6000E816F1040105110531F028F088E090E066
:100A7000A0E0B0E017C080E090E0A0E0B0E012C0DD
:100A800080E0E81680E0F80680E0080781E01807BB
:100A900028F088E190E0A0E0B0E004C080E190E0C0
:100AA000A0E0B0E020E230E040E050E0281B390B4D
:100AB0004A0B5B0B04C016950795F794E7948A954B
:100AC000D2F7F701EB5BFE4F8081281B310941090A
:100AD0005109C9011F910F91FF90EF900895DF9286
:100AE000EF92FF920F931F93FC01E480F580068143
:100AF0001781D1808081823048F480E090E0A0E1CD
:100B0000B0E0E82AF92A0A2B1B2BA5C0843009F48F
:100B10009FC0823021F4EE24FF24870105C0E11438
:100B2000F1040105110519F4E0E0F0E096C06281DE
:100B300073819FEF623879070CF05BC022E83FEFCA
:100B4000261B370B2A3131052CF020E030E040E045
:100B500050E02AC0B801A701022E04C0769567951F
:100B6000579547950A94D2F781E090E0A0E0B0E075
:100B700004C0880F991FAA1FBB1F2A95D2F701979F
:100B8000A109B1098E219F21A023B1230097A105BE
:100B9000B10521F081E090E0A0E0B0E09A01AB0166
:100BA000282B392B4A2B5B2BDA01C9018F779070E8
:100BB000A070B07080349105A105B10539F427FF0C
:100BC00009C0205C3F4F4F4F5F4F04C0215C3F4F37
:100BD0004F4F5F4FE0E0F0E02030A0E03A07A0E0A8
:100BE0004A07A0E45A0710F0E1E0F0E079018A0139
:100BF00027C06038710564F5FB01E158FF4FD8014B
:100C0000C7018F779070A070B07080349105A105F6
:100C1000B10539F4E7FE0DC080E490E0A0E0B0E05B
:100C200004C08FE390E0A0E0B0E0E80EF91E0A1FD8
:100C30001B1F17FF05C016950795F794E79431968B
:100C400087E016950795F794E7948A95D1F705C044
:100C5000EE24FF248701EFEFF0E06E2F6795662703
:100C60006795902F9F77D794DD24D7948E2F869504
:100C7000492F462B582F5D29B701CA011F910F91AB
:100C8000FF90EF90DF900895FC01DB0140815181DE
:100C90002281622F6F7770E0221F2227221F93810B
:100CA000892F880F822B282F30E0991F9927991FB1
:100CB00011969C93119721153105A9F54115510500
:100CC0006105710511F482E037C082E89FEF139649
:100CD0009C938E9312979A01AB0167E0220F331F0A
:100CE000441F551F6A95D1F783E08C930DC0220FE6
:100CF000331F441F551F12968D919C911397019796
:100D000013969C938E931297203080E0380780E0F2
:100D1000480780E4580758F314962D933D934D935C
:100D20005C93179708952F3F310579F441155105CC
:100D30006105710519F484E08C93089564FF03C084
:100D400081E08C9312C01C9210C02F573040139634
:100D50003C932E93129783E08C9387E0440F551FAA
:100D6000661F771F8A95D1F7706414964D935D9333
:100D70006D937C93179708951F93DC01FB019C9161
:100D8000923008F447C08081823008F443C0943028
:100D900051F411961C91843099F58181682F70E08F
:100DA000611B71093FC0843021F0923031F48230F0
:100DB000B9F18181882389F12DC011961C91119779
:100DC0008230F1F081811817D9F412962D913C915F
:100DD0001397828193818217930794F0281739071C
:100DE000BCF014968D919D910D90BC91A02D248105
:100DF000358146815781281739074A075B0718F460
:100E0000112341F00AC082179307A407B50740F4E5
:100E1000112319F061E070E005C06FEF7FEF02C0B1
:100E200060E070E0CB011F910895582F90E0FC0125
:100E3000A3E0EE0FFF1FAA95E1F7E81BF90BE25ABA
:100E4000FD4F80819181892B11F083E00895748397
:100E500063833183208352834683158281E0089522
:100E600090E0FC01B3E0EE0FFF1FBA95E1F7E81B3D
:100E7000F90BE25AFD4F81E08583089590E0FC0173
:100E800023E0EE0FFF1F2A95E1F7E81BF90BE25A6A
:100E9000FD4F1582089590E0FC0133E0EE0FFF1F37
:100EA0003A95E1F7E81BF90BE25AFD4F11821082E7
:100EB0000895CF93DF93CEE5D2E08D81882361F44E
:100EC000E881F981309741F08E81882319F40995E2
:100ED0008B8101C081508E83279682E0C138D8076C
:100EE00061F7DF91CF91089589E597E00E94460967
:100EF0008FB780688FBF0E942B09089510BC83E3D1
:100F000089B95398549A529886E880BD8FB78F77E5
:100F10008FBF5E9A56985E9A57985D9A5598089535
:100F20005D9BFECF8CB90895FC0104C05D9BFECF94
:100F300031968CB980818823C9F708955F9BFECFD5
:100F40008CB108955F9B02C08CB1089508951F92E3
:100F50000F920FB60F9211242F933F934F935F93ED
:100F60006F937F938F939F93AF93BF93EF93FF9371
:100F7000E0E0F0E00995FF91EF91BF91AF919F9173
:100F80008F917F916F915F914F913F912F910F9032
:100F90000FBE0F901F9018951F920F920FB60F92D1
:100FA00011242F933F934F935F936F937F938F936E
:100FB0009F93AF93BF93EF93FF93E0E0F0E0099529
:100FC000FF91EF91BF91AF919F918F917F916F9121
:100FD0005F914F913F912F910F900FBE0F901F90F7
:100FE00018951F920F920FB60F9211242F933F93D3
:100FF0004F935F936F937F938F939F93AF93BF9321
:10100000EF93FF93E0E0F0E00995FF91EF91BF913E
:10101000AF919F918F917F916F915F914F913F9190
:101020002F910F900FBE0F901F901895089582304A
:10103000F1F0833028F4882351F18130A1F51AC0F2
:10104000833019F0843079F506C08FB58E7F8FBD5F
:101050008FB58D7F14C08FB58E7F8FBD8FB58D7F7F
:101060008FBD8EB588608EBD8EB58F7E0EC08FB55C
:10107000816002C08FB58E7F8FBD8FB582608FBDBE
:101080008EB588608EBD8EB580618EBD08958FB59A
:101090008E7F8FBD8FB58D7F8FBD8EB5877F8EBDC7
:1010A0008EB58F7E8EBD0895863009F1873078F435
:1010B0008230D9F1833030F48823F9F0813009F09F
:1010C00041C01EC08430F9F0853048F522C08A3016
:1010D00061F18B3028F4883041F18930A0F40AC0E6
:1010E0008C30E9F08C30A8F08D3061F525C08FB5DB
:1010F0008F770BC08FB58F7D14C08FB58F7D0BC0E0
:101100008FB58F7714C08FB580688FBD8FB58F7BFB
:1011100011C08FB580628FBD8FB580610BC08FB558
:1011200080628FBD8FB58F7E05C08FB580688FBD03
:101130008FB580648FBD08958FB580628FBD8FB5E8
:1011400080618FBD08958330F9F0843028F48130B8
:1011500079F08230B0F409C08530F9F08530D0F0F4
:10116000863009F1873091F528C08EB58E7F02C098
:101170008EB581608EBD8EB58D7F8EBD8EB58B7F19
:101180001AC08EB58E7F02C08EB581608EBD8EB5C1
:101190008260F3CF8EB58E7F02C08EB581608EBD2A
:1011A0008EB58D7F05C08EB58E7F8EBD8EB582606B
:1011B0008EBD8EB584608EBD08958EB581608EBD66
:1011C0008EB582608EBD8EB584608EBD08950F93FE
:1011D0001F93162F042F0E941708812F0E94540876
:1011E000802F0E94A3081F910F910895823069F00B
:1011F000833018F4813071F405C0833019F08430E5
:1012000049F406C077BD66BD08957BBD6ABD0895EB
:101210007BBD6ABD0895613019F0623031F403C0BE
:101220009BBD8ABD089597BD86BD0895813019F094
:10123000823041F404C08EB580648EBD08958EB5B1
:101240008F7B8EBD089589B7806289BF089526B5CA
:1012500037B5C901089583B7886083BF83B78F7B93
:1012600083BF89B7826089BF8CE78CBF83B7887FD3
:10127000836083BF8FB780688FBF089583B7887FEF
:1012800083BF089582BF08958CBF08959093820212
:101290008093810208951F920F920FB60F9211242E
:1012A0002F933F934F935F936F937F938F939F936E
:1012B000AF93BF93EF93FF93E0918102F09182028D
:1012C0000995FF91EF91BF91AF919F918F917F9180
:1012D0006F915F914F913F912F910F900FBE0F90A3
:1012E0001F9018958FB9779BFECF8FB108959FB14E
:1012F0008FB9892F089580EA87BB81E58DB908955C
:101300001F920F920FB60F9211242F933F934F937A
:101310005F936F937F938F939F93AF93BF93EF935D
:10132000FF93E0E0F0E00995FF91EF91BF91AF915D
:101330009F918F917F916F915F914F913F912F91ED
:101340000F900FBE0F901F90189581E067E041E06D
:101350000E94530B81E065E041E00E94530B81E065
:1013600064E041E00E94530B81E066E040E00E94AF
:10137000530B689A699A70986C9A6D9A6B986A98F0
:101380006F986E9A089591B5986091BD91B5987FC8
:10139000982B91BD089581B5806181BD81B588602C
:1013A00081BD000000000000000081B5877F81BD85
:1013B000089582E082B9089A099880B986B7806456
:1013C00086BF86B7846086BF089584EA86BF06B666
:1013D00007FEFDCF089583B986B78F7D86BF86B798
:1013E000806886BF86B7846086BF06B607FEFDCFDD
:1013F000089586B78F7D86BF86B7806886BF86B71B
:10140000846086BF06B607FEFDCF83B1089584E9E8
:1014100086BF089581B1887F08951F920F920FB6FD
:101420000F9211242F933F934F935F936F937F936A
:101430008F939F93AF93BF93EF93FF93E0E0F0E020
:101440000995FF91EF91BF91AF919F918F917F91FE
:101450006F915F914F913F912F910F900FBE0F9021
:101460001F9018958FB780688FBF8BB780648BBF34
:1014700085B7826085BF85B78E7F85BF08958FB79A
:1014800080688FBF8BB780688BBF85B7886085BF4A
:1014900085B78B7F85BF08958FB780688FBF8BB767
:1014A00080628BBF84B78F7B84BF0895823049F000
:1014B000833061F0813071F4709388026093870209
:1014C0000895709386026093850208957093840254
:1014D0006093830208951F920F920FB60F9211240A
:1014E0002F933F934F935F936F937F938F939F932C
:1014F000AF93BF93EF93FF93E0918702F09188023F
:101500000995FF91EF91BF91AF919F918F917F913D
:101510006F915F914F913F912F910F900FBE0F9060
:101520001F9018951F920F920FB60F9211242F93B0
:101530003F934F935F936F937F938F939F93AF935B
:10154000BF93EF93FF93E0918502F0918602099596
:10155000FF91EF91BF91AF919F918F917F916F918B
:101560005F914F913F912F910F900FBE0F901F9061
:1015700018951F920F920FB60F9211242F933F933D
:101580004F935F936F937F938F939F93AF93BF938B
:10159000EF93FF93E0918302F09184020995FF910C
:1015A000EF91BF91AF919F918F917F916F915F91DB
:1015B0004F913F912F910F900FBE0F901F90189554
:1015C0004130B1F5813099F0813030F08230D1F086
:1015D000833009F067C021C02BB381E090E002C0E6
:1015E000880F991F6A95E2F7282B2BBB089528B323
:1015F00081E090E002C0880F991F6A95E2F7282BDE
:1016000028BB089525B381E090E002C0880F991FA0
:101610006A95E2F7282B25BB089522B381E090E07C
:1016200002C0880F991F6A95E2F7282B22BB089504
:101630004423C1F5813099F0813028F08230D9F00F
:10164000833081F524C02BB381E090E002C0880F85
:10165000991F6A95E2F7809582238BBB089528B382
:1016600081E090E002C0880F991F6A95E2F78095AB
:10167000822388BB089525B381E090E002C0880FE3
:10168000991F6A95E2F78095822385BB089522B35E
:1016900081E090E002C0880F991F6A95E2F780957B
:1016A000822382BB08954130B1F5813099F08130B9
:1016B00030F08230D1F0833009F065C021C02AB308
:1016C00081E090E002C0880F991F6A95E2F7282B0D
:1016D0002ABB089527B381E090E002C0880F991FCC
:1016E0006A95E2F7282B27BB089524B381E090E0A8
:1016F00002C0880F991F6A95E2F7282B24BB089532
:1017000021B381E090E002C0880F991F6A95E2F74B
:10171000282B21BB0895813099F0813028F0823048
:10172000D9F0833081F524C02AB381E090E002C073
:10173000880F991F6A95E2F7809582238ABB0895E6
:1017400027B381E090E002C0880F991F6A95E2F705
:101750008095822387BB089524B381E090E002C086
:10176000880F991F6A95E2F78095822384BB0895BC
:1017700021B381E090E002C0880F991F6A95E2F7DB
:101780008095822381BB0895813091F0813028F0CB
:101790008230C9F0833061F521C02BB381E090E045
:1017A00002C0880F991F6A95E2F728272BBB08957E
:1017B00028B381E090E002C0880F991F6A95E2F794
:1017C000282728BB089525B381E090E002C0880F48
:1017D000991F6A95E2F7282725BB089522B381E077
:1017E00090E002C0880F991F6A95E2F7282722BB74
:1017F0000895813049F0813028F0823039F083300B
:10180000B1F40DC089B303C086B301C083B390E0C7
:1018100002C0959587956A95E2F78170089580B327
:1018200090E002C0959587956A95E2F781700895DA
:10183000813049F0813028F0823039F0833041F432
:1018400006C06BBB089568BB089565BB089562BB75
:101850000895813049F0813028F0823039F08330AA
:1018600041F406C06ABB089567BB089564BB089540
:1018700061BB08958CEF8ABB8FEA87BB8DEF84BB79
:101880008EE081BB089580EF8BBB18BA15BA84EF48
:1018900082BB08953F983E9A3D9886B1866086B98E
:1018A000379A089597B1907E982B97B9369A349BC2
:1018B000FECF349A24B135B1C901089597B1907E15
:1018C000982B97B9369A349BFECF349A24B135B110
:1018D000C901089597B1907E982B97B9369A349A9A
:1018E00024B135B1C90108954F925F926F927F92F2
:1018F0008F929F92AF92BF92CF92DF92EF92FF9220
:101900000F931F93DF93CF9300D000D0CDB7DEB7F6
:101910006C013A012901480180E090E00E94A7048F
:1019200069837A838B839C83EE24FF24C701B601ED
:101930000E94A70429813A814B815C810E94C101E8
:101940007B018C0184189508AA24BB24C501B4012D
:101950000E94A7049B01AC01C801B7010E941F02AD
:101960005B016C01B30180E090E00E94A7047B0161
:101970008C0166247724C301B2010E94A7049B0155
:10198000AC01C801B7010E94C1019B01AC01C601B5
:10199000B5010E94190329813A814B815C810E9423
:1019A000F2010F900F900F900F90CF91DF911F9148
:1019B0000F91FF90EF90DF90CF90BF90AF909F90EE
:1019C0008F907F906F905F904F9008950E94C40B0E
:1019D000089540E00E94E00A089541E00E94E00A74
:1019E0000895CF93DF939C016115710511F480E098
:1019F00020C088E0EB0119928A95E9F700D000D069
:101A000000D0EDB7FEB73196CDB7DEB77A836983E4
:101A100080E690E093838283358324830E94551768
:101A200081E0EDB7FEB736960FB6F894FEBF0FBE55
:101A3000EDBFDF91CF910895CF93DF93282FDB0186
:101A40006115710511F480E021C01D921D921D9257
:101A50001C92139700D000D000D0EDB7FEB731969E
:101A6000CDB7DEB77A83698380E690E09383828383
:101A7000248315820E94551781E02DB73EB72A5F57
:101A80003F4F0FB6F8943EBF0FBE2DBFDF91CF91F1
:101A900008950F931F93CF93DF938B019C01411502
:101AA000510511F480E025C08BE0EA0119928A9576
:101AB000E9F7EDB7FEB738970FB6F894FEBF0FBE43
:101AC000EDBF3196CDB7DEB75A83498380E690E00B
:101AD0009383828304831583268337830E9455175B
:101AE00081E0EDB7FEB738960FB6F894FEBF0FBE93
:101AF000EDBFDF91CF911F910F910895EF92FF926B
:101B00001F93182F82E067E041E00E94E00A82E024
:101B100065E040E00E94E00A412F4295417081E07B
:101B200060E00E94E00A412F42954695417081E0B5
:101B300061E00E94E00A412F42954695469541702A
:101B400081E062E00E94E00A412F441F4427441FC5
:101B500081E063E00E94E00A82E066E041E00E94EA
:101B6000E00A80EAE82E8FE0F82EC7010197F1F72E
:101B700082E066E040E00E94E00A412F417081E08F
:101B800060E00E94E00A412F4695417081E061E0EB
:101B90000E94E00A16951695412F417081E062E09F
:101BA0000E94E00A1695117081E063E0412F0E94C7
:101BB000E00A82E066E041E00E94E00AC701019786
:101BC000F1F782E066E040E00E94E00A1F91FF909A
:101BD000EF900895CF93DF93EC0182E067E041E05E
:101BE0000E94E00A82E065E040E00E94E00A03C053
:101BF00021960E947E0D88818823D1F7DF91CF91B5
:101C00000895EF92FF921F93182F82E067E040E063
:101C10000E94E00A82E065E040E00E94E00A412F75
:101C20004295417081E060E00E94E00A412F4295B8
:101C30004695417081E061E00E94E00A412F4295A3
:101C400046954695417081E062E00E94E00A412F8E
:101C5000441F4427441F81E063E00E94E00A82E0C1
:101C600066E041E00E94E00A90EAE92E9FE0F92E4A
:101C7000C7010197F1F782E066E040E00E94E00AC8
:101C8000412F417081E060E00E94E00A412F4695BB
:101C9000417081E061E00E94E00A16951695412F9F
:101CA000417081E062E00E94E00A1695117081E0C7
:101CB00063E0412F0E94E00A82E066E041E00E947A
:101CC000E00AC7010197F1F782E066E040E00E9478
:101CD000E00A1F91FF90EF9008951F93182F643929
:101CE00089F0653918F4603829F406C0603C39F091
:101CF000643D59F080E011C0842F805808C0842FC3
:101D0000805405C0842F8C5602C0842F8C520E94B0
:101D1000010E812F0E947E0D81E01F91089584396C
:101D200089F0853918F4803829F406C0803C39F0F0
:101D3000843D71F080E00895862F805805C0862F7D
:101D4000805402C0862F8C560E94010E81E00895B7
:101D5000862F8C520E94010E81E00895CF93DF936D
:101D6000EC01643989F0653918F4603829F406C04B
:101D7000603C39F0643D59F080E011C0842F8058F8
:101D800008C0842F805405C0842F8C5602C0842F35
:101D90008C520E94010ECE010E94EA0D81E0DF917B
:101DA000CF910895EF92FF920F931F93DF93CF93FC
:101DB000CDB7DEB728970FB6F894DEBF0FBECDBF04
:101DC000162F042F7E010894E11CF11CB7010E941C
:101DD000F10CC701612F402F0E94AE0E28960FB65E
:101DE000F894DEBF0FBECDBFCF91DF911F910F9151
:101DF000FF90EF90089580E49CE90197F1F78CE360
:101E00000E94010E80E197E20197F1F78CE30E94B6
:101E1000010E8CE291E00197F1F78CE30E94010E34
:101E200081E00E94010E82E00E94010E86E00E9485
:101E3000010E8CE00E94010E8CE20E94010E80E8EF
:101E40000E94010E08950F931F93CF93DF93EC012F
:101E500082E067E041E00E94E00A82E065E040E065
:101E60000E94E00A00EA1FE011C0219681E00E9472
:101E7000180C82E066E041E00E94E00AC801019788
:101E8000F1F782E066E040E00E94E00A68816623A4
:101E900061F7DF91CF911F910F9108951F93182F34
:101EA00082E067E041E00E94E00A82E065E040E015
:101EB0000E94E00A81E0612F0E94180C82E066E037
:101EC00041E00E94E00A80EA9FE00197F1F782E09A
:101ED00066E040E00E94E00A1F910895AF92BF9231
:101EE000CF92DF92EF92FF920F931F93CF93DF93E6
:101EF0005B016C010E9453047B018C010027F7FCFD
:101F00000095102FC801B7010E94F5039B01AC0199
:101F1000C601B5010E94C10120E030E048EC52E466
:101F20000E941F020E945304EB01C801B70140E068
:101F300050E00E94490D80E090E00E94230F8EE265
:101F40000E944E0FCA30D1051CF480E30E944E0F50
:101F5000BE01882777FD8095982F40E050E00E94D1
:101F6000490D80E090E00E94230FDF91CF911F91F7
:101F70000F91FF90EF90DF90CF90BF90AF900895BA
:101F80001F93182F82E067E040E00E94E00A82E0A1
:101F900065E040E00E94E00A81E0612F0E94180C99
:101FA00082E066E041E00E94E00A80EA9FE001975B
:101FB000F1F782E066E040E00E94E00A1F91089598
:101FC0001F93182F643989F0653918F4603829F4A3
:101FD00006C0603C39F0643D59F080E011C0842FA8
:101FE000805808C0842F805405C0842F8C5602C0AE
:101FF000842F8C520E94C00F812F0E944E0F81E0CF
:102000001F910895843989F0853918F4803829F4AE
:1020100006C0803C39F0843D71F080E00895862F41
:10202000805805C0862F805402C0862F8C560E948F
:10203000C00F81E00895862F8C520E94C00F81E06E
:102040000895CF93DF93EC01643989F0653918F472
:10205000603829F406C0603C39F0643D59F080E0F6
:1020600011C0842F805808C0842F805405C0842F4D
:102070008C5602C0842F8C520E94C00FCE010E9449
:10208000230F81E0DF91CF910895EF92FF920F939C
:102090001F93DF93CF93CDB7DEB728970FB6F89491
:1020A000DEBF0FBECDBF162F042F7E010894E11CAA
:1020B000F11CB7010E94F10CC701612F402F0E9453
:1020C000211028960FB6F894DEBF0FBECDBFCF917A
:1020D000DF911F910F91FF90EF9008950F931F9341
:1020E00080E69AEE0197F1F788E30E94C00F00EDB9
:1020F00017E0C8010197F1F78FE00E94C00FC801F7
:102100000197F1F781E00E94C00F1F910F91089590
:10211000AF92BF92CF92DF92EF92FF920F931F93F5
:10212000CF93DF935C01FC01108295E4C92E92E00D
:10213000D92E00E0EE24FF2480E0F601608140E02B
:102140000E94E00A83E0609149020E94F90B882313
:1021500019F4C0E0D0E01FC083E060914A020E9401
:10216000F90B882319F4C1E0D0E015C083E0609139
:102170004B020E94F90B882319F4C2E0D0E00BC097
:1021800083E060914C020E94F90B882311F010E06B
:1021900019C0C3E0D0E08E01075B1D4F83E0F8015A
:1021A00060810E94F90B8823C9F3CC0FDD1FCC0F8F
:1021B000DD1FCE0DDF1DC35BDD4F8881F501808300
:1021C00011E001E080E0F601608141E00E94E00A58
:1021D000013059F00894E11CF11C0894C11CD11C79
:1021E000F4E0EF16F10409F0A7CF812FDF91CF9132
:1021F0001F910F91FF90EF90DF90CF90BF90AF9025
:102200000895EF92FF920F931F93CF93DF937C017A
:10221000FC01108205E412E0C0E0D0E080E0F801AB
:10222000608140E00E94E00A83E0609149020E94E0
:10223000F90B882319F4E0E0F0E01DC083E0609121
:102240004A020E94F90B882319F4E1E0F0E013C080
:1022500083E060914B020E94F90B882319F4E2E0BD
:10226000F0E009C083E060914C020E94F90B8823E2
:1022700069F4E3E0F0E0EE0FFF1FEE0FFF1FEC0F3D
:10228000FD1FE35BFD4F8081F701808380E0F80153
:1022900061918F0141E00E94E00A2196C430D1058E
:1022A00009F0BCCFDF91CF911F910F91FF90EF907C
:1022B0000895CF92DF92EF92FF920F931F93DF93D7
:1022C000CF930F92CDB7DEB77C01FC01108205E4FD
:1022D00012E01982CC24DD2480E0F801608140E026
:1022E0000E94E00A83E0609149020E94F90B882372
:1022F00019F4E0E0F0E01DC083E060914A020E9422
:10230000F90B882319F4E1E0F0E013C083E0609159
:102310004B020E94F90B882319F4E2E0F0E009C0B7
:1023200083E060914C020E94F90B882379F4E3E08A
:10233000F0E0EE0FFF1FEE0FFF1FEC0DFD1DE35B46
:10234000FD4F8081F7018083F1E0F98380E0F8019F
:10235000608141E00E94E00AF981F13051F0089477
:10236000C11CD11C0F5F1F4F84E0C816D10409F0B7
:10237000B3CF0F90CF91DF911F910F91FF90EF900E
:10238000DF90CF900895CF92DF92EF92FF920F935C
:102390001F93CF93DF937C01FC01108205E412E0D0
:1023A000C0E0D0E058ECC52ED12C80E0F80160816F
:1023B00040E00E94E00A83E0609149020E94F90B2C
:1023C000882319F4E0E0F0E01DC083E060914A0248
:1023D0000E94F90B882319F4E1E0F0E013C083E0D8
:1023E00060914B020E94F90B882319F4E2E0F0E0BF
:1023F00009C083E060914C020E94F90B8823D1F45C
:10240000E3E0F0E084EF91E0D6011197F1F7019756
:10241000D9F7EE0FFF1FEE0FFF1FEC0FFD1FE35B61
:10242000FD4F8081F701808380E0F801608141E009
:102430000E94E00A21960F5F1F4FC430D10509F0BA
:10244000B4CFDF91CF911F910F91FF90EF90DF906C
:10245000CF900895BF92CF92DF92EF92FF920F93A9
:102460001F93CF93DF937C01FC011082C9E4D2E07B
:102470000DE412E075E8B72E68ECC62ED12C83E08F
:10248000688141E00E94E00A8B2D8A95F1F780E097
:10249000609145020E94F90B8130A9F080E06091C3
:1024A00046020E94F90B813071F080E06091470292
:1024B0000E94F90B813039F080E0609148020E945F
:1024C000F90B813089F484EF91E0F6013197F1F74F
:1024D0000197D9F7F8018081F701808383E060914B
:1024E000490240E00E94E00A21960B5F1F4FF2E094
:1024F000CD34DF0709F0C3CFDF91CF911F910F914A
:10250000FF90EF90DF90CF90BF900895EF92FF92F1
:102510001F93182F7B010E94E50980EA0E94EB09B6
:10252000812F0E94EB090E94E50981EA0E94EB09D4
:102530000E94F909F70180830E94070A1F91FF900A
:10254000EF900895DF92EF92FF920F931F93CF9336
:10255000DF937C01D42EC0E0D0E0062F10E008C04D
:10256000B7016C0F7D1F8D2D8C0F0E948612219656
:10257000C017D107ACF3DF91CF911F910F91FF905E
:10258000EF90DF9008950F931F93082F162F0E944E
:10259000E50980EA0E94EB09812F0E94EB09802F58
:1025A0000E94EB090E94070A1F910F910895BF92A4
:1025B000CF92DF92EF92FF920F931F93CF93DF930F
:1025C0007C01B42EC0E0D0E0062F10E088ECC82ECD
:1025D000D12C0FC0F701EC0FFD1F808180530E94AA
:1025E000C31288EE93E0F6013197F1F70197D9F71E
:1025F00021966B2D6C0FC017D10764F3DF91CF913B
:102600001F910F91FF90EF90DF90CF90BF900895B2
:1026100008950F931F9303E610E0C80164E040E0C3
:102620000E94D712C80164E044E00E94D7121F91B3
:102630000F910895809189020E947E0D80918B02F6
:10264000E82FF0E0EA56FD4F9091890290838F5F6A
:1026500080938B02843011F087E0089581E00E941E
:10266000010E4091A9024C5F86E992E064E00E946D
:10267000D71288E690E00E94EA0D80E197E228EC0C
:1026800030E0F9013197F1F70197D9F710928B02F9
:1026900089E0089580918A02882351F480919A02FA
:1026A00090E023E0880F991F2A95E1F78093A30219
:1026B000809189020E947E0D80918A02E82FF0E0CD
:1026C000E257FD4F9091890290838F5F80938A0239
:1026D000843011F084E008958EE892E064E0409147
:1026E000A3020E94D71281E00E94010E89E790E0C8
:1026F0000E94EA0D80EC60E00E948F0E10928A0228
:102700008CE0089581E00E94010E88E890E00E942C
:10271000EA0D80EC60E00E948F0E089581E00E9437
:10272000010E87E990E00E94EA0D80EC60E00E94D3
:102730008F0E089581E00E94010E86EA90E00E94CB
:10274000EA0D80EC60E00E948F0E08951F9381E0F7
:1027500064E670E040E02FE134E10E941507182F95
:1027600080938D0280E06AEF70E04AEF24E034E16C
:102770000E941507182310938D0282E06AEF70E023
:1027800040E029EE33E10E941507182310938D02D3
:1027900083E068E572E040E025ED33E10E94150733
:1027A000182310938D021F91089583E062E040E0AA
:1027B0000E94E00A81E40E9472098091AB020E94AB
:1027C000720989E30E9472098091AE020E94720927
:1027D00008950F931F9381E00E94520C8C019093F7
:1027E000A2028093A10283E690E060E070E04FEFE8
:1027F00053E020E030E00E94740C0E944900609396
:10280000AB021F910F9108950F931F9380E00E94D8
:10281000520C8C019093A00280939F028FEF90E066
:1028200060E070E04FEF53E020E030E00E94740C75
:102830000E9449006093AE021F910F9108950E947B
:10284000A207813361F0823351F0833341F0843346
:1028500031F0853321F0863311F0873319F40E946B
:1028600072090895883311F40E947209089581E075
:102870000E94010E81EB90E060E843E00E94AE0E02
:1028800080EC60E00E948F0E089581E00E94010EAE
:102890008DEB90E060E841E00E94AE0E8CEC90E0A1
:1028A00060EC41E00E94AE0E80E197E228EC30E05F
:1028B000F9013197F1F70197D9F781E00E94010EF4
:1028C00081EB90E060E840E00E94AE0E80EC60E0BA
:1028D0000E948F0E089580918902823329F40E940C
:1028E0009A1381E090E006C0813349F40E944514B8
:1028F00082E090E090939E0280939D02089583333E
:1029000041F40E94371483E090E090939E028093FC
:102910009D02089581E00E94010E8BED90E060EC35
:1029200040E00E94AE0E87EE90E060EC4CE00E942A
:10293000AE0E8DEE90E060E840E00E94AE0E08958D
:1029400080918A02882351F480919A0290E033E0CA
:10295000880F991F3A95E1F78093A402809189022C
:102960000E947E0D80918C02E82FF0E0EA56FD4F28
:102970009091890290838F5F80938C02843011F054
:102980008CE0089581E00E94010E4091A4024C5F0A
:1029900086E992E064E00E94D71210928C021092B5
:1029A0009C0210929B0280919A028F5F80939A0200
:1029B0006FEF0E94C3128CEF90E00E94EA0D80E15D
:1029C00097E228EC30E0F9013197F1F70197D9F758
:1029D00010929C0210929B0210928A0210928C021A
:1029E0000E948A1484E008951F93182F8DE091E0CF
:1029F0000E94EA0D88E191E060EC40E00E94AE0E9A
:102A0000812F805D60EC48E00E946D0E8FE191E0C7
:102A100060EC4AE00E94AE0E1F9108951F93182F9C
:102A200088E291E00E94EA0D88E191E060EC40E0EC
:102A30000E94AE0E812F805D60EC48E00E946D0E1A
:102A40008FE191E060EC4AE00E94AE0E1F91089584
:102A50000F931F93CF93DF9302E912E0C0E0D0E021
:102A60008091A9028C5F8C0FB8010E948612FE0132
:102A7000EA56FD4F9081F80180819817A9F0809166
:102A8000A5029091A60201969093A6028093A502BA
:102A90000E940E1580E197E228EC30E0F9013197B1
:102AA000F1F70197D9F707C021960F5F1F4FC43088
:102AB000D105B1F636C08091A5029091A60283306F
:102AC000910509F510929C0210929B0210928E02C1
:102AD00010928F0210929002109291021092960220
:102AE00010929702109298021092990210928A0204
:102AF00010928C021092A6021092A5020E948A14D3
:102B000084E090E009C0892B29F081E00E94010E49
:102B10000E948E1386E090E0DF91CF911F910F917C
:102B2000089583E391E00E94EA0D1092A6021092AC
:102B3000A50287E090E0F0CFBF92CF92DF92EF92B4
:102B4000FF920F931F93CF93DF93C5E0D0E0CC2487
:102B5000DD24EE24FF241EC09E012E0D822FB8011D
:102B60000E948612FE01E257FD4F9081F80180819C
:102B7000981739F421960F5F1F4FC430D10561F7C4
:102B80006AC00894C11CD11C28E030E0E20EF31E9C
:102B9000C4E0D0E080919A0290E0C816D90634F4DF
:102BA000BE2C02E912E0C0E0D0E0D6CFC430D1059F
:102BB000B1F48091A7029091A80201969093A80287
:102BC0008093A7020E94F41480E197E228EC30E0A1
:102BD000F9013197F1F70197D9F7C4E0D0E080917E
:102BE000A7029091A80283309105F1F410929C0203
:102BF00010929B0210928E0210928F0210929002FD
:102C000010929102109296021092970210929802DE
:102C10001092990284E080935D020E948A141092BF
:102C2000A8021092A7020CC0892B51F081E00E94EB
:102C3000010E0E949A1384E080935D02C4E0D0E00C
:102C40008C2FDF91CF911F910F91FF90EF90DF902C
:102C5000CF90BF9008950E948E131092A8021092F8
:102C6000A702B092A902C6E0D0E0B9CF813019F036
:102C70008230C9F51BC080918902E0918A02F0E0A0
:102C8000E257FD4F80538083805D0E947E0D8091CE
:102C90008A028F5F80938A02843029F510928A021B
:102CA00081E00E94010E0E949C1508958091890286
:102CB000E0918C02F0E0EA56FD4F80538083805D06
:102CC0000E947E0D80918C028F5F80938C028430F5
:102CD00011F086E0089510928C0281E00E94010EAE
:102CE0000E942815089584E008950F931F93CF93B1
:102CF000DF930E943A0C0E94430C0E94A6130E948C
:102D0000FB0E80E090E00E94A50980E090E00E9428
:102D1000D90980E090E060E070E040E050E00E947F
:102D20007E070E944A0C8FEF6AE972E00E948612C9
:102D30000E948A1404E01AE0C1E0D0E089E892E041
:102D40000E9488108093AA02813009F06CC08091A3
:102D50009B0290919C02009739F40E946B14D093CF
:102D60009C02C0939B02EACF019741F780919D029C
:102D700090919E028130910581F480915D028430B2
:102D800099F08630D9F682E00E94361680935D0273
:102D90008730A1F610935D02D1CF8230910589F57D
:102DA00080915D02843021F481E00E94361638C0A3
:102DB000863059F482E00E94361680935D02873097
:102DC00009F0BCCF0E948213B9CF873009F0B6CF8B
:102DD0000E941A1380935D02893009F0AFCF1092E0
:102DE0009E0210929D0210929C0210929B021092E1
:102DF000890200935D0281E00E94010E0E948A1404
:102E00009DCF039709F09ACF80915D02843019F429
:102E10000E944A1305C08C3009F090CF0E94A01484
:102E200080935D028BCF882309F088CF80915D026B
:102E30008A3009F083CF0E94740780CF2F923F928F
:102E40004F925F926F927F928F929F92AF92BF92BA
:102E5000CF92DF92EF92FF920F931F93CF93DF9366
:102E6000CDB7DEB7CA1BDB0B0FB6F894DEBF0FBEC3
:102E7000CDBF09942A88398848885F846E847D8410
:102E80008C849B84AA84B984C884DF80EE80FD8012
:102E90000C811B81AA81B981CE0FD11D0FB6F89488
:102EA000DEBF0FBECDBFED010895AEE0B0E0EBE5B3
:102EB000F7E10C942C170D891E8986E08C831A8308
:102EC00009838FEF9FE79E838D839E01275E3F4F8F
:102ED000CE0101966F89788DA9010E9479172F8103
:102EE0003885020F131FF80110822E96E4E00C942F
:102EF0004817ABE0B0E0EFE7F7E10C941E173C0198
:102F00002B015A01FC0117821682838181FD03C0C7
:102F10006FEF7FEFC6C19AE0892E1E010894211C35
:102F2000311CF3012381F20123FD859123FF81915F
:102F30002F01882309F4B2C1853239F423FD85912C
:102F400023FF81912F01853229F490E0B3010E9483
:102F50006C19E7CF982FFF24EE249924FFE1FF1589
:102F6000D0F09B3269F09C3228F4903259F09332C1
:102F700091F40EC09D3249F0903369F441E024C0D1
:102F800052E0F52A84E0F82A28C098E0F92A25C002
:102F9000E0E1FE2A22C0F7FC29C0892F80538A3045
:102FA00070F4F6FE05C0989C902C1124980E15C064
:102FB000E89CE02C1124E80EF0E2FF2A0EC09E32BD
:102FC00029F4F6FC6BC140E4F42A07C09C3619F4DE
:102FD00050E8F52A02C0983649F4F20123FD959194
:102FE00023FF91912F01992309F0B8CF892F8554A0
:102FF000833018F08052833038F444E050E0A40E5F
:10300000B51E5FE359830FC0933631F0933779F0E3
:10301000933509F056C020C0F5018081898342E0D4
:1030200050E0A40EB51E610101E010E012C0F501F0
:10303000C080D180F6FC03C06FEF7FEF02C0692D26
:1030400070E042E050E0A40EB51EC6010E94611976
:103050008C015FE7F52214C0F501C080D180F6FC39
:1030600003C06FEF7FEF02C0692D70E042E050E0D7
:10307000A40EB51EC6010E9456198C0150E8F52A0F
:10308000F3FE07C01AC080E290E0B3010E946C1901
:10309000EA948E2D90E008171907A8F30EC0F601E8
:1030A000F7FC8591F7FE81916F0190E0B3010E94DA
:1030B0006C19E110EA94015010400115110579F7DF
:1030C000EAC0943611F0993669F5F7FE08C0F501AB
:1030D000208131814281538184E090E00AC0F50172
:1030E000808191819C01442737FD4095542F82E0D7
:1030F00090E0A80EB91E9FE6F92257FF09C050952F
:103100004095309521953F4F4F4F5F4FE0E8FE2AA5
:10311000CA01B901A1012AE030E00E949819D82E15
:10312000D21840C0953729F41F2D1F7E2AE030E0C9
:103130001DC01F2D197F9F3661F0903720F4983500
:1031400009F0ACC00FC0903739F0983709F0A6C02D
:1031500004C028E030E00AC0106114FD146020E1D2
:1031600030E004C014FD166020E132E017FF08C013
:10317000F501608171818281938144E050E008C053
:10318000F50180819181BC0180E090E042E050E057
:10319000A40EB51EA1010E949819D82ED2188FE74F
:1031A000F82EF122F6FE0BC05EEFF522D91438F4AA
:1031B000F4FE07C0F2FC05C08FEEF82202C01D2D00
:1031C00001C0192DF4FE0DC0FE01ED0DF11D808131
:1031D000803319F499EEF92208C01F5FF2FE05C092
:1031E00003C08F2D867809F01F5F0F2DF3FC14C0EC
:1031F000F0FE0FC01E1510F09D2C0BC09D2C9E0CD8
:10320000911A1E2D06C080E290E0B3010E946C1955
:103210001F5F1E15C0F304C01E1510F4E11A01C093
:10322000EE2404FF0FC080E390E0B3010E946C190C
:1032300002FF1DC001FD03C088E790E00EC088E5D5
:1032400090E00BC0802F867891F001FF02C08BE2E6
:1032500001C080E2F7FC8DE290E0B3010E946C199E
:1032600006C080E390E0B3010E946C199A94D914CF
:10327000C0F3DA94F101ED0DF11D808190E0B3010E
:103280000E946C19DD20A9F706C080E290E0B3012E
:103290000E946C19EA94EE20C1F743CEF3016681D7
:1032A0007781CB012B96E2E10C943A17FC01059053
:1032B000615070400110D8F7809590958E0F9F1F38
:1032C0000895FC016150704001900110D8F780957D
:1032D00090958E0F9F1F08950F931F93CF93DF93A9
:1032E0008C01EB018B8181FF1BC082FF0DC02E8101
:1032F0003F818C819D812817390764F4E881F98129
:103300000193F983E88306C0E885F985802F099544
:10331000892B31F48E819F8101969F838E8302C019
:103320000FEF1FEFC801DF91CF911F910F9108950B
:10333000FA01AA27283051F1203181F1E8946F93E6
:103340006E7F6E5F7F4F8F4F9F4FAF4FB1E03ED08C
:10335000B4E03CD0670F781F891F9A1FA11D680F2A
:10336000791F8A1F911DA11D6A0F711D811D911D5D
:10337000A11D20D009F468943F912AE0269F1124D2
:103380003019305D3193DEF6CF010895462F477036
:10339000405D4193B3E00FD0C9F7F6CF462F4F7091
:1033A000405D4A3318F0495D31FD4052419302D0EF
:1033B000A9F7EACFB4E0A695979587957795679595
:1033C000BA95C9F700976105710508959B01AC0195
:1033D0000A2E06945795479537952795BA95C9F7BC
:1033E000620F731F841F951FA01D0895F894FFCFCF
:1033F00025690031323334004E6577205061737394
:10340000204861732053657400454E544552205046
:10341000415353574F524400454E544552204E4558
:1034200057205041535300456E74657220504153EC
:1034300053574F524400456E746572205573657240
:1034400000454E54455220555345522000454E5498
:103450004552205553455220594F550057414E541F
:1034600020544F204348414E474500322D3E4F7077
:10347000656E2053797300332D3E2E2E00312D3E84
:103480004368616E67652050617373004E657720F5
:103490005573657220486173205365740057524F0D
:1034A0004E47205553455200466F72202D3E002F47
:1034B000332054696D65730057524F4E4720504179
:1034C000535300535953204F50454E4400000000C1
:1034D00000000000000001020203030303040404CF
:1034E0000404040404050505050505050505050591
:1034F0000505050505060606060606060606060671
:10350000060606060606060606060606060606065B
:103510000606060606070707070707070707070740
:10352000070707070707070707070707070707072B
:10353000070707070707070707070707070707071B
:10354000070707070707070707070707070707070B
:1035500007070707070808080808080808080808F0
:1035600008080808080808080808080808080808DB
:1035700008080808080808080808080808080808CB
:1035800008080808080808080808080808080808BB
:1035900008080808080808080808080808080808AB
:1035A000080808080808080808080808080808089B
:1035B000080808080808080808080808080808088B
:1035C000080808080808080808080808080808087B
:1035D00008080808080405060704050607373839EF
:0E35E0002F343536583132332D23303D2B0435
:00000001FF
